:020000040800F2
:10000000D0DE0120B1010008FB29000863250008AB
:10001000F9290008AD0500087D3100080000000046
:10002000000000000000000000000000D72C0008C5
:100030006D06000800000000FD290008D92C00080A
:10004000CB010008CB010008CB010008CB01000860
:10005000CB010008CB010008CB010008CB01000850
:10006000CB010008CB010008CB010008CB01000840
:10007000CB010008CB010008CB010008CB01000830
:10008000CB010008CB010008490400080000000073
:10009000000000000000000000000000CB0100088C
:1000A000CB010008CB010008CB010008CB01000800
:1000B000892D0008CB010008CB010008CB01000806
:1000C000CB010008CB010008CB010008CB010008E0
:1000D000CB010008CB010008CB01000800000000A4
:1000E000CB010008CB010008CB0100080000000094
:1000F000000000000000000000000000CB0100082C
:1001000000000000CB010008CB010008CB01000873
:1001100000000000000000000000000000000000DF
:10012000B1050008CB010008BD050008CB0100089F
:10013000CB010008000000000000000000000000EB
:10014000000000000000000000000000CB010008DB
:10015000CB010008CB010008CB010008CB0100084F
:10016000CB010008CB0100080000000000000000E7
:10017000000000000000000000000000000000007F
:1001800000000000CB01000800000000000000009B
:10019000CB010008CB010008DFF810D000F0D0F848
:1001A00000480047F5280208AFF30080D0DE0120A8
:1001B0000648804706480047FEE7FEE7FEE7FEE701
:1001C000FEE7FEE7FEE7FEE7FEE7FEE7792D000823
:1001D000990100082DE9F05F0546002092469B46F4
:1001E00088460646814640241BE02846414647464D
:1001F000224600F095F853465A46C01A914110D352
:1002000011461846224600F07CF82D1A67EB0108CB
:100210004F4622460120002100F073F817EB000939
:100220004E41201EA4F10104DFDC484631462A4637
:100230004346BDE8F09F10B5431A934209D2831894
:10024000881803E010F8011D03F8011D521EF9D2B1
:1002500010BD40EA01039B0703D009E008C9121F43
:1002600008C0042AFAD203E011F8013B00F8013B70
:10027000521EF9D210BDD2B201E000F8012B491E86
:10028000FBD270470022F6E710B513460A46044633
:100290001946FFF7F0FF204610BD421C10F8011B65
:1002A0000029FBD1801A704710B5002200E0521CD3
:1002B000835C8C5CA34201D1002BF8D1D8B2E1B2AF
:1002C000401A10BD034611F8012B00F8012B002A3B
:1002D000F9D11846704730B50B4601460020202260
:1002E000012409E021FA02F59D4205D303FA02F543
:1002F000491B04FA02F52844151EA2F10102F1DCA3
:1003000030BD202A04DB203A00FA02F100207047B9
:100310009140C2F1200320FA03F319439040704743
:10032000202A04DB203A21FA02F00021704721FA4A
:1003300002F3D040C2F120029140084319467047B1
:10034000064C074D06E0E06840F0010394E8070022
:1003500098471034AC42F6D3FFF722FF481E04083A
:10036000681E040870B58C1810F8015B15F00703BF
:1003700001D110F8013B2A1106D110F8012B03E03E
:1003800010F8016B01F8016B5B1EF9D12B0705D446
:100390000023521E0DD401F8013BFAE710F8013B8F
:1003A000CB1A921C03E013F8015B01F8015B521EAB
:1003B000F9D5A142D8D3002070BD10B50146806B9D
:1003C000026C12F0500F05D0026CD20626D500F058
:1003D00005FA10BD016C41F40071016401688A687E
:1003E00012F0405F17D1027EAAB9CA6A12F4700FE8
:1003F00002D08A6852050ED44A6822F020024A6070
:10040000016C21F480710164016CC90403D4016C96
:1004100041F00101016400F0DFF910BD806BC26C96
:10042000BDE810400846104710B5806B40210164BC
:10043000416C41F00401416400F0D0F910BD10B5E9
:10044000806B00F0CAF910BD014800F0C8B9000087
:1004500018130020464910B54A6822F440324A6019
:100460004A6843681A434A6001684A6822F4807205
:100470004A6001684A68036942EA03224A600168E7
:100480004A6822F040724A6001684A6883681A43E9
:100490004A6001688A6822F400628A6001688A689A
:1004A000C3681A438A60816A6FF07062D142016842
:1004B0008A6822F070628A6001688A680CD0836A58
:1004C0001A438A6001688A6822F040528A60016893
:1004D0008A68C36A1A4301E022F040528A600168C8
:1004E0008A6822F002028A6001688A68037E42EA12
:1004F00043028A6090F82010002901684A680FD0F2
:1005000042F400624A6001684A6822F460424A602C
:1005100001684A68174C436A04EB43331A4301E00D
:1005200022F400624A600168CA6A22F47002CA6258
:100530000168CA6A838B104C04EB03531A43CA62E6
:1005400001688A6822F400728A6001688A6890F8FB
:10055000303042EA43228A6001688A6822F480626D
:100560008A6001688A68406942EA8020886010BD1C
:100570000023014000E0FFFF0000F0FF014822F0EF
:100580006ABD000004000020014822F024BD0000E4
:1005900004000020014822F071BD0000040000208A
:1005A000014822F045BD000004000020FEE70000E5
:1005B000014800F0CFBA000060130020014800F0AD
:1005C000C9BA00006C14002001681823CAB2103A9E
:1005D000B2FBF3F2054B6FF30901032A9B5CC36581
:1005E00000D9091D8165084670470000FE770208A2
:1005F00010B5014600208B698A6A4FF0C07453B170
:10060000B3F5005F15D072B1012A0CD0022A0AD0CE
:10061000032A09D104E01AB1012A06D0022A03D123
:10062000C96AC90100D5012010BDC96AA142FAD02A
:1006300010BD002AF7D0012AF2D0022AF3D0032AF3
:10064000F3D010BD30B50468256825F480252560F9
:10065000046863608368402B036803D09960006876
:10066000C26030BD9A600068C16030BD704772B62C
:10067000FEE7704778B50024009490F83C20012AEA
:1006800019D0012280F83C200A6807230568092A4E
:1006900013D9EE680A3A02EB420293409E43EE60A1
:1006A0000B788A680A3B03EB43039A400368DD68D2
:1006B0002A43DA6010E0022078BD2E6902EB420284
:1006C00093409E432E610B788A6803EB43039A4064
:1006D00003681D692A431A614A681F23072A13D237
:1006E00005686E6B521E02EB820293409E436E635E
:1006F0000A8893B20A79521E02EB82029340026882
:10070000556B2B43536327E005680D2A12D22E6BDD
:10071000D21F02EB820293409E432E630B790A881C
:10072000DB1F92B203EB83039A4003681D6B2A43DD
:100730001A6311E0EE6A0D3A02EB820293409E4387
:10074000EE620B790A880D3B92B203EB83039A4069
:100750000368DD6A2A43DA621B4B0568194A9D4229
:100760000AD10D68122D07D1556825F40005556092
:10077000556845F48005556005689D421DD1134DAF
:100780000B68AB4201D0112B17D1536823F48003BF
:100790005360536843F4000353600968A9420CD1C5
:1007A0000B490C4A0968B1FBF2F101EB81014900E8
:1007B00000E0491E00910029FBD180F83C40002058
:1007C00078BD00000023014000200140120000100D
:1007D0007400002040420F0070477047704770B5AA
:1007E000044600680668456816F0020F05F020010F
:1007F0002AD049B3216CC90603D4216C41F400719D
:100800002164816811F0405F17D1217EA9B9C16AC6
:1008100011F4700F02D0816849050ED4416821F0AF
:1008200020014160206C20F480702064206CC004A2
:1008300003D4206C40F0010020642046FFF7CCFF79
:1008400021686FF01200086016F0040F05F08001B7
:1008500032D089B3206CC00603D4206C40F4005021
:1008600020642068816811F4401F1ED1816B11F44F
:10087000401F02D08168490517D44168490514D446
:10088000816811F0405F10D1217E71B9416821F07B
:1008900080014160206C20F480502064206CC005F1
:1008A00003D4206C40F0010020642046FFF7E1FEF5
:1008B00021686FF00C00086016F0010F05F0400190
:1008C0000FD071B120680068C0070AD0206C40F4D6
:1008D00080302064204600F043F821686FF001006A
:1008E000086016F0200F05F080610ED000290CD0B2
:1008F000606C40F00200606420686FF020050560C5
:100900002046FFF76BFF2068056070BD70B50400DE
:100910004FF0000503D0206C002610B107E0012045
:1009200070BD204600F01EF8666484F83C60206CC0
:10093000C00610D4206C20F4885040F002002064DF
:100940002046FFF787FD6664206C20F0020040F02F
:100950000100206400E0012584F83C60284670BD59
:100960007047000070B586B0064614216846FFF750
:1009700089FC2949306888424CD128480025016803
:1009800041F4807101600068244900F480701439DA
:100990000590086840F001000860086800F0010058
:1009A0000590086840F0020008600868032400F021
:1009B0000200059001208DE831006946184800F0DA
:1009C0004DFA02208DE831006946164800F046FADB
:1009D000164C1548C4E900050015A560C4E903508C
:1009E000800060618000A0618011E0614FF44030C0
:1009F000C4E90805204600F07DF908B1FFF737FE8D
:100A0000B463002211461220A66300F08BFC122072
:100A100000F07AFC06B070BD00200140443802406E
:100A200000000240000402401064024060130020F5
:100A3000F8B5044600200E46009094F83C100129B9
:100A400007D0012184F83C1021688B68DB0702D0B5
:100A500011E00220F8BD8B6843F001038B6036493A
:100A6000364B0968B1FBF3F101EB410100E0491E8F
:100A700000910029FBD121688B68DB0503D58B68C9
:100A800023F480738B6021688B68DB0749D0236C6B
:100A900040F20165AB4343F4807323644968490520
:100AA00005D5216C21F4005141F480512164216C61
:100AB000C90404D5616C21F00601616400E0606442
:100AC00084F83C00A16B1F481D4DC863A16B1E48F4
:100AD0000864A16B1D48C86421686FF0220008609B
:100AE0002068416841F0806141602068816841F47C
:100AF000807181602168134632464C31A06B00F052
:100B000063F96868C006206802D01149884210D194
:100B1000816811F0405F0CD1816841F080418160B3
:100B200007E0206C40F010002064606C40F0010091
:100B300060640020F8BD00007400002040420F00F7
:100B400000230140BB0300083F04000829040008FB
:100B5000002001402DE9F84304464FF00009CDF88C
:100B6000009063484FF41651A56D0068B0FBF1F793
:100B70002E6894F85C10082000FA01F131420FD081
:100B800021680A6852070BD50A6822F004020A603D
:100B900094F85C108840A860606D40F001006065CA
:100BA00094F85C104FF0010808FA01F0304208D0C8
:100BB00021684969090604D5A860606D40F002000B
:100BC000606594F85C1004208840304208D02168A9
:100BD0000968890704D5A860606D40F0040060656D
:100BE00094F85C1010208840304218D021680968C1
:100BF000090714D5A86020680168490304D5006876
:100C0000000308D5A16C07E00168C90503D4016899
:100C100021F008010160216C09B12046884794F851
:100C20005C1020208840304231D021680968C90614
:100C30002DD5A86094F8350005282068016806D0F5
:100C4000490347D5006800031DD4616C1CE021F006
:100C5000160101602068416921F080014161206C2A
:100C600008B9A06C20B12068016821F0080101607A
:100C700094F85C103F208840A86084F8358084F8A0
:100C80003490216D1FE0E16B09B120468847606D0B
:100C900000282BD0606DC00714D0052084F83500E3
:100CA0002068016821F0010101600098401C00905B
:100CB000B84203D820680068C007F6D184F83580B0
:100CC00084F83490E16C002910D001B02046BDE8D2
:100CD000F04308470168C905D5D4016821F0100127
:100CE000016084F8358084F83490CCE7BDE8F8835F
:100CF000740000202DE9F041044600F0A9F90646F1
:100D00005CB1022084F83500002584F83450206856
:100D1000016821F0010101600DE00120BDE8F081D2
:100D200000F096F9801B052805D920206065032076
:100D300084F83500F2E720680068C007F0D1226827
:100D4000116820480140D4E901031843D4E903366F
:100D50003343184363691843A3691843E36918438D
:100D6000236A18430843616A042903D1D4E90B13A9
:100D700019430843106020684069666A20F0070143
:100D800030460E43012704280CD1A06A0643E06ACE
:100D900040B12046FFF72CFC20B14020606584F86C
:100DA0003570BAE7206846612046FFF70DFC94F8DD
:100DB0005C203F2191408160656584F8357000209A
:100DC000ACE700003F8010F02DE9F0410446866D4D
:100DD00090F83400002501280DD0012084F834005B
:100DE00094F835700020012F07D084F834000225D4
:100DF0002846BDE8F0810220FBE7022784F8357021
:100E000060652046FFF71EFC94F85C103F20884088
:100E1000B0602068016841F016010160206C20B1CB
:100E20002068016841F0080101602068016841F014
:100E300001010160DCE7000070B5044600F008F92C
:100E40000546601C02D004480078044400F000F914
:100E5000401BA042FAD370BD680000202DE9F84F76
:100E6000DFF8B8A10022012403254FF00F090AF191
:100E7000040BAAF1040E00BF0B6804FA02F633401B
:100E8000B34273D10F7907F00307012F01D0022F6E
:100E900016D187684FEA420805FA08FC27EA0C07D2
:100EA000D1F80CC00CFA08FC4CEA070CC0F808C0DA
:100EB0004768B7430E79C6F3001696403E43466036
:100EC0000E79F643B6070DD0C768560005FA06FC42
:100ED00027EA0C07D1F808C00CFA06FC4CEA070C0C
:100EE000C0F80CC00E7906F00306022E10D1D60809
:100EF00000EB8608D8F8206057074FEAD76C09FA4C
:100F00000CF7BE430F6907FA0CF73743C8F8207097
:100F100006684FEA420C05FA0CF7BE430F7907F05A
:100F2000030707FA0CF7374307604E6816F4403F93
:100F30006DD03B4E376847F480473760366822F003
:100F4000030706F480460096364E07EB060CDCF8E5
:100F5000086897073F0F09FA07F826EA0806DFF83E
:100F6000C880404503D14FF000081EE04FE0DFF895
:100F7000BC80404502D14FF0010816E0DFF8B08098
:100F8000404502D14FF002080FE0DFF8A88040454D
:100F900002D14FF0030808E0DFF89C80404502D101
:100FA0004FF0040801E04FF0070808FA07F848EA94
:100FB0000608CCF80888DAF800605746D1F804C073
:100FC0009E435FEACC2C00D51E433E60DBF80060F8
:100FD0005F46D1F804C09E435FEA8C2C00D51E43C7
:100FE0003E60DEF800607746D1F804C09E435FEAB9
:100FF0008C3C00D51E433E60084F083F3E68D1F848
:1010000004C09E435FEACC3C00D51E433E60521CA8
:10101000102AFFF431AFBDE8F88F0000083C014012
:101020004438024000300140000002400004024009
:1010300000080240000C0240001002400069084015
:1010400000D0012070470AB1816170470904FBE7B5
:1010500001488068704700006800002070B50400F7
:1010600025D094F83D00002520B984F83C50204656
:1010700000F0B8F8242084F83D002068016821F0D1
:10108000010101602068016841F4004101602068AD
:10109000016821F40041016000F010FA4D4A6168D6
:1010A000914201D84C4900E04C49884201D20120CC
:1010B00070BD4B492368B0FBF1F15E6826F03F0636
:1010C0000E435E606368934206D94FF496735943AA
:1010D0004FF47A73B1FBF3F12368491C1E6A26F0C2
:1010E0003F06314319626168914210D84900401EA1
:1010F000B0FBF1F2521CC2F30B02042A01D204200D
:1011000022E0B0FBF1F0401CC0F30B001CE0A26831
:10111000F2B301EBC10303EB0116431EB3FBF6F37D
:101120005B1C43F480431B0549D092B301EBC10221
:1011300002EB0111401EB0FBF1F0401CC0F30B00AC
:1011400040F4804040F400402168CA694CF6FF73C7
:101150009A431043C861D4E907100143206802682C
:1011600022F0C00211430160D4E903010143206869
:10117000826848F2FF339A4311438160D4E9050144
:1011800008432168CA6822F0FF021043C86001E0EA
:101190000EE016E02068016841F00101016025645D
:1011A000202084F83D00256384F83E50002070BD67
:1011B00001EB4106431EB3FBF6F35B1CB3E70120D2
:1011C000C2E701EB4101401EB0FBF1F0401CC0F34F
:1011D0000B00B7E7A086010080841E0000093D00D7
:1011E00040420F0010B586B0044614216846FFF750
:1011F00049F814492068884221D113480021026827
:1012000042F002020260006800F0020005904FF414
:10121000C07000901220CDE901010320039004204A
:10122000049069460948FFF719FE07481030016825
:1012300041F400110160006800F40010059006B050
:1012400010BD00000054004030380240000402404D
:10125000024881680278114481607047680000206C
:101260000B4810B5016841F400710160016841F458
:1012700080610160016841F480710160032000F029
:1012800071F8002000F006F800F024F8002010BDEE
:10129000003C024070B50D4D04464FF47A71287839
:1012A000B1FBF0F00A490968B1FBF0F000F0F6FC80
:1012B00048B9102C07D200222146501E00F032F807
:1012C00000206C6070BD012070BD0000680000202F
:1012D000740000200B4882B0016841F48041016035
:1012E000006800F4804000900648001F016841F04B
:1012F00080510160006800F080500090072002B02B
:1013000000F030B844380240002809DB00F01F022A
:10131000012191404009800000F1E020C0F8001157
:1013200070470000F0B40E4B1B680C46C3F3022359
:10133000C3F10705042D00D90425191D072901D281
:10134000002300E0DB1E012606FA05F1491E2140BC
:1013500099409E40761E16403143F0BC01F020BFFC
:101360000CED00E0064900F0070208684FF6FF03A5
:10137000184040EA0220034A10430860704700000A
:101380000CED00E00000FA052DE9F0470E460500DF
:1013900065D0DFF81481D8F80000F7B200F007003C
:1013A000B04207D288F80070D8F8000000F00700BB
:1013B000B04254D128683D4C810712D5400703D56F
:1013C000206840F4E05020602878000703D52068AA
:1013D00040F4604020602068A96820F0F0000843D5
:1013E00020602878C0072DD0304968680839012866
:1013F00012D0022813D0032811D0096889070029C8
:101400002DDA216821F0030101432160FFF720FE5E
:10141000814641F2883A0EE009688903EFE70968DE
:101420008901ECE7FFF714FEA0EB0901514502D951
:101430000320BDE8F0872068696800F00C00B0EB7D
:10144000810FEFD1D8F80010404601F00701B142FA
:1014500007D90770006800F00700B04201D00120F2
:10146000E7E72878400705D52068E96820F4E050D0
:10147000084320602878000706D52068296920F4F1
:10148000604040EAC100206000F038F82168084A56
:10149000C1F30311515CC840064908600648006862
:1014A000FFF7F8FE0020C4E7003C02400838024085
:1014B00006780208740000206C00002004480549EA
:1014C00000680968044AC1F38221515CC840704732
:1014D00074000020083802401678020804480549C4
:1014E00000680968044AC1F34231515CC840704742
:1014F000740000200838024016780208154810B51C
:10150000006810F00C02144813D04110042A0FD0C8
:10151000082A0ED10F4C241F2268236802F03F02D4
:101520005B0207D52068C0F38810A0FB010106E02C
:10153000084610BD2168C1F38811A1FB00010023FA
:10154000FEF748FE2168C1F30141491C4900B0FB88
:10155000F1F010BD083802400024F4002DE9F84FE6
:1015600004006ED02078DFF84C93C007A9F1040581
:101570004AD009F104000168C1F38101012908D0B2
:101580000068C0F3810002280AD1D9F800004002A7
:1015900006D52868800337D560680028E1D033E09D
:1015A0006068B0F5803F10D0B0F5A02F286810D04B
:1015B00020F480302860286820F48020286060684B
:1015C000A8B1FFF745FD06460DE0286840F48030DD
:1015D000F4E740F480202860F7E700BFFFF738FD0C
:1015E000801B642873D828688003F7D50CE0FFF7C8
:1015F0002FFD064605E000BFFFF72AFD801B64288B
:10160000F0D828688003F7D42078DFF8AC82800710
:101610004FF0000A3ED5A748001D016811F00C0FDD
:1016200008D00068C0F3810002280BD1D9F800006F
:10163000400207D42868800716D5E068012800D149
:1016400012E033E1E068B8B10120C8F80000FFF70C
:10165000FFFC064605E000BFFFF7FAFC801B0228EE
:10166000C0D828688007F7D52868216920F0F800DD
:1016700040EAC10028600DE0C8F800A0FFF7E8FCD0
:10168000064604E0FFF7E4FC801B02281FD8286808
:101690008007F7D42078000722D5864F87486169F4
:1016A000703771B101210160FFF7D2FC064604E0FA
:1016B000FFF7CEFC801B022809D838688007F7D5D1
:1016C0000EE0C0F800A0FFF7C3FC064605E082E08C
:1016D000FFF7BEFC801B02287DD838688007F7D44E
:1016E0002078400768D5DFF8CCB100270BF13C0B20
:1016F000DBF80000C0000BD4DBF8001041F0805193
:10170000CBF80010DBF80000012700F080500090BB
:101710006B4E3068C00510D4306840F48070306083
:10172000FFF796FC009005E0FFF792FC0099401A45
:10173000022850D83068C005F6D55E4EA0686C36D9
:1017400001280FD00528306810D020F0010030604B
:10175000306820F004003060A068B8B1FFF778FC72
:1017600000900FE0306840F00100F4E740F0040022
:101770003060F7E7FFF76CFC0099411A41F28830BE
:10178000814266D830688007F4D50EE0FFF760FC30
:10179000009007E0FFF75CFC0099411A41F28830A5
:1017A000814256D830688007F4D42FB1DBF800109E
:1017B00021F08051CBF80010A069C8B33D49091D44
:1017C0000968C1F3810102294AD00228504607D096
:1017D000C8F8600000E03CE0FFF73AFC04463BE05C
:1017E0004746C8F86000FFF733FC064605E000BF37
:1017F000FFF72EFC801B02282BD828688001F7D425
:10180000D4E907010843A16A2E4A490802EB0141C5
:10181000626A41EA8211084394F82C1040EA01619F
:10182000C9F8001001203866FFF712FC044606E0F4
:101830003EE000BFFFF70CFC001B022809D8286817
:101840008001F7D534E000BFFFF702FC001B02283F
:1018500002D90320BDE8F88F28688001F4D427E07E
:101860000128F7D0D9F80000E26900F48001914224
:101870001CD1226A00F03F01914217D147F6C07196
:10188000626A0140B1EB821F10D1A26A4FF0FF33B0
:1018900000F4403103EB5202B1EB024F06D194F851
:1018A0002C1000F07060B0EB016F01D00120D1E787
:1018B0000020CFE70438024000004742800E474234
:1018C000007000400000FFFF704790F85100704723
:1018D00070B5040009D0606A002540B125616561DA
:1018E000A56294F8510040B10CE0012070BD606821
:1018F000B0F5827FF4D0E561F2E784F850502046DD
:1019000000F044F8022084F851002068016821F0BA
:1019100040010160A088218900F4827001F4044133
:101920000843A18901F400610843217C01F0020110
:101930000843217D01F001010843218B01F400716E
:101940000843217F01F03801084394F8201001F08A
:1019500080010843218D01F400510843216808608B
:10196000A069042101EA104094F8241001F010014C
:101970000843216848602068C16921F40061C161A1
:101980006565012084F85100002070BD70B586B0F7
:10199000064614216846FEF775FC204930688842E7
:1019A0003AD11F480025016841F480510160006868
:1019B00000F4805005901A481438016841F0010184
:1019C00001600068694600F001000590A0200090C9
:1019D0000220CDE901050320039005200490114861
:1019E000FFF73CFA114C104820604FF080606060B7
:1019F0004020C4E902050001C4E904054FF4403069
:101A0000A561C4E9075020466562FFF773F908B184
:101A1000FEF72DFEB464A66306B070BD0030014031
:101A20004438024000000240406402406C14002030
:101A30002DE9F84F044690F8500000271D46164641
:101A4000894601280DD04FF0010B84F850B0FFF704
:101A5000FFFA804694F85100BA46012804D00227C4
:101A600093E00220BDE8F88FB9F1000F73D0002E8B
:101A700071D0032084F85100C4F854A0C4F8309009
:101A8000A686E686C4F838A0A4F83CA0A4F83EA038
:101A9000C4F844A0C4F840A0A068B0F5004F09D134
:101AA0002068016821F0400101602068016841F46C
:101AB0008041016020680168490603D4016841F053
:101AC00040010160E068B0F5006F606803D030B39A
:101AD000012E24D041E008B1012E1CD1206B2168D9
:101AE0000088C86006E020688168890709D5216BF5
:101AF0000988C160206B801C2063E08E401EE08658
:101B000009E0FFF7A5FAA0EB0800A84202D3681C81
:101B100001D031E07DB3E08E0028E4D120E0206BDD
:101B200021680078087306E020688168890709D574
:101B3000216B09780173206B401C2063E08E401EEE
:101B4000E0860AE0FFF784FAA0EB0800A84203D37E
:101B5000681C02D010E017E06DB1E08E0028E3D1E0
:101B600042462946204600F093FF08B120206065D8
:101B7000A06818B106E0FFE7032706E02068C16807
:101B800080680090606D00B1012784F851B084F83E
:101B900050A0384666E700002DE9F041044690F871
:101BA00050000026012809D0012784F8507094F8CD
:101BB00051000025012804D002264EE00220BDE895
:101BC000F08189B182B1032084F8510065652163F9
:101BD000A286E286A56365642564A587E587A0687B
:101BE000B0F5004F02D00BE0012636E02068016816
:101BF00021F0400101602068016841F480410160EA
:101C0000A16C18480864A16C1748C863A16C1748F8
:101C1000C864A06C0565E38E2268216B0C32A06C51
:101C2000FFF7D2F838B1606D40F010006065012612
:101C300084F8517011E020680168490603D40168F6
:101C400041F0400101602068416841F0200141609D
:101C50002068416841F00201416084F850503046EC
:101C6000ADE70000212A00082B2A0008FF29000800
:101C70007047704710B5084C6078401CC0B2607067
:101C8000052803D903F000FF00206070BDE8104074
:101C9000012020F08DB800000000002010B5401E8B
:101CA000B0F1807F01D3012010BD4FF0E0246061CE
:101CB0000F21601701F074FA0020A0610720206155
:101CC000002010BD10B5FFF7D5FF10BD704770475D
:101CD00010B590F83C20012A22D0012280F83C2047
:101CE000CA688C6822F4407222434C6822F48062F5
:101CF00022430C6822F4006222430C6922F48052D1
:101D000022434C6922F400522243C969002322F481
:101D100080420A4301684A6480F83C30002010BDCC
:101D2000022010BD70B590F83C20012A2CD001246F
:101D300080F83C40022280F83D2003685A689D6884
:101D400022F070060A6832435A60104B02689A42C9
:101D50000ED0B2F1804F0BD00D4B9A4208D00D4BF4
:101D60009A4205D00C4B9A4202D00C4B9A4204D1B5
:101D7000496825F080031943916080F83D400021B7
:101D800080F83C10084670BD022070BD0000014084
:101D90000004004000080040000C004000400140EA
:101DA00010B5040003D094F83D0010B107E0012005
:101DB00010BD002084F83C00204600F01FF80220EF
:101DC00084F83D00211D206800F0E4FF012084F824
:101DD000460084F83E0084F83F0084F8400084F810
:101DE000410084F8420084F8430084F8440084F8F9
:101DF000450084F83D00002010BD000008B50168D2
:101E00001748814208D11748016841F0010101607B
:101E1000006800F001000EE01248001FB1F1804F91
:101E20000BD0114A914207D1016841F002010160D3
:101E3000006800F00200009008BD016841F0010157
:101E400001600068002200F00100009011461C2093
:101E5000FFF768FABDE808401C20FFF755BA0000FC
:101E600000000140443802400004004090F83D105A
:101E7000012901D001207047022180F83D1000683F
:101E80000E4988420ED0B0F1804F0BD00C498842E9
:101E900008D00C49884205D00B49884202D00B4932
:101EA000884204D1816801F00701062903D0016846
:101EB00041F0010101600020704700000000014076
:101EC0000004004000080040000C004000400140B9
:101ED00090F83D10012901D001207047022180F8BF
:101EE0003D100168CA6842F00102CA6000680E49EC
:101EF00088420ED0B0F1804F0BD00C49884208D0F8
:101F00000B49884205D00B49884202D00A498842D1
:101F100004D1816801F00701062903D0016841F06E
:101F200001010160002070470000014000040040F2
:101F300000080040000C00400040014070B504461D
:101F400090F83C000025012817D0012684F83C6059
:101F5000022084F83D002068826822F0770222F493
:101F60007F4282600868502838D00DDC20284FD08E
:101F700005DC90B3102811D14AE0022070BD302852
:101F800046D040280AD13BE060282FD070280DD0E1
:101F9000B0F5805F03D0B0F5005F12D0012584F862
:101FA0003D60002084F83C00284670BDCB68D1E934
:101FB0000121206800F047FF2068816841F0770127
:101FC00009E0CB68D1E90121206800F03CFF2068DE
:101FD000816841F480418160E1E719E0CA6849689D
:101FE000206800F0E5FF5021206806E0CA684968D3
:101FF000206800F0EEFF6021206800F02EFFCEE7A1
:10200000CA684968206800F0D3FF40212068F4E7DF
:10201000226801461046F0E7704770B50446006834
:1020200001694FF00005C943890715D4C168C94348
:10203000890711D4E91E0161012020772068806999
:102040008007204602D0FFF7E7FF04E000F0C0F869
:10205000204600F052F9257720680169C9434907F5
:1020600017D4C168C943490713D46FF00401016153
:10207000022020772068806910F4407F204602D03B
:10208000FFF7CAFF04E000F0A3F8204600F035F99E
:10209000257720680169C943090716D4C168C94377
:1020A000090712D46FF0080101610420207720682D
:1020B000C0698007204602D0FFF7AEFF04E000F0C1
:1020C00087F8204600F019F9257720680169C9438F
:1020D000C90617D4C168C943C90613D46FF01001EB
:1020E0000161082020772068C06910F4407F2046F5
:1020F00002D0FFF791FF04E000F06AF8204600F0FC
:10210000FCF8257720680169C943C90708D1C1686F
:10211000C943C90704D1891E0161204600F046F970
:1021200020680169C943090609D4C168C943090681
:1021300005D46FF0800101612046FFF7C7FD2068DC
:102140000169C943490609D4C168C943490605D490
:102150006FF040010161204600F029F92068016913
:10216000C94389060BD4C168C943890607D46FF0F7
:10217000200101612046BDE87040FFF7A8BD70BD99
:1021800010B586B0044614216846FEF77BF80D4969
:102190002068884214D10C480021026842F00202F3
:1021A00002600068022200F0020005900120009009
:1021B000CDE90121CDE9031069460448FEF74EFE42
:1021C00006B010BD0000014030380240000402405B
:1021D000704770B5044690F83C0000260D46012873
:1021E0000FD0012084F83C006AB1042A1DD0082ACF
:1021F0002FD00C2A3FD00126002084F83C00304626
:1022000070BD022070BD206800F030FE206881693A
:1022100041F0080181612068816921F00401816138
:10222000206881692A69114311E0206800F046FEA8
:102230002068816941F4006181612068816921F42D
:1022400080618161206881692A6941EA0221816196
:10225000D2E7206800F05EFE2068C16941F0080105
:10226000C1612068C16921F00401C1612068C169B0
:102270002A69114311E0206800F078FE2068C169E6
:1022800041F40061C1612068C16921F48061C161CC
:102290002068C1692A6941EA0221C161ACE710B531
:1022A000040003D094F83D0010B107E0012010BDF8
:1022B000002084F83C00204600F01EF8022084F83C
:1022C0003D00211D206800F065FD012084F84600D6
:1022D00084F83E0084F83F0084F8400084F8410010
:1022E00084F8420084F8430084F8440084F84500F0
:1022F00084F83D00002010BD7047704710B50446BB
:10230000022249B104290ED0082913D094F84100C3
:10231000012816D0012010BD94F83E000128F9D103
:1023200084F83E200FE094F83F000128F2D184F8B1
:102330003F2008E094F840000128EBD184F84020C9
:1023400001E084F841200122206800F06FFD12496D
:102350002068884203D1426C42F400424264206803
:1023600088420ED0B0F1804F0BD00C49884208D083
:102370000B49884205D00B49884202D00A4988425D
:1023800004D1816801F00701062903D0016841F0FA
:1023900001010160002010BD000001400004004068
:1023A00000080040000C00400040014070477047AA
:1023B00070B5040004D094F83D00002510B106E08B
:1023C000012070BD84F83C50204600F023F8242002
:1023D00084F83D002068C16821F40051C1602046A6
:1023E00000F00AFE2068016921F490410161206833
:1023F000416921F02A0141612068C16841F400511E
:10240000C1602564202084F83D0084F83E0000204F
:1024100070BD0000F0B587B0044614216846FDF792
:1024200031FF1F4F236800221E490224032507267F
:102430001D48BB4214D11B4B14331F6847F01007D3
:102440001F601B6803F0100305930B6843F0010342
:102450000B60096801F0010105914FF4044115E09A
:10246000124FBB421AD10F4B10331F6847F400378D
:102470001F601B6803F4003305930B6843F00103EE
:102480000B60096801F0010105910C21CDE90014F0
:1024900002AB694683E86400FEF7E0FC07B0F0BDDC
:1024A000001001403038024000000240004400406B
:1024B0002DE9F843044690F83D001F4616460D46A8
:1024C00020284CD1C5B1BEB194F83C00012846D0BB
:1024D000012084F83C004FF00008C4F8408021201F
:1024E00084F83D00FEF7B4FDA6848146E684A0682A
:1024F000B0F5805F03D004E00120BDE8F8832069D7
:1025000028B12E465FF0000584F83C800EE00026DE
:10251000FAE78021204600F0F5FDA0B9AEB116F82B
:10252000010B21684860E08C401EE084E08C4B4643
:102530004FF0000200970028EBD14FF040012046F9
:1025400000F0E0FD30B10320D7E735F8020BC0F30F
:102550000800E6E7202084F83D000020CDE70220B7
:10256000CBE7FEE77FB5002516480095019502955B
:1025700013490395016001244FF480310461C0E9DF
:102580000115047680F820500903C162C560491026
:10259000C461816280F830404561FEF7B7F908B147
:1025A000FEF765F805200095CDE90140694605482C
:1025B000FEF760F8002801D0FEF759F87FBD000053
:1025C00000200140181300200D4808B5016841F4AF
:1025D000800101600068002200F480000090114634
:1025E0003820FEF79FFE3820FEF78EFE00221146AF
:1025F0003A20FEF797FEBDE808403A20FEF784BE79
:10260000303802402DE9F04786B014216846FDF7C6
:1026100039FE50480025016841F00401016001685D
:1026200001F004010591016841F080010160016839
:1026300001F080010591016841F00101016001682C
:1026400001F001010591016841F00201016000689B
:10265000DFF8048100F0020005900022832140464B
:10266000FEF7F1FCDFF8F490002212214846FEF755
:10267000EAFCDFF8ECA0002248215046FEF7E3FC1C
:102680004FF4005000904FF40410CDE90105694665
:102690004046FEF7E3FB01240094CDE9014569467D
:1026A00040460395FEF7DAFB0226CDE90064694651
:1026B0004046CDE90245FEF7D1FBCDE9006469460D
:1026C0004846CDE90245FEF7C9FB102701AA0326BB
:1026D000009782E8700069464846FEF7BFFBA002FB
:1026E000CDE90005694650460295FEF7B7FB80200C
:1026F0008DE8710069464046FEF7B0FB2002CDE947
:102700000005694602944846FEF7A8FB0820CDE97B
:10271000000469465046CDE90245FEF79FFB00974D
:10272000CDE9015469465046FEF798FB2020009001
:102730004FF48810CDE9010469465046FEF78EFB40
:1027400040208DE8710069465046FEF787FB06B0D1
:10275000BDE8F08730380240000802400000024027
:10276000000402400D4810B50B4901600C4941605E
:1027700000214FF480428160C0E903124161816110
:10278000C1610162FEF76AFC002803D0BDE8104079
:10279000FDF76DBF10BD000000540040C0130020C5
:1027A000A0860100104810B50E4901604FF48271F7
:1027B00041604FF4004181600021C1604FF400721C
:1027C0000161C0E90512C1610162416281620A21B1
:1027D000C162FFF77DF8002803D0BDE81040FDF787
:1027E00046BF10BD003001401414002010B596B053
:1027F00000240F9410941194129413941C2108A88F
:102800001494FDF73FFD20216846FDF73BFD294864
:10281000274901606321C0E9011440F2F311C0E9C6
:10282000031444618461FFF7BBFA08B1FDF71FFF91
:102830004FF480500F900FA91E48FFF77FFB08B19F
:10284000FDF715FF1B48FFF72AFD08B1FDF70FFF45
:10285000139413A917481494FFF764FA08B1FDF70D
:1028600006FF60200890C720CDE909040B940C9462
:102870000D94042208A90F480E94FFF7AAFC08B192
:10288000FDF7F5FE00944FF40050CDE904400294AA
:1028900001940394694607480794FFF719FA08B1B1
:1028A000FDF7E5FE0348FFF76BFC16B010BD000016
:1028B00000000140CC14002010B586B00024174859
:1028C000009401940294039404944FF08041059481
:1028D00001606221C0E9011440F2E731C0E903144C
:1028E00080218161FFF75CFA08B1FDF7C0FE4FF46B
:1028F0008050009069460948FFF720FB08B1FDF7BA
:10290000B6FE049404A905480594FFF70BFA0028C5
:1029100001D0FDF7ACFE06B010BD0000141500207C
:1029200010B586B0002417480094019402940394D3
:1029300004941349059401603121C0E90114632115
:10294000C0E903148461FFF72BFA08B1FDF78FFE8D
:102950004FF48050009069460A48FFF7EFFA08B13B
:10296000FDF785FE2020CDE9040404A90548FFF702
:10297000D9F9002801D0FDF77AFE06B010BD00009D
:10298000000400405C1500200C4810B50A490160A5
:102990004FF4E1314160002181600C22C160C0E947
:1029A00004128161C161FFF703FD002803D0BDE877
:1029B0001040FDF75CBE10BD00100140A4150020C2
:1029C0000C4810B50A4901604FF4E1314160002123
:1029D00081600C22C160C0E904128161C161FFF70E
:1029E000E7FC002803D0BDE81040FDF740BE10BD55
:1029F00000440040E8150020FEE7FEE7704710B5F0
:102A0000806B01684A6822F003024A60416D41F020
:102A100010014165012180F85110FEF755FF10BDEE
:102A200010B5806BFFF725F910BD38B50546846BEE
:102A3000FEF70EFB024628680068C00523D4206814
:102A4000416821F0200141602068416821F00201C5
:102A500041606421204600F01BF818B1606D40F021
:102A600020006065A068002118B92068C2688068ED
:102A70000090E186012084F85100606D18B1204675
:102A8000FEF722FF38BD2046FFF7F2F838BD000000
:102A900038B504461248134B0068B0FBF3F04FF40E
:102AA0007A73584300906068B0F5827F0DD10B4671
:102AB000009200228021204600F016F870B1606D6F
:102AC00040F020006065032038BD009830B1401E02
:102AD000009020688068C0430006F6D5002038BD0D
:102AE0007400002000366E012DE9F8431E46914621
:102AF00088460446089DFEF7ABFA401B351AFEF7E0
:102B0000A7FA074625480068C0F3CB30684338E091
:102B1000701C37D0FEF79CFAC01BA84203D215B137
:102B2000009860B32CE02068416821F0E00141602A
:102B30006068B0F5827F0BD1A068B0F5004F02D07D
:102B4000B0F5806F04D12068016821F04001016078
:102B5000A06AB0F5005F09D12068016821F4005136
:102B600001602068016841F400510160012084F88F
:102B70005100002084F850000320BDE8F8830025B0
:102B8000401E00902068816838EA010004D00021CE
:102B90004945BDD10020F0E70121F9E7740000208C
:102BA00010B500F091F8012240211248FEF74BFACF
:102BB000012000F04DF84FF47A70FEF73DF9112036
:102BC00000F046F87820FEF737F9362000F040F89C
:102BD000002000F05BF83A2000F03AF8052000F001
:102BE00055F8212000F034F8BDE81040292000F00D
:102BF0002FB80000000402402DE9F04106461C46B3
:102C000015460F462A2000F023F8300A00F03EF85F
:102C1000F0B200F03BF8280A00F038F8E8B200F013
:102C200035F81437BDB22B2000F012F8280A00F056
:102C30002DF8E8B200F02AF8200A00F027F8E0B2F8
:102C400000F024F8BDE8F0412C2000F001B80000AD
:102C500031B5002280210A48FEF7F5F9094C00221F
:102C600010212046FEF7EFF901231A46694606486F
:102C7000FEF7DEFE012210212046FEF7E4F938BD02
:102C800000080240000002401414002031B5012267
:102C900080210A48FEF7D7F9094C0022102120466E
:102CA000FEF7D1F901231A4669460648FEF7C0FE31
:102CB000012210212046FEF7C6F938BD0008024067
:102CC000000002401414002010B5FFF76BFDBDE8B2
:102CD0001040FFF797BC704710B5FEF7B9FABDE892
:102CE0001040FEF7EFBF000030B593B030216846CA
:102CF000FDF7C8FA14210CA8FDF7C4FA1C480025FA
:102D0000016841F080510160006800F0805011902E
:102D10001848016841F4404101600068022400F451
:102D200040401190012000904FF4A02001906005D8
:102D3000CDE9064008AA0420642182E813000B9024
:102D40006846FEF70BFC08B172B6FEE70CA90F202F
:102D500081E831004FF48050CDE90F0503210CA824
:102D6000FEF712FB002801D072B6FEE713B030BDAB
:102D700040380240007000400248016841F4700190
:102D80000160704788ED00E00148FFF746B9000098
:102D900014150020F0B502681D4B1E4C9F031E4DFC
:102DA0001E4E984207D0B84205D0A04203D0A84298
:102DB00001D0B04204D122F0700C4A6842EA0C0201
:102DC000984210D0B8420ED0A0420CD0A8420AD0EF
:102DD000B04208D0124CA04205D0124CA04202D002
:102DE000114CA04203D122F44074CA6822434C69BA
:102DF00022F08002224302608A68C2620A6882620C
:102E0000984201D10969016301214161F0BD0000CF
:102E1000000001400004004000080040000C004099
:102E200000400140004401400048014010B501F05D
:102E30001F030121046A99408C430462016A9A408D
:102E40001143016210BD10B5846842EA032224F4E4
:102E50007F440A432243826010BD826822F07002E0
:102E60000A4342F0070181607047000030B5026AF2
:102E700022F001020262026A4368846924F0730549
:102E80000C682C4322F002058A682A430A4DA842A6
:102E90000BD122F00805CA6823F440732A434D6918
:102EA00022F004021D438B692B434360846149680F
:102EB0004163026230BD00000000014030B5026A8B
:102EC00022F010020262026A436884690D6824F4E9
:102ED000E64444EA05248D6822F0200242EA051205
:102EE0000B4DA8420ED1CD6822F0800242EA0512B5
:102EF0004D6923F4406343EA85038D6922F0400263
:102F000043EA85034360846149688163026230BD9E
:102F10000000014030B5026A22F480720262036A46
:102F20004268C46923F4007324F073050C682C43D1
:102F30008D6843EA05230C4DA8420ED1CD6823F4D9
:102F4000006343EA05234D6922F4405242EA051228
:102F50008D6923F4806342EA05124260C4614968C6
:102F6000C163036230BD00000000014030B5026A59
:102F700022F480520262046A4268C3690D6823F435
:102F8000E64343EA05238D6824F4005444EA0534FB
:102F9000064DA84204D14D6922F4804242EA8512CE
:102FA0004260C36149680164046230BD00000140B1
:102FB00010B5036A046A24F001040462846924F0F1
:102FC000F00444EA021423F00A020A438461026214
:102FD00010BD10B5036A23F0100303628369046A0D
:102FE00023F4704343EA023224F0A00343EA0111C0
:102FF0008261016210BD000070B50446006801697D
:10300000E26821F44051114301612169A068E2693D
:1030100008436169114308432168CA6849F20C6397
:103020009A430243CA6020684169A26921F4407151
:103030001143416131492068884202D030498842B9
:1030400002D1FEF74BFA01E0FEF738FAE2690023FD
:10305000192164253226B2F5004F626828D0A0FB02
:103060000101930F9200FDF7B5F80146B0FBF5F0B2
:103070006FF01802504301EB800006EB0010B0FB2C
:10308000F5F000F0F002B1FBF5F002EB0012B1FB3D
:10309000F5F06FF01803584301EB800006EB0010C9
:1030A000B0FBF5F000F00F0021681044886070BD9F
:1030B000A0FB010192185B41FDF78CF80146B0FBC3
:1030C000F5F00201B1FBF5F06FF01803584301EB86
:1030D000800006EBC000B0FBF5F000F0F80002EB5A
:1030E0004002B1FBF5F0584301EB800006EBC00055
:1030F000B0FBF5F000F00700D6E70000001001403B
:10310000001401402DE9F041984617460E4604464A
:10311000069D27E0681C25D02DB1FDF799FFA0EB97
:103120000800A8421ED920680C3050E8001F21F486
:10313000D07140E80012002AF5D12068143050E820
:10314000001F21F0010140E80012002AF5D12020E3
:1031500084F83D0084F83E00002084F83C00032001
:10316000BDE8F0812068006836EA000004D0002045
:10317000B842CFD00020F3E70120F9E7FEE70000D6
:103180000FB4054B10B503A9044A029801F01CFBCB
:1031900010BC5DF814FB000069EB0008F002002091
:1031A0000907090E002804DB00F1E02080F8001474
:1031B000704700F00F0000F1E02080F8141D704708
:1031C00002E008C8121F08C1002AFAD170477047F0
:1031D000002001E001C1121F002AFBD1704770B529
:1031E000044600256FF02F0608E02068411C21608E
:1031F000007805EB850106EB410145182068007851
:1032000000F004F80028F0D1284670BD30380928B5
:1032100001D80120704700207047000010B54421FC
:10322000074800F0C3FD00220A2106481EF01AFEDE
:10323000054CA06001F004FF0020207010BD0000CC
:10324000A8170020F5500008E401002070B5B1F97E
:103250000030B2F90040A34200DC23460380B1F9FC
:103260000250B2F90240A54200DD2C464480B1F97B
:103270000460B2F90450AE4200DA35468580B1F9F7
:103280000610B2F90620914200DB1146C1800120F0
:10329000AB4201DC8C4200DD002070BDF8B50D466C
:1032A0000446B0F90000B1F900101646884247DB29
:1032B000B4F90210B5F90220914241DBB4F90410CF
:1032C000B5F9042091423BDCB4F90610B5F90620AB
:1032D000914235DC96B3ADF800006088ADF802008D
:1032E00032466946284600F099F8002827D0A08881
:1032F000ADF800006088ADF8020032466946284605
:1033000000F08CF800281AD02088ADF80000E08882
:10331000ADF8020032466946284600F07FF80028E2
:103320000DD0A088ADF80000E088ADF8020032466C
:103330006946284600F072F8002800D00120F8BD48
:103340000020F8BDB0F90020B1F904309A4213DC36
:10335000B0F90420B1F900309A420DDBB0F9022037
:10336000B1F906309A4207DCB0F90600B1F9021053
:10337000884201DB0120704700207047F8B50D46F8
:103380000446B0F90400B1F900101646884243DB48
:10339000B4F90600B5F9021088423DDBB4F900002B
:1033A000B5F90410884237DCB4F90210B5F90620EB
:1033B000914231DC76B3ADF800006088ADF80200D0
:1033C00032466946284600F029F818BBA088ADF8B7
:1033D00000006088ADF8020032466946284600F0D9
:1033E0001DF8B8B92088ADF80000E088ADF80200FB
:1033F00032466946284600F011F858B9A088ADF861
:103400000000E088ADF8020032466946284600F028
:1034100005F808B10020F8BD0120F8BD2DE9FC41F8
:1034200014460E46B1F90020B0F9001005468A4254
:103430003ADBB5F90400824236DCB6F90270B5F920
:103440000220974230DBB5F906309F422CDC002C7D
:1034500075DD401A9A1A401C521C00B212B200EBE1
:10346000D07002EBD27240105210904200DB104636
:10347000844200DD0446ADF8001028880022204474
:10348000ADF804006888ADF8020068883146204431
:10349000ADF806006846FFF7C1FF40B1BDF8040073
:1034A0002044ADF804003FE00020BDE8FC81E8883E
:1034B0000022001BADF80200E888ADF80600314696
:1034C0006846FFF7ABFF28B1BDF804002044ADF813
:1034D000040011E0A8880022001BADF80000A888B5
:1034E000ADF8040031466846FFF798FF50B1BDF8CB
:1034F0000000001BADF80000BDF80200001BADF895
:10350000020016E06888ADF80200688800222044B6
:10351000ADF8060031466846FFF780FF70B1BDF890
:103520000000001BADF80000BDF806002044ADF817
:103530000600314668461CF067F8B6E7FFE7012051
:10354000B3E710B5B1F90040B2F900309C4200DA9F
:1035500023460380B1F90240B2F902309C4200DAFE
:1035600023464380B1F90440B2F904309C4200DDA7
:1035700023468380B1F90610B2F90620914200DC9F
:103580001146C18010BD0000F8B507461EF006FCCC
:103590000025264C0646009537B1F868606038462D
:1035A0001EF02EFD606802E011F0EAF9606000692B
:1035B0001BF026FF6068406908B11BF021FF6068BE
:1035C000C0691BF01DFF6068006A1BF019FF60688E
:1035D000016941B31CF00AF920F020FB6068B0F8E3
:1035E0005011C1B14FF48071303017F023FC606886
:1035F000202100F5987017F01DFC6068A0F850516C
:1036000030461EF0C5FB009060680068436A13B145
:1036100022680099984717F08BFA00F035F8BDE85A
:10362000F84000F005B8A0F85051F8BDA400002003
:1036300070B50A4D002400BFC4EBC40655F826003F
:1036400008B117F0E9FA05EB86001C2117F0F2FB30
:10365000641CE4B2042CEFD370BD00008418002079
:10366000084949680AE04A68824202D00A688242F0
:1036700003D10A7E42F001020A7649690029F2D19B
:1036800070470000780000207047000004210148C6
:1036900000F08CBB9C1700202021014800F086BB65
:1036A000B41700202DE9FF410446DDE90A671D003B
:1036B0004FF0000002D1B6F5807F2BD0039001902F
:1036C0000290ADF80C100090ADF80410ADF80A208F
:1036D000ADF80E203B463246294668461BF0F4FE04
:1036E0003B463246294601A81BF0EEFE3B463246D9
:1036F000294602A81BF0E8FE3B463246294603A8AD
:103700001BF0E2FEBDF90000BDF90430984209DA71
:10371000054608E02080491E6080A180521EE2809C
:10372000BDE8FF811D46BDF90820BDF90C108A4295
:1037300001DA164600E00E46B54203DA984206DB8F
:10374000184604E08A4201DA104600E00846801E6E
:103750002080BDF90030BDF90420934201DD1D46F3
:1037600000E01546BDF90800BDF90C10884201DDE6
:10377000064600E00E46B54205DD934201DD1946DE
:1037800004E0114602E0884200DD0146891CA18068
:10379000BDF90230BDF90620934201DA1D4600E072
:1037A0001546BDF90A00BDF90E10884201DA064639
:1037B00000E00E46B54205DA934201DA194604E00C
:1037C000114602E0884200DA0146891E6180BDF997
:1037D0000230BDF90620934201DD1D4600E015468A
:1037E000BDF90A00BDF90E10884201DD064600E071
:1037F0000E46B54205DD934201DD194604E011464F
:1038000002E0884200DD0146891CE18088E7000073
:103810002DE9F04115460E460746114C1EF0BEFA42
:1038200080462B4632463946204615F04DFA20B1E7
:103830000020A062E06950B110E02C21204617F072
:10384000F9FA4FF00040A0620020BDE8F081404648
:103850001EF09EFAE06108B90120E0612046F4E71D
:10386000D817002010B51421074800F09FFA15F072
:10387000F1F940B1054901600549416005498160A0
:103880000549C16010BDFEE7C01700207D86010814
:10389000F9890108758B01084986010870B50D4644
:1038A00004461021284617F0C5FA20680078012840
:1038B00004D0022807D0042807D008E0A08A288076
:1038C000E08A688003E0E06800E00A206860206821
:1038D0004268002A03D02946BDE87040104770BDF9
:1038E0002DE9FE430446808A10B9E08A002874D08E
:1038F000D4F82C805FEA080010D120460AF007FCBB
:103900005FEA000869D020460DF038F9002209214D
:10391000404614F005F9607880075ED44FF4807952
:1039200000274E4645460021284619F09DFE3844A2
:1039300007B20021284619F0B5FEC11700EB11604F
:10394000001210FB06F006B2284618F0B3FE050080
:10395000E9D10FB94E450CD0784201B24FF4803016
:1039600090FBF6F002B26B4604F1140000951BF0D8
:10397000ABFDADF80450ADF8085094F8400000F0ED
:103980000F000328404616D018F0E6FF06464046D2
:1039900018F09CFE03460C200090B4F91610324635
:1039A000404609F063FFADF80800404618F0E0FE1D
:1039B000C10713D018E018F063FF0646404618F020
:1039C000FFFE024603200090B4F91410334640462F
:1039D00009F04CFFADF80400E7E736E0BDF904104C
:1039E000002901DDADF80450810705D4BDF90410AC
:1039F000002901DAADF80450410705D4BDF90810DB
:103A0000002901DDADF80850000705D4BDF9080014
:103A1000002801DAADF8085002AA01A9204620F0DA
:103A200077FEBDF90820BDF90410404600F059FAB0
:103A30006078800709D4208BBDF8041008442083E7
:103A4000608BBDF8081008446083BDE8FE832DE953
:103A5000FC5F0446C06A5FEA000B71D094F8400036
:103A600000076DD015F0C2FB019000684021457E33
:103A7000584619F043FF4FF0000818B9A4F81E800B
:103A8000A4F81C80584618F059FF8246584618F092
:103A90005CFF064694F840004FF0640900F00F0008
:103AA0000C2802D003284CD09AE0A4F81C8056B110
:103AB000B4F91E50002715F099FB00684946407E76
:103AC000C0F1640022E0E08BC5F1640110FB01F15C
:103AD00091FBF9F0E083584618F0F8FD054658468A
:103AE00018F03AFF02460C200090B4F91E102B4645
:103AF000584609F0BBFEE083024600231EE07A1917
:103B000017B210FB05F292FBF1F215B2002DF6D1BF
:103B1000ADF80070A4F81E806A460021204620F00F
:103B2000F7FD41F6FF72BDF90030514258460AF0E8
:103B300093FCBDF800100123084402B200214CE0C0
:103B40009AE0A4F81E80BAF1000F0AD0B4F91C5014
:103B5000002715F04BFB00684946407EC0F1640029
:103B600022E0A08BC5F1640110FB01F191FBF9F09B
:103B7000A083584618F024FE0546584618F080FEEB
:103B8000034603200090B4F91C102A46584609F059
:103B90006DFEA083014600231EE07A1917B210FBC8
:103BA00005F292FBF1F215B2002DF6D1ADF80070DE
:103BB000A4F81C8000226946204620F0A9FD41F6A9
:103BC000FF72BDF90030514258460AF0BDFBBDF806
:103BD00000100123084401B2002258461AF0AEFF3B
:103BE000A08B002848D1E08B002845D1C6B95846A3
:103BF00018F0B2FE0546584618F068FD002D06DCA8
:103C000000280DDD002D02DA01232A4604E00028F9
:103C100006DA0123404202B2002158461AF08EFF14
:103C2000BAF1000F19D1584618F0CAFD054658469A
:103C300018F026FE002D07DC00280EDD002D03DA2B
:103C400001230022294605E0002806DA012300228C
:103C5000404201B258461AF071FF0A215846019AB3
:103C600013F05EFF6078800706D414F8400F20F050
:103C70000F00207044F8148CBDE8FC9F7FB50E4601
:103C8000040003D110F07CFE04002CD010F0ECFEF8
:103C9000002828D094F82800400724D4002506B333
:103CA000ADF80050ADF80250204610F081FE401EE5
:103CB000ADF80400204610F0C1FE401EADF806002D
:103CC0006A46314602A8FFF7C1FA00280BD02068E7
:103CD000017C890708D5DDE90001C4E90C01012058
:103CE00029E0A4F850517FBD82690AB102A990472A
:103CF00000260AE004EBC601002202A83031FFF7DB
:103D0000CDFA0028EFD1761CB6B2B4F85001B0421B
:103D1000F0D880B2202804D204EBC00002A93030D1
:103D200004E0A4F8505104F1300069460EF05AFB4B
:103D3000B4F85001401CA4F8500160680028D2D0AB
:103D40001EF06AF97FBD70B5054600F012F8044612
:103D50000CE02146284600F01EF80646214628467B
:103D600000F071F8204616F057FF3446002CF0D1D1
:103D700070BD002800D04068704700B5034600229F
:103D8000FFF7F7FF03E01846521C00F004F80100AB
:103D9000F9D1104600BD0068091D40587047006801
:103DA00040587047002800D0806870470022426069
:103DB000C91C21F0030182600160704770B50446A0
:103DC0000068083016F09CFE050013D00146002262
:103DD00020461FF013FB2946204662681FF008FBAF
:103DE000616819B12A4620461FF008FB6560A0688B
:103DF00000B9A560284670BD70B50446006808305B
:103E000016F07EFE050013D00146002220461FF06A
:103E1000EFFA29462046A2681FF0F0FAA16819B10E
:103E20002A4620461FF0E4FAA560606800B9656084
:103E3000284670BD28B1416809B9806808B10020E2
:103E400070470120704770B504000DD0FFF791FF57
:103E500000228842204608D1FFF79DFF6060011EC6
:103E600001D000221EE0A26070BDFFF79BFF8842D8
:103E7000206808440AD10168A16029B12046BDE844
:103E8000704000221FF0B4BA626070BD0568204621
:103E9000FFF781FF06460246294620461FF0A8FA92
:103EA0002A4631462046BDE870401FF0A7BA10B53B
:103EB0000446006882680AB121469047206800687D
:103EC000002801D02060F5E710BD8068002801D0EF
:103ED000B0F9160070478068002801D0807E800904
:103EE000704770B5164605460C4651EA06001AD0D2
:103EF000284617F0EFFCA86801233246018A2144C6
:103F00000182A868418A31444182214628461AF03C
:103F10006FF800220B21284613F002FE012803D17E
:103F2000284619F0BEFF012070BD77B581B00E465E
:103F3000050017D0612219F0D1FA040012D02068D0
:103F400080B128463146622219F0C8FA10F0FF020B
:103F500008D023682046039998470090BDF80000D8
:103F6000ADF80C00039804B070BD00002DE9F047D7
:103F7000074692B0408C1A9E40F004007884904628
:103F80003A8499468A463289384619F0A7FA054696
:103F9000A7F8209032895146384619F09FFA044616
:103FA000788CA54220F00400788403D12904B1EB79
:103FB000044F68D0A7F8208032895146384619F05E
:103FC0008DFA05468046A7F82090514638460BF0FA
:103FD000A3FC318900682A461CF03AFE30890B2880
:103FE00023D147F6FF794D4501D04C451DD13846C8
:103FF00019F03BFC00EBD0704510384618F019FB67
:1040000000EBD0704010C84506D1691C431C994292
:1040100000DA00E0194688464C4506D1691C421C6E
:10402000914201DA6C1C00E014461948FFF7C6FE05
:1040300005002BD02F60C5E903843089A88068462D
:10404000C5F808A00DF0E6FC1248FF21CDE90050AC
:10405000114802901148039000200890CDE9090111
:1040600030880B9070889DF8421040420C90F068A8
:104070000790002060F300018DF84210306906902F
:1040800068460DF03BFD12B0BDE8F087FEE700008A
:10409000CC170020A170020885720208E1710208A5
:1040A00014210148FFF782BECC1700202DE9F84FFC
:1040B00000259046894606462C460427E6E000BFC8
:1040C000F06807EBC401405881017CD480B230EA2B
:1040D000090112D05FF0000230EA08000FD0002082
:1040E000824270D0F0686A46102150F8340082464F
:1040F0001CF012FB002871D103E00122ECE7012043
:10410000EEE76A46112150461CF006FB002865D1F7
:104110006A46122150461CF0FFFA00285ED16A461A
:10412000132150461CF0F8FA002857D16A46152191
:1041300050461CF0F1FA002850D16A46142150462E
:104140001CF0EAFAF0BB6A460A2150461CF0E4FA79
:10415000C0BB6A466A2150461CF0DEFA90BB6A4634
:104160006B2150461CF0D8FA60BB6A4601215046CC
:104170001CF0D2FA30BB6A46042150461CF0CCFA3F
:1041800000BB6A46022150461CF0C6FAD0B96A4606
:10419000032150461CF0C0FAA0B96A4605215046DA
:1041A0001CF0BAFA70B96A46062150461CF0B4FAFF
:1041B00040B96A46322150461CF0AEFA10B96A4640
:1041C0006D2101E00AE060E050461CF0A5FA28B934
:1041D0006A466C2150461CF09FFA10B10320BDE8DE
:1041E000F88F6A46682150461CF096FAF0BB6A4682
:1041F000692150461CF090FAC0BB6A466D215046BA
:104200001CF08AFA90BB6A466C2150461CF084FA76
:1042100060BB6A46372150461CF07EFA30BB6A46C6
:10422000382150461CF078FA00BB6A4635215046CA
:104230001CF072FAD0B96A46402150461CF06CFA64
:10424000A0B96A46452150461CF066FA70B96A4624
:10425000412150461CF060FA40B96A46422150465E
:104260001CF05AFA10B96A46432100E009E05046B2
:104270001CF052FA28B96A46492150461CF04CFA03
:1042800008B1022501E005B90125641C708CC0F35A
:10429000C500A0423FF614AF2846A0E70148406899
:1042A00070470000A40000207047C0F304100728E6
:1042B00000D9072070470000A0F57F41FF3905D0E5
:1042C000002804D0702803D208490AE01F20704754
:1042D0000749703880B2096829B1064A526890428D
:1042E00001D2085C7047002070470000BCB702088C
:1042F000100200202402002010B518210348FFF707
:1043000055FD03490120087010BD000078170020FA
:104310002C0200202DE9F04190460C46050015D0F6
:10432000FBF7BBFF0A4F06462146BA68284690476E
:104330000446BA682819414690470146701A03E0BE
:104340006218AA5C2A55641CA042F9D2BDE8F0812B
:10435000400200202DE9F041094D90460E466A6862
:104360001C46074619469047306020B120686A68AD
:10437000384400219047C8F80000BDE8F0810000F3
:10438000400200202DE9F04F87B08A46DDE9105841
:104390001F4693460446002105B129805CB1207870
:1043A000002809D0BAF1000F05D0002618F0060F3A
:1043B00015D0002004E0002007B0BDE8F08F401CBD
:1043C000215C0A2904D00D2902D00029F7D100E090
:1043D000401C002DF0D04FF0FF312980ECE75FEA60
:1043E000887001D541F6FF77894608468DF814108C
:1043F000049127E00498CDF8189068B34FF0000CB2
:1044000005AA06ABCDF80CC0CDF80080CDE901328D
:1044100020443B465A4651461DF040FF06997A1A01
:10442000314417B20EB288B1049901440491207846
:104430000A280BD00D2809D0605C0A280FD00D285F
:104440000DD00846205C08B1002FD3DC049848B199
:1044500005B12E800498AFE74FF0010CD0E7481C5F
:104460000490F3E7064A04A9204652689047002DBD
:10447000F0D001460022504613F05FFC06B2E8E798
:10448000400200202DE9F0411746884606001ED064
:10449000002F1CD0FBF701FF04463846FBF7FDFE5A
:1044A000050014D00B4A2C44414692683046904790
:1044B000411903E0621BB25C3255641EA142F9D976
:1044C00030442A463946BDE8F04116F075BCBDE8D7
:1044D000F08100004002002000230278232902D04E
:1044E000012A0DD00FE02AB10021012A04D0022AAE
:1044F00004D008E0012101E0017004E0017001E056
:10450000202902D00123184670470221F6E72DE941
:10451000F0410E46804602460021334608461EF012
:1045200067F904460027401C16F0EAFA050008D097
:104530002F5533464246611C1EF05AF92846BDE805
:10454000F081FEE72DE9F0471E4614460D468246EF
:10455000DDF8209015E000BF4FEA540808FB06572D
:10456000394650464A469047002808DD44F300008B
:10457000C0EB540407EB0605A4F1010401E005DAE1
:104580004446002CE8D12046BDE8F0873846FBE7DA
:104590002DE9FC5F9B460CAB8A468146DDE9116044
:1045A00093E81210DDE90F575FEA80784FF030038F
:1045B0001AD45EB15FEAC07808D000F00C0858EA5F
:1045C0000C0803D0761E01E00B55641CBC4204D2DB
:1045D000202CF9D301E00B55641C5FEAC07803D0AE
:1045E000B44201D2202CF6D35FEAC06825D55FEA39
:1045F00040580AD44CB1BC4201D0B44205D1641E2B
:1046000003D0102D03D1641E04E0102D02D0022D22
:104610000AD00EE0850603D4202C1ED2782506E0B1
:10462000202C1AD2582502E0202C16D262250D55D6
:10463000641C202C11D20B55641C202C0DD2BCF113
:10464000000F01D02D2306E0430701D52B2302E004
:10465000030702D520230B55641CCDE900BAC846D8
:10466000154681468B46AA46800714D1274607E0A7
:104670002A46DDE900316D1C2020C446E0477F1C3E
:10468000B742F5D307E02A466D1C641EDDE9003110
:104690001BF80400C047002CF5D15FEA897006D4EE
:1046A00009E02A46DDE900316D1C2020C047A5EB5A
:1046B0000A00B042F5D32846BDE8FC9F2DE9F04F33
:1046C0008FB099468B46DDE91818DDE91C63DDE9FA
:1046D0001A4792468646002209B923F0100358056E
:1046E00007AD00D5C9B1B1FBF4F004FB1010C0B2A6
:1046F0000A2801D2303009E05FEA836C02D54FF01E
:10470000410C01E04FF0610C60440A38B1FBF4F158
:10471000A854521C09B1202AE5D3CDF80880CDE970
:104720000563CDE90052CDE903474B465246594651
:104730007046FFF72DFF0FB0BDE8F08F2DE9FF4F5A
:104740008FB01CACDDE9239594E8030820AC94E815
:10475000C004002450EA010201D125F010056A05C9
:104760000DF11C0802D550EA010217D032463B4633
:10477000FBF730FDD2B20A2A01D2303206E0AB0696
:1047800001D5412300E061231A440A3A08F80420C5
:10479000641C50EA010201D0202CE7D3CDE900844B
:1047A000CDF808B0CDE90595CDE9036A0FAF97E8DC
:1047B0000F00FFF7EDFE13B0BDE8F08F9A4200D274
:1047C00088547047704700002DE9FF4F89B09B4621
:1047D0000446002506E025280BD05A460B99904741
:1047E000641C6D1C20780028F5D10DB02846BDE86A
:1047F000F08F0027B8460122474900E0074314F82C
:10480000013F203B02FA03F00842F7D120782E281E
:1048100019D114F8010F47F004072A280ED06FF0C1
:104820002F022078A0F1300109290CD808EB88016B
:1048300002EB410100EB0108641CF2E70A98641CDA
:1048400050F8048B0A9020780028CED0642808D035
:10485000692806D075281ED05A460B9990476D1CC2
:1048600058E00A994FF00A0901C90A91002802DAB2
:1048700040422D2102E0390504D52B218DF820106E
:10488000012103E0F90704D02021F7E78A4608AEAA
:104890000DE00021FAE70A994FF00A0901C90A91CF
:1048A000F7E74946FBF717FD303106F8011D0028F0
:1048B000F7D1ADEB060000F12009780701D44FF0E5
:1048C0000108C84502DDA8EB090000E00020804691
:1048D000002706E008A85A46C05D0B9990476D1C5A
:1048E0007F1C5745F6DB04E030205A460B99904771
:1048F0006D1CB8F10001A8F10108F5DC05E016F81F
:10490000010B5A460B9990476D1CB9F10001A9F1B2
:104910000109F4DC641C65E7092801002DE9FF4F5B
:1049200089B005460A9800249246002800D1FE4D21
:104930008FE1252804D02246641C53460A990BE2D5
:10494000491C4FF0000808460C9101782B2919D01A
:1049500004DC202919D0232904D119E02D290ED0F7
:10496000302909D00026C8B2FEF750FCB0B10CA81F
:10497000FEF735FC06461FE048F001010AE048F06A
:10498000020107E048F0040104E048F0080101E0FA
:1049900048F01001401C88460C90D6E70C99087826
:1049A0002A2809D1169840C81690002E02DA48F03D
:1049B00002087642491C0C910C984FF0000B0178CC
:1049C0002E2919D1401C0C9048F480680078FEF71D
:1049D0001DFC20B10CA8FEF702FC83460CE00C9AEB
:1049E00010782A2808D1169802C81690002900DCF1
:1049F0000021521C8B460C920C9801786C290AD02D
:104A000004DC68290FD06A2919D128E0742929D03B
:104A10007A2914D126E0401C0C90017848F4807863
:104A20006C291CD00BE0401C0C90017848F08008E9
:104A3000682904D148F04001401C88460C90024689
:104A40000078692822D015DC62281FD00DDC2528CB
:104A500071D050281AD058287FF46DAF16E048F472
:104A60000071E9E748F48071E6E7632878D06428AC
:104A7000F2D10BE0732874D004DC6F2806D07028C4
:104A8000EAD103E0752801D07828E5D178280DD047
:104A900058280BD070280BD0502809D06F2816D07A
:104AA000622816D00A2128F0100016E0102107E035
:104AB0005078102148F48878562804D1521C0C9262
:104AC0001078582807D01078502804D006E0082124
:104AD00009E0022107E048F02000804610786928AC
:104AE00003D0642801D028F00C085FEA485001D5B3
:104AF00028F00108107869281ED064281CD0562898
:104B000064D05FEA885072D5169804ABC01D0022AD
:104B100083E806080292CDE9076820F007005346B3
:104B2000F0E80212CDE900121690224628460A99B2
:104B3000FFF704FE89E00AE15FEA885024D5169861
:104B400004AFC01D20F00703F3E802021693002310
:104B500087E80A08CDE90768002A03DA012102E0A4
:104B600080E0A6E000210023029119461B1A914122
:104B700001DA114603E00021404261EB0201534695
:104B80002246CDE90001D1E75FEAC85004D5169866
:104B900004C80FE0524215E05FEA486003D516985A
:104BA00010F8042B06E05FEA0860F0D5169830F89C
:104BB000042B12B21690CDE9021BCDE90468D00F88
:104BC000002AE7DDCDE9002053461EE01698AAEB47
:104BD000040202C816904868006800900A980B68A2
:104BE00001192846FFF79AFE04442FE0FFE75FEA29
:104BF000C8500CD5CDE9021BCDE9046816980021F8
:104C0000534604C8CDE900211690224619E05FEA18
:104C1000486003D5169810F8042B08E05FEA086096
:104C2000169803D530F8042B92B200E004C8169011
:104C30000020CDE90020CDE9021BCDE904685346F0
:104C4000224628460A99FFF739FD04460C98401C75
:104C50000C900C99087800287FF46BAE54457DD2F7
:104C600022467DE001275FEA887006D509E02246EA
:104C7000641C534620200A99A84738467F1CB0423E
:104C8000F5D316992246641C11F8040B169153466D
:104C90000A99A8475FEA887006D4D7E72246641CC1
:104CA000534620200A99A84738467F1CB042F5D3C6
:104CB000CCE7169850F8049B16904B46BBF10000C9
:104CC00001D0014601E04FF0FF31484600E0401CB2
:104CD00002780AB1491EFAD2C71A5FEA485003D5D2
:104CE00058465F4500D307465FEA887006D512E054
:104CF0002246641C534620200A99A84738467F1C48
:104D0000B042F5D307E000BF224609F10109641C57
:104D100053460A99A84799F8000040B15FEA485104
:104D2000F2D5BBF1010B01E0C5470008ECD25FEA08
:104D3000887006D48AE72246641C534620200A99CC
:104D4000A84738467F1CB042F5D37FE706E02246ED
:104D5000641C534625200A99A84777E7AAF1010267
:104D6000534600200A99A8470DB02046BDE8F08FB1
:104D700010B502004FF000000CD04B1E194200D0BD
:104D8000FEE70A44521E9A43B2F5803F02D20C2A33
:104D900001D9104610BD0C2010BD08444A1E401E0B
:104DA0009043114200D0FEE7704700002DE9F0412A
:104DB0000F4601210025044641862E460BE01B4983
:104DC000FBF772FA10B16D1CADB202E0608E401CB0
:104DD0006086761CB6B257F8260010B1017800291B
:104DE000EDD1208EA8421ED0A06A002610B115F089
:104DF00013FFA662E06A10B115F00EFFE662E8004C
:104E000015F07EFEA06238B1680015F079FEE06210
:104E100018B1A16A11B102E0FEE7FEE700256900C2
:104E200016F008F82586BDE8F0810000B42D0108D1
:104E30002DE9F84F8146407A0F4600F0070002281E
:104E400019D010468046974200DD3A4616460320A8
:104E50002A4C2B4A00EB460020F00305A06811689D
:104E60001035411A636805EB010C9C4505D2416879
:104E700021F0004124E00846E4E79D4219D892461B
:104E80004FF0FF3B48196168884210D900226946FB
:104E90001C48CDF800B00CF043FA002269461A48CD
:104EA0000CF03EFAA168DAF80000091AEAE7A068F7
:104EB000DDE7284615F024FEC0B1416841F000410D
:104EC00088EA6702416089EA02010160416801F0F5
:104ED0004041491C31F0804141608681A0F80E803C
:104EE00005D500F110018160BDE8F88FFEE7A168EB
:104EF00001F1100229448260A160F5E7AC000020B6
:104F00000C020020FDE00008C913010870B586B04E
:104F100000224A4C8DF808208DF80C208DF81020C6
:104F2000E2888A4201D0FF22A270E18090F83C2002
:104F3000142302F003024FF4B475012A24D0022A8C
:104F40005ED0A578AA4211D010F8265F05EB0515B2
:104F500005EB4505B5FBF3F52570407800EB001037
:104F600000EB4000B0FBF3F06070A27004AA03A84D
:104F7000CDE9000201EB41004FF6FF7101EA40006C
:104F800002AB627821781BE0A678B24210D0868C02
:104F900006EB46067602B6FBF5F5A58090F82700ED
:104FA00000EB001000EB4000B0FBF3F06070A2706B
:104FB00004AA03A8CDE90002C9B202AB62783AE0C4
:104FC00008F0AFFD9DF810109DF80C00CB08BDF85F
:104FD00000109DF8082063F30401ADF8001081086B
:104FE000BDF8000061F34A10D10880B261F3CF2010
:104FF000ADF8000080B20090BDF8000006B070BDB2
:10500000A678B24210D0868C06EB46067602B6FB36
:10501000F5F5A58090F8260000EB001000EB4000AD
:10502000B0FBF3F02070A27004AA03A8CDE900023F
:10503000CAB2217802ABA088C2E700005801002064
:1050400010B5084C012020700748FEF792FE00289A
:10505000A06803D0BDE810401CF0DEBFBDE81040E2
:105060001CF0CEBFE4010020A817002010B50446B4
:1050700090F84200A16B820709D4B4F840204AB1ED
:10508000A2F57F43FF3B1BD0521EA4F84020B4F88A
:105090004020AAB909B1820712D521461448FEF76B
:1050A000D2FEFFF7CDFFE16809B1204688472169AC
:1050B00009B1204688472046BDE8104015F0ACBD38
:1050C000E26B52422263002911D0820702D4626B44
:1050D000524222634210521C62F3410084F84200A3
:1050E000A26A206A2262A062E06AE162A06310BD47
:1050F000A817002070B5304D68681CF049FE0646C0
:10510000687880F00100687047E00020287094F80B
:1051100042006978C0F380028A4242D061F3820083
:1051200084F84200216B8A19030719D4002917DC7F
:10513000002A15DBC00709D1616939B120468847CB
:10514000216A01442162A16A0844A062A16809B1F0
:105150002046884794F8420040F0080084F8420056
:10516000206B8019206316D4E16A884200DD216338
:10517000E169204688470146606A884204D061623E
:1051800062680AB120689047D4E90B01814202DBD2
:105190002046FFF76BFF287818B10848FEF7E9FDB5
:1051A00003E021460548FEF7F6FD0400ADD11CF0F2
:1051B000F5FD686070BD0000E4010020A817002024
:1051C00070B5044640680D4608B1FFF7F9FF226844
:1051D000002A04D029462046BDE87040104770BD23
:1051E00089B20DF064B889B20DF09DB82DE9FF4F7A
:1051F00099B09846DDE926B12D9816468A464FF0BB
:105200000009042811D0052811D0062812D014282E
:1052100070D101270225002418FB06F00E901A9881
:10522000401E0D90701E069051E10027F2E7012705
:105230000325F0E701270225FFF730F80068D0F8D2
:105240003890E8E7289860430BEB202229986043C8
:105250000AEB202110124FEA212E7DD41A9B98428E
:105260007ADABEF1000F77DBB64575DAD2B2CBB28F
:10527000802A05DAC2F17F024FF0FF31520003E0CD
:1052800001215200A2F580720992802B05DAC3F148
:105290007F034FF0FF325B0003E001225B00A3F5C8
:1052A00080730A930EFB080C199B0CFB05330793C4
:1052B0004318119372D4DDF834C063456EDC1EEBE5
:1052C00002036BD4DDF818C0634567DCDDF81CC051
:1052D00011FB05C1CDE915C112FB08F101FB05C1A8
:1052E0000C91D7B32D99052905D014290BD0062987
:1052F00055D066E0EFE01598807807900C9881789B
:105300001698807810E0199A0E990EFB08FC02EBB3
:1053100041010A180EFB08111CF8020007901198B1
:1053200003FB08F3085C995C079A91420AD00A9A39
:1053300011FB02F20A99C1F58073079911FB032151
:10534000C1F30721079A90420DD0099A10FB02F28F
:105350000998C0F5807301E02FE035E0079810FB55
:105360000320C0F3072008442C994008085527D093
:1053700015980178407801EB0020ADF80C000C98EE
:105380000178407801EB0020ADF810001698017804
:10539000407801EB0020ADF8080023E04CE01598C0
:1053A00001881FFA89F0814207D00C99098881424F
:1053B00003D016990988814203D12C990020085501
:1053C00083E0FF210846CEE715980088ADF80C0071
:1053D00016980088ADF808000888ADF810002C98E1
:1053E000FF210155BDF80C00BDF81010884209D10D
:1053F000BDF80810884205D12B98BDF80C1000EBC1
:10540000440017E00A98C2B2DDE903100EF0A2FED4
:1054100004900998C2B2DDE902010EF09BFE7F22E2
:10542000029004990EF096FE00902B98BDF80010A3
:1054300000EB4400018048E0079B93F800C05B78D4
:105440000CEB0323DDF8ACC09BB22CF81430DDF874
:10545000B4C0BCF1050F06D0BCF1060F06D0BCF1FC
:10546000140F09D10AE0079B9B780FE01FFA89FC13
:10547000634501D1002309E0FF2307E0199B0EFBE0
:10548000083C0E9B00EB43031CF8033008B90029CD
:1054900005DBDDF834C0604503D1002901DD099842
:1054A0000AE0BEF1000F01D1002A04DB06998E4507
:1054B00008D1002A06DD0A98C0F1FF0010FB03F0B6
:1054C000010A00E000212C980155641C24B22A989E
:1054D0008442FFF6B7AE1DB0BDE8F08F10B5818FE6
:1054E00092B00446A9B168460CF094FA0B48012129
:1054F000CDE90040A08F0B9000200890CDE9090174
:10550000074807900748039068460CF0F7FA12B076
:1055100010BD12B0BDE810401EF0B6B80137020849
:10552000D31A01080337020810B504464068820800
:105530000AD0496821F00301091D08446060204633
:1055400000F042F8204610BDFEE74068103120F020
:105550000300884201D301207047002070472DE9E5
:10556000FC47054648680C4620F0030001AA69463E
:105570001DF00CFDDDE9007005EBC71101EB8009A2
:105580008046D9F83C0060B164B1C4E9020504F179
:105590000806C46030460421FFF7FFFB864202D0B4
:1055A000FEE7FEE7FEE7C9F83C400120296900FA62
:1055B00007F21143296105EB870100FA08F04A69F7
:1055C00002434A61BDE8FC8710B5044600F087F845
:1055D000046010BD2DE9FC4706464FF000000D00A9
:1055E00000900746019042D00C46E9460DF10408B0
:1055F000802907D3084621F041FD411F0120884042
:10560000401E04444246494620461DF0BFFC009C13
:105610000A2C2CDA06EB8400019A40694FF0FF3126
:1056200001FA02F210400CD1641C3069A14008401C
:105630001DD021F01BFD0446009006EB8000406960
:1056400078B121F013FD034606EBC411019001EB84
:105650008000C76B5FB1786820F00300A84201D2D8
:10566000FEE7FEE739463046009A1EF069FE3846EE
:10567000BDE8FC8710B50446FFF7A6FF416841F07E
:1056800002014160606840F00100606010BD10B52B
:10569000044600F024F8416821F00201416060688E
:1056A00020F00100606010BD70B506460D4608464A
:1056B00000F015F8040010D02079C0070BD06868FE
:1056C00080080BD02146304600F03CF821462846A1
:1056D000FFF72AFF0546284670BDFEE7FEE7426851
:1056E00000F1080122F00300001F0844910800D1D6
:1056F000FEE7704770B506460C004FF000001ED064
:10570000F2B120791546C0071BD011462046FFF79D
:105710001CFF78B12946204600F025F805462046B2
:10572000FFF752FF6868294640F002006860304683
:10573000FFF715FF2046FFF7AAFF04F1080070BD30
:10574000FEE7FEE77CB5054648680C4620F00300FE
:1057500001AA69461DF01AFCDDE90023214628460E
:105760001EF0EEFD7CBD2DE9F0410D46044600F132
:105770000801281F0E18606806F1080720F00300D2
:10578000401BA0F1040838460421FFF706FB8742BE
:1057900000D0FEE7606820F0030108EB0500001D63
:1057A000814200D0FEE7307900F0030040EA0800B3
:1057B000706020F003000C2800D2FEE7207900F092
:1057C0000300284360603046FFF754FF3046BDE8D1
:1057D000F08138B5044613F009FD054613F03BFD92
:1057E0000028204605D0218FE18618F05AFB0120C1
:1057F00038BD11F05DFF002820461ED011F02CFEB0
:10580000218FE08E81420CD02087E08E00906A4686
:105810001C21204612F084F90128E9D1204618F015
:1058200040FB284613F023FD0428E0D1204616F063
:10583000FBFE002112F079FED9E711F095FFD6E7C3
:1058400070B512F069F9054616F034FF0446284693
:105850000DF06AFB01462046BDE8704001221BF0B6
:10586000C9BD00EB8100C260704770B50446007985
:10587000A1688847E1784A0702D02288521C22801A
:10588000B0EBD11F0CD04FF0005202EBB1114FEA38
:10589000B161C1F3C202E170032A04D360F3C711FE
:1058A00021F03800E070E078002500F007010629BB
:1058B00071D2DFE801F0031F3F7B9598C0F38011A0
:1058C000B1EBD01FA07820F0F00010D1A070E168FB
:1058D00009B1204688472580A07820F00F00401CA1
:1058E000A070E07820F00700401CE07070BD8030B0
:1058F000A07070BDC0F38011B1EBD01F09D0A078AB
:1059000020F0F0001030A070216991B32046884744
:105910005DE02088C828ECD9A07820F0F000503055
:10592000A070216A09B120468847E07820F007007E
:10593000401DDAE7C0F38011B1EBD01F1AD1A07877
:1059400020F0F000A070E16809B120468847A078F7
:105950004FF0805101EB30104FEA3070A070616958
:1059600009B1204688472580E07820F00700C01C58
:10597000BBE72CE020883C28BBD9A07800F00F01C1
:10598000012902D0022907D00EE020F0F0003030CB
:10599000A070A16905E023E020F0F0004030A07085
:1059A000E16909B120468847E07819E0C0F3801129
:1059B000B1EBD01F11D0A07820F0F0001030A07013
:1059C000216909B12046884720883C28ECD22580EF
:1059D000E07820F00700801C87E721883C2988D9DF
:1059E00020F0070081E7C0F38011B1EBD01FA07851
:1059F00020F0F00009D16030A070616A00293FF406
:105A000078AF2046BDE8704008471030A07021698B
:105A1000C7E72DE9F0410D461E46174604462C21E6
:105A2000FAF730FCA07820F0F0008030A07030460B
:105A3000A560A8470146E07861F3C71067F38610B8
:105A4000E0702671BDE8F0810020401CC0B2022841
:105A5000FBD30020887302480078886070470000FC
:105A600080020020074A11680B4605E0814202D1FE
:105A70004FF0FF307047896A0029F7D183621060C8
:105A800000207047EC020020054810B5046803E0D0
:105A90002046FFF7EAFEA46A002CF9D110BD0000F1
:105AA000EC0200202DE9F04F0D4687B0044600219E
:105AB00016F0EEFC60B32946204600F061FA294654
:105AC000204600F06FF80021204617F0F3FB059008
:105AD0000021204617F0A2FC04900021204617F078
