:020000040800F2
:10000000A8060020B1010008271E0008611A000898
:10001000251E0008110400089523000800000000B8
:10002000000000000000000000000000D7210008D0
:10003000D104000800000000291E0008D921000892
:10004000CB010008CB010008CB010008CB01000860
:10005000CB010008CB010008CB010008CB01000850
:10006000CB010008CB010008E9040008CB0100081F
:10007000CB010008CB010008CB010008CB01000830
:10008000CB010008CB010008CB01000800000000F4
:10009000000000000000000000000000EF04000865
:1000A000CB010008CB010008CB010008CB01000800
:1000B000CB010008CB010008CB010008CB010008F0
:1000C000CB010008CB010008CB010008CB010008E0
:1000D000CB010008CB010008CB01000800000000A4
:1000E000D3040008CB010008CB0100080000000089
:1000F000000000000000000000000000CB0100082C
:1001000000000000CB010008CB010008CB01000873
:1001100000000000000000000000000000000000DF
:1001200015040008CB01000821040008CB010008D9
:10013000CB010008000000000000000000000000EB
:10014000000000000000000000000000CB010008DB
:10015000CB010008CB010008CB010008CB0100084F
:10016000CB010008CB0100080000000000000000E7
:10017000000000000000000000000000000000007F
:1001800000000000CB01000800000000000000009B
:10019000CB010008CB010008DFF810D000F092F886
:1001A0000048004761250008AFF30080A806002042
:1001B0000648804706480047FEE7FEE7FEE7FEE701
:1001C000FEE7FEE7FEE7FEE7FEE7FEE7792200082E
:1001D000990100082DE9F05F0546002092469B46F4
:1001E00088460646814640241BE02846414647464D
:1001F000224600F057F853465A46C01A914110D390
:1002000011461846224600F03EF82D1A67EB010809
:100210004F4622460120002100F035F817EB000977
:100220004E41201EA4F10104DFDC484631462A4637
:100230004346BDE8F09FD2B201E000F8012B491E11
:10024000FBD270470022F6E710B513460A46044673
:100250001946FFF7F0FF204610BD30B50B460146AA
:1002600000202022012409E021FA02F59D4205D355
:1002700003FA02F5491B04FA02F52844151EA2F1FF
:100280000102F1DC30BD202A04DB203A00FA02F141
:10029000002070479140C2F1200320FA03F3194374
:1002A00090407047202A04DB203A21FA02F0002116
:1002B000704721FA02F3D040C2F120029140084376
:1002C00019467047064C074D06E0E06840F0010310
:1002D00094E8070098471034AC42F6D3FFF760FF6C
:1002E000F82D0008182E0008464910B54A6822F477
:1002F00040324A604A6843681A434A6001684A6863
:1003000022F480724A6001684A68036942EA032263
:100310004A6001684A6822F040724A6001684A688F
:1003200083681A434A6001688A6822F400628A601E
:1003300001688A68C3681A438A60816A6FF07062D4
:10034000D14201688A6822F070628A6001688A6816
:100350000CD0836A1A438A6001688A6822F040528E
:100360008A6001688A68C36A1A4301E022F0405239
:100370008A6001688A6822F002028A6001688A68DD
:10038000037E42EA43028A6090F820100029016847
:100390004A680FD042F400624A6001684A6822F459
:1003A00060424A6001684A68174C436A04EB433371
:1003B0001A4301E022F400624A600168CA6A22F42A
:1003C0007002CA620168CA6A838B104C04EB035343
:1003D0001A43CA6201688A6822F400728A6001685E
:1003E0008A6890F8303042EA43228A6001688A685D
:1003F00022F480628A6001688A68406942EA80204B
:10040000886010BD0023014000E0FFFF0000F0FF06
:10041000FEE70000014800F099B90000B400002098
:10042000014800F093B90000C001002001681823C2
:10043000CAB2103AB2FBF3F2054B6FF30901032A7B
:100440009B5CC36500D9091D8165084670470000A3
:10045000E827000810B5014600208B698A6A4FF032
:10046000C07453B1B3F5005F15D072B1012A0CD03E
:10047000022A0AD0032A09D104E01AB1012A06D0BF
:10048000022A03D1C96AC90100D5012010BDC96A79
:10049000A142FAD010BD002AF7D0012AF2D0022AD8
:1004A000F3D0032AF3D010BD30B50468256825F4D5
:1004B00080252560046863608368402B036803D04F
:1004C00099600068C26030BD9A600068C16030BD4C
:1004D000704710B54FF4806000F0F6FABDE81040A8
:1004E0004FF4005000F0F0BA102000F0EDBA4FF4D5
:1004F000807000F0E9BA72B6FEE7000078B500241B
:10050000009490F83C20012A19D0012280F83C2068
:100510000A6807230568092A13D9EE680A3A02EB2C
:10052000420293409E43EE600B788A680A3B03EBDD
:1005300043039A400368DD682A43DA6010E0022032
:1005400078BD2E6902EB420293409E432E610B78E8
:100550008A6803EB43039A4003681D692A431A61C2
:100560004A681F23072A13D205686E6B521E02EBDE
:10057000820293409E436E630A8893B20A79521EA8
:1005800002EB820293400268556B2B43536327E0D2
:1005900005680D2A12D22E6BD21F02EB8202934005
:1005A0009E432E630B790A88DB1F92B203EB830311
:1005B0009A4003681D6B2A431A6311E0EE6A0D3AF4
:1005C00002EB820293409E43EE620B790A880D3B58
:1005D00092B203EB83039A400368DD6A2A43DA622E
:1005E0001B4B0568194A9D420AD10D68122D07D18F
:1005F000556825F400055560556845F4800555603B
:1006000005689D421DD1134D0B68AB4201D0112BE3
:1006100017D1536823F480035360536843F40003F5
:1006200053600968A9420CD10B490C4A0968B1FB17
:10063000F2F101EB8101490000E0491E009100291F
:10064000FBD180F83C40002078BD00000023014031
:1006500000200140120000102800002040420F003E
:1006600070B504004FF0000503D0206C002610B1D7
:1006700007E0012070BD204600F01CF8666484F895
:100680003C60206CC00610D4206C20F4885040F0F0
:10069000020020642046FFF727FE6664206C20F0ED
:1006A000020040F00100206400E0012584F83C6075
:1006B000284670BD70B586B0064614216846FFF71F
:1006C000C1FD1D493068884234D11C4800250168AD
:1006D00041F480710160006800F480700590174853
:1006E0001438016841F0010101600068694600F0BA
:1006F00001000590012000900320CDE9010510487C
:1007000000F0F0F9104C0F48C4E900050015A56091
:10071000C4E90350800060618000A0618011C4E9D9
:1007200007052046656200F0E1F808B1FFF7E3FE37
:10073000B463A66306B070BD002001404438024097
:100740000000024010640240B40000202DE9F8438C
:1007500004464FF00009CDF8009063484FF416515D
:10076000A56D0068B0FBF1F72E6894F85C100820C6
:1007700000FA01F131420FD021680A6852070BD507
:100780000A6822F004020A6094F85C108840A860AD
:10079000606D40F00100606594F85C104FF0010856
:1007A00008FA01F0304208D021684969090604D5E9
:1007B000A860606D40F00200606594F85C10042051
:1007C0008840304208D021680968890704D5A860AC
:1007D000606D40F00400606594F85C101020884063
:1007E000304218D021680968090714D5A86020682C
:1007F0000168490304D50068000308D5A16C07E02F
:100800000168C90503D4016821F008010160216C69
:1008100009B12046884794F85C1020208840304277
:1008200031D021680968C9062DD5A86094F8350033
:1008300005282068016806D0490347D500680003F1
:100840001DD4616C1CE021F0160101602068416933
:1008500021F080014161206C08B9A06C20B12068B2
:10086000016821F00801016094F85C103F20884085
:10087000A86084F8358084F83490216D1FE0E16B26
:1008800009B120468847606D00282BD0606DC007F5
:1008900014D0052084F835002068016821F001019A
:1008A00001600098401C0090B84203D8206800689E
:1008B000C007F6D184F8358084F83490E16C0029C3
:1008C00010D001B02046BDE8F04308470168C905D3
:1008D000D5D4016821F01001016084F8358084F8D6
:1008E0003490CCE7BDE8F883280000202DE9F041E2
:1008F000044600F0EDF906465CB1022084F83500AC
:10090000002584F834502068016821F0010101605D
:100910000DE00120BDE8F08100F0DAF9801B052828
:1009200005D920206065032084F83500F2E72068AF
:100930000068C007F0D12268116820480140D4E95E
:1009400001031843D4E9033633431843636918435A
:10095000A3691843E3691843236A18430843616A8B
:10096000042903D1D4E90B1319430843106020680C
:100970004069666A20F0070130460E4301270428CB
:100980000CD1A06A0643E06A40B12046FFF762FD41
:1009900020B14020606584F83570BAE72068466170
:1009A0002046FFF743FD94F85C203F219140816091
:1009B000656584F835700020ACE700003F8010F0DA
:1009C0002DE9F0410446866D90F834000025012899
:1009D0000DD0012084F8340094F835700020012FE8
:1009E00007D084F8340002252846BDE8F0810220B3
:1009F000FBE7022784F8357060652046FFF754FD59
:100A000094F85C103F208840B0602068016841F095
:100A100016010160206C20B12068016841F00801D6
:100A200001602068016841F001010160DCE700001D
:100A300070B5044600F04CF90546601C02D004482D
:100A40000078044400F044F9401BA042FAD370BD82
:100A50001C0000201B4910B501220B460A709B7830
:100A6000B0F5807F14D0B0F5806F19D010281FD159
:100A7000002B1DD10869401C0323B0FBF3F408616F
:100A800003FB1400A8B1012815D0022817D114E0E7
:100A9000002B0DD18868401C8860CA704A7006E03F
:100AA000002B05D1C868401CC8604A700A718A7062
:100AB00010BD4B7103E04A7101E0022048718A7158
:100AC000F5E700000000002070B5054D04462868D9
:100AD000204203D02046FFF7BDFF2C6070BD000010
:100AE000143C01402DE9F84FDFF8B8A100220124A1
:100AF00003254FF00F090AF1040BAAF1040E00BF01
:100B00000B6804FA02F63340B34273D10F7907F051
:100B10000307012F01D0022F16D187684FEA420840
:100B200005FA08FC27EA0C07D1F80CC00CFA08FCFF
:100B30004CEA070CC0F808C04768B7430E79C6F303
:100B4000001696403E4346600E79F643B6070DD038
:100B5000C768560005FA06FC27EA0C07D1F808C05A
:100B60000CFA06FC4CEA070CC0F80CC00E7906F033
:100B70000306022E10D1D60800EB8608D8F82060B4
:100B800057074FEAD76C09FA0CF7BE430F6907FA0B
:100B90000CF73743C8F8207006684FEA420C05FA94
:100BA0000CF7BE430F7907F0030707FA0CF737433A
:100BB00007604E6816F4403F6DD03B4E376847F4EF
:100BC00080473760366822F0030706F480460096B7
:100BD000364E07EB060CDCF8086897073F0F09FA5A
:100BE00007F826EA0806DFF8C880404503D14FF031
:100BF00000081EE04FE0DFF8BC80404502D14FF016
:100C0000010816E0DFF8B080404502D14FF002083D
:100C10000FE0DFF8A880404502D14FF0030808E05C
:100C2000DFF89C80404502D14FF0040801E04FF00E
:100C3000070808FA07F848EA0608CCF80888DAF83E
:100C400000605746D1F804C09E435FEACC2C00D523
:100C50001E433E60DBF800605F46D1F804C09E434F
:100C60005FEA8C2C00D51E433E60DEF800607746BC
:100C7000D1F804C09E435FEA8C3C00D51E433E6021
:100C8000084F083F3E68D1F804C09E435FEACC3C61
:100C900000D51E433E60521C102AFFF431AFBDE860
:100CA000F88F0000083C0140443802400030014009
:100CB000000002400004024000080240000C024014
:100CC000001002400AB1816170470904FBE700008F
:100CD00001488068704700001C00002070B50400C7
:100CE00025D094F83D00002520B984F83C502046DA
:100CF00000F0B8F8242084F83D002068016821F055
:100D0000010101602068016841F400410160206830
:100D1000016821F40041016000F010FA4D4A616859
:100D2000914201D84C4900E04C49884201D201204F
:100D300070BD4B492368B0FBF1F15E6826F03F06B9
:100D40000E435E606368934206D94FF4967359432D
:100D50004FF47A73B1FBF3F12368491C1E6A26F045
:100D60003F06314319626168914210D84900401E24
:100D7000B0FBF1F2521CC2F30B02042A01D2042090
:100D800022E0B0FBF1F0401CC0F30B001CE0A268B5
:100D9000F2B301EBC10303EB0116431EB3FBF6F301
:100DA0005B1C43F480431B0549D092B301EBC102A5
:100DB00002EB0111401EB0FBF1F0401CC0F30B0030
:100DC00040F4804040F400402168CA694CF6FF734B
:100DD0009A431043C861D4E90710014320680268B0
:100DE00022F0C00211430160D4E9030101432068ED
:100DF000826848F2FF339A4311438160D4E90501C8
:100E000008432168CA6822F0FF021043C86001E06D
:100E10000EE016E02068016841F0010101602564E0
:100E2000202084F83D00256384F83E50002070BDEA
:100E300001EB4106431EB3FBF6F35B1CB3E7012055
:100E4000C2E701EB4101401EB0FBF1F0401CC0F3D2
:100E50000B00B7E7A086010080841E0000093D005A
:100E600040420F0010B586B0044614216846FFF7D3
:100E7000E9F914492068884221D113480021026809
:100E800042F002020260006800F0020005904FF498
:100E9000C07000901220CDE90101032003900420CE
:100EA000049069460948FFF71DFE074810300168A5
:100EB00041F400110160006800F40010059006B0D4
:100EC00010BD0000005400403038024000040240D1
:100ED0000248816802781144816070471C0000203C
:100EE0000B4810B5016841F400710160016841F4DC
:100EF00080610160016841F480710160032000F0AD
:100F000071F8002000F006F800F024F8002010BD71
:100F1000003C024070B50D4D04464FF47A712878BC
:100F2000B1FBF0F00A490968B1FBF0F000F000FDF8
:100F300048B9102C07D200222146501E00F032F88A
:100F400000206C6070BD012070BD00001C000020FE
:100F5000280000200B4882B0016841F48041016004
:100F6000006800F4804000900648001F016841F0CE
:100F700080510160006800F080500090052002B0B0
:100F800000F030B844380240002809DB00F01F02AE
:100F9000012191404009800000F1E020C0F80011DB
:100FA00070470000F0B40E4B1B680C46C3F30223DD
:100FB000C3F10705042D00D90425191D072901D205
:100FC000002300E0DB1E012606FA05F1491E214040
:100FD00099409E40761E16403143F0BC01F0F0B9B6
:100FE0000CED00E0064900F0070208684FF6FF0329
:100FF000184040EA0220034A10430860704700008E
:101000000CED00E00000FA052DE9F0470E46050062
:1010100065D0DFF81481D8F80000F7B200F00700BF
:10102000B04207D288F80070D8F8000000F007003E
:10103000B04254D128683D4C810712D5400703D5F2
:10104000206840F4E05020602878000703D520682D
:1010500040F4604020602068A96820F0F000084358
:1010600020602878C0072DD03049686808390128E9
:1010700012D0022813D0032811D00968890700294B
:101080002DDA216821F0030101432160FFF720FEE2
:10109000814641F2883A0EE009688903EFE7096862
:1010A0008901ECE7FFF714FEA0EB0901514502D9D5
:1010B0000320BDE8F0872068696800F00C00B0EB01
:1010C000810FEFD1D8F80010404601F00701B1427E
:1010D00007D90770006800F00700B04201D0012076
:1010E000E7E72878400705D52068E96820F4E05054
:1010F000084320602878000706D52068296920F475
:10110000604040EAC100206000F038F82168084AD9
:10111000C1F30311515CC8400649086006480068E5
:10112000FFF7F8FE0020C4E7003C02400838024008
:10113000F02700082800002020000020044805496E
:1011400000680968044AC1F38221515CC8407047B5
:1011500028000020083802400028000804480549FB
:1011600000680968044AC1F34231515CC8407047C5
:10117000280000200838024000280008154810B553
:10118000006810F00C02144813D04110042A0FD04C
:10119000082A0ED10F4C241F2268236802F03F0258
:1011A0005B0207D52068C0F38810A0FB010106E0B0
:1011B000084610BD2168C1F38811A1FB000100237E
:1011C000FFF708F82168C1F30141491C4900B0FB51
:1011D000F1F010BD083802400024F4002DE9F84F6A
:1011E00004006ED02078DFF84C93C007A9F1040505
:1011F0004AD009F104000168C1F38101012908D036
:101200000068C0F3810002280AD1D9F8000040022A
:1012100006D52868800337D560680028E1D033E020
:101220006068B0F5803F10D0B0F5A02F286810D0CE
:1012300020F480302860286820F4802028606068CE
:10124000A8B1FFF745FD06460DE0286840F4803060
:10125000F4E740F480202860F7E700BFFFF738FD8F
:10126000801B642873D828688003F7D50CE0FFF74B
:101270002FFD064605E000BFFFF72AFD801B64280E
:10128000F0D828688003F7D42078DFF8AC82800794
:101290004FF0000A3ED5A748001D016811F00C0F61
:1012A00008D00068C0F3810002280BD1D9F80000F3
:1012B000400207D42868800716D5E068012800D1CD
:1012C00012E033E1E068B8B10120C8F80000FFF790
:1012D000FFFC064605E000BFFFF7FAFC801B022872
:1012E000C0D828688007F7D52868216920F0F80061
:1012F00040EAC10028600DE0C8F800A0FFF7E8FC54
:10130000064604E0FFF7E4FC801B02281FD828688B
:101310008007F7D42078000722D5864F8748616977
:10132000703771B101210160FFF7D2FC064604E07D
:10133000FFF7CEFC801B022809D838688007F7D554
:101340000EE0C0F800A0FFF7C3FC064605E082E00F
:10135000FFF7BEFC801B02287DD838688007F7D4D1
:101360002078400768D5DFF8CCB100270BF13C0BA3
:10137000DBF80000C0000BD4DBF8001041F0805116
:10138000CBF80010DBF80000012700F0805000903F
:101390006B4E3068C00510D4306840F48070306007
:1013A000FFF796FC009005E0FFF792FC0099401AC9
:1013B000022850D83068C005F6D55E4EA0686C365D
:1013C00001280FD00528306810D020F001003060CF
:1013D000306820F004003060A068B8B1FFF778FCF6
:1013E00000900FE0306840F00100F4E740F00400A6
:1013F0003060F7E7FFF76CFC0099411A41F2883042
:10140000814266D830688007F4D50EE0FFF760FCB3
:10141000009007E0FFF75CFC0099411A41F2883028
:10142000814256D830688007F4D42FB1DBF8001021
:1014300021F08051CBF80010A069C8B33D49091DC7
:101440000968C1F3810102294AD00228504607D019
:10145000C8F8600000E03CE0FFF73AFC04463BE0DF
:101460004746C8F86000FFF733FC064605E000BFBA
:10147000FFF72EFC801B02282BD828688001F7D4A8
:10148000D4E907010843A16A2E4A490802EB014149
:10149000626A41EA8211084394F82C1040EA016123
:1014A000C9F8001001203866FFF712FC044606E078
:1014B0003EE000BFFFF70CFC001B022809D828689B
:1014C0008001F7D534E000BFFFF702FC001B0228C3
:1014D00002D90320BDE8F88F28688001F4D427E002
:1014E0000128F7D0D9F80000E26900F480019142A8
:1014F0001CD1226A00F03F01914217D147F6C0711A
:10150000626A0140B1EB821F10D1A26A4FF0FF3333
:1015100000F4403103EB5202B1EB024F06D194F8D4
:101520002C1000F07060B0EB016F01D00120D1E70A
:101530000020CFE70438024000004742800E4742B7
:10154000007000400000FFFF704790F851007047A6
:1015500070B5040009D0606A002540B1256165615D
:10156000A56294F8510040B10CE0012070BD6068A4
:10157000B0F5827FF4D0E561F2E784F85050204660
:1015800000F044F8022084F851002068016821F03E
:1015900040010160A088218900F4827001F40441B7
:1015A0000843A18901F400610843217C01F0020194
:1015B0000843217D01F001010843218B01F40071F2
:1015C0000843217F01F03801084394F8201001F00E
:1015D00080010843218D01F400510843216808600F
:1015E000A069042101EA104094F8241001F01001D0
:1015F0000843216848602068C16921F40061C16125
:101600006565012084F85100002070BD70B586B07A
:10161000064614216846FEF715FE204930688842C8
:101620003AD11F480025016841F4805101600068EB
:1016300000F4805005901A481438016841F0010107
:1016400001600068694600F001000590A02000904C
:101650000220CDE9010503200390052004901148E4
:10166000FFF740FA114C104820604FF08060606036
:101670004020C4E902050001C4E904054FF44030EC
:10168000A561C4E9075020466562FFF72FF908B14C
:10169000FEF731FFB464A66306B070BD00300140B0
:1016A000443802400000024040640240C001002073
:1016B0002DE9F84F044690F8500000271D461646C5
:1016C000894601280DD04FF0010B84F850B0FFF788
:1016D000FFFA804694F85100BA46012804D0022748
:1016E00093E00220BDE8F88FB9F1000F73D0002E0F
:1016F00071D0032084F85100C4F854A0C4F830908D
:10170000A686E686C4F838A0A4F83CA0A4F83EA0BB
:10171000C4F844A0C4F840A0A068B0F5004F09D1B7
:101720002068016821F0400101602068016841F4EF
:101730008041016020680168490603D4016841F0D6
:1017400040010160E068B0F5006F606803D030B31D
:10175000012E24D041E008B1012E1CD1206B21685C
:101760000088C86006E020688168890709D5216B78
:101770000988C160206B801C2063E08E401EE086DB
:1017800009E0FFF7A5FAA0EB0800A84202D3681C05
:1017900001D031E07DB3E08E0028E4D120E0206B61
:1017A00021680078087306E020688168890709D5F8
:1017B000216B09780173206B401C2063E08E401E72
:1017C000E0860AE0FFF784FAA0EB0800A84203D302
:1017D000681C02D010E017E06DB1E08E0028E3D164
:1017E00042462946204600F069FB08B1202060658A
:1017F000A06818B106E0FFE7032706E02068C1688B
:1018000080680090606D00B1012784F851B084F8C1
:1018100050A0384666E700002DE9F041044690F8F4
:1018200050000026012809D0012784F8507094F850
:1018300051000025012804D002264EE00220BDE818
:10184000F08189B182B1032084F85100656521637C
:10185000A286E286A56365642564A587E587A068FE
:10186000B0F5004F02D00BE0012636E02068016899
:1018700021F0400101602068016841F4804101606D
:10188000A16C18480864A16C1748C863A16C17487C
:10189000C864A06C0565E38E2268216B0C32A06CD5
:1018A000FFF78EF838B1606D40F0100060650126DA
:1018B00084F8517011E020680168490603D401687A
:1018C00041F0400101602068416841F02001416021
:1018D0002068416841F00201416084F85050304670
:1018E000ADE700004D1E0008571E00082B1E000823
:1018F000704770470D4810B5C27800214FF4FA6464
:1019000001233AB14269521C4261A24202D34370A0
:10191000C17041610279002A07D08269521C82613C
:10192000A24202D343700171816110BD000000200A
:1019300010B5401EB0F1807F01D3012010BD4FF0E3
:10194000E02460610F21601700F03AFD0020A061E3
:1019500007202061002010BD10B5FFF7CBFF10BDA0
:1019600070B5040004D094F83D00002510B106E0E5
:10197000012070BD84F83C50204600F023F824205C
:1019800084F83D002068C16821F40051C160204600
:1019900000F07AFC2068016921F49041016120681F
:1019A000416921F02A0141612068C16841F4005178
:1019B000C1602564202084F83D0084F83E000020AA
:1019C00070BD0000F0B587B0044614216846FEF7EC
:1019D00039FC1F4F236800221E49022403250726D5
:1019E0001D48BB4213D11B4B14331F6847F010072F
:1019F0001F601B6803F0100305930B6843F001039D
:101A00000B60096801F001010591690215E0134FAF
:101A1000BB421AD10F4B10331F6847F400371F60C9
:101A20001B6803F4003305930B6843F001030B605C
:101A3000096801F0010105910C21CDE9001402AB08
:101A4000694683E86400FFF74DF807B0F0BD000079
:101A500000100140303802400000024000440040C5
:101A6000FEE700002DE9FF5F0446074601F10F0085
:101A7000203A83B2D5B2E01D82B28A46384600F0E1
:101A80003BFB1648002600EB051B4FF0010900BF89
:101A90001BF806805FF0000509FA05F010EA080F50
:101AA00001D0039A00E00E9A5146204600F08EFACB
:101AB000641CA4B2E01B082809D06D1CEDB2082DEF
:101AC000EAD3761CB6B2102EE2D3BDE8FF9F0AF12E
:101AD00001003C461FFA80FAF3E7000008280008DE
:101AE0002DE9F8431F46144688460546089E08E03F
:101AF0003B46414628460096FFF7B4FF0835ADB295
:101B0000641C2278002AF3D1BDE8F8837FB5002554
:101B1000154800950195029512490395016001242D
:101B20004FF480310461C0E90115047680F820503B
:101B30000E49C0E90A15C560C46180F830404461AF
:101B4000FEF78EFD08B1FEF7D6FCCDE900546946DC
:101B500005480295FEF7D2FC002801D0FEF7CBFC29
:101B60007FBD0000002001406C0000200100000F3C
:101B70000D4808B5016841F4800101600068002249
:101B800000F48000009011463820FFF70BFA38204F
:101B9000FFF7FAF9002211463A20FFF703FABDE8F1
:101BA00008403A20FFF7F0B9303802402DE9F047FD
:101BB00086B014216846FEF745FB584800240168AA
:101BC00041F004010160016801F004010591016820
:101BD00041F080010160016801F080010591016818
:101BE00041F001010160016801F001010591016806
:101BF00041F0020101600068DFF8248100F002007A
:101C00000590002283214046FFF75CF8DFF814912D
:101C1000002212214846FFF755F8DFF80CA10022F8
:101C200069215046FFF74EF84FF4005000904FF4F2
:101C30000410CDE9010469464046FEF753FF012533
:101C40000326CDE90065CDE9025469464046FEF71A
:101C500049FF0220CDE90005CDE902546946484616
:101C6000FEF740FF1020CDE90005CDE902466946A8
:101C70004846FEF737FF0920CDE90005CDE90254BB
:101C800069465046FEF72EFF4FF482604FF48817E6
:101C9000CDE90007694602945046FEF723FF8020F5
:101CA000CDE90005CDE9024669464046FEF71AFF38
:101CB0002802CDE90007694602944846FEF712FF64
:101CC00020200090CDE90154694650460394FEF768
:101CD00009FF4020CDE90005CDE90246694650469E
:101CE000FEF700FF002203210A20FFF75BF90A201C
:101CF000FFF74AF9002201211720FFF753F91720B7
:101D0000FFF742F9002202212820FFF74BF9282093
:101D1000FFF73AF906B0BDE8F0870000303802401E
:101D20000008024000000240000402400D4810B5C7
:101D30000B4901600C49416000214FF480428160F1
:101D4000C0E9031241618161C1610162FEF7C6FF12
:101D5000002803D0BDE81040FEF7CDBB10BD000049
:101D60000054004014010020A0860100104810B566
:101D70000E4901604FF4827141604FF4004181606F
:101D80000021C1604FF400720161C0E90512C16118
:101D90000162416281620A21C162FFF7D9FB00281A
:101DA00003D0BDE81040FEF7A6BB10BD00300140D7
:101DB000680100200C4810B50A4901604FF4E13178
:101DC0004160002181600C22C160C0E90412816180
:101DD000C161FFF7C5FD002803D0BDE81040FEF744
:101DE0008ABB10BD00100140200200200C4810B535
:101DF0000A4901604FF4E1314160002181600C2209
:101E0000C160C0E904128161C161FFF7A9FD00282A
:101E100003D0BDE81040FEF76EBB10BD004400408B
:101E200064020020FEE7FEE7704710B5806B016892
:101E30004A6822F003024A60416D41F01001416599
:101E4000012180F85110FFF77FFB10BD10B5806BAA
:101E5000FFF74FFD10BD38B50546846BFEF738FF20
:101E6000024628680068C00523D42068416821F034
:101E7000200141602068416821F002014160642135
:101E8000204600F01BF818B1606D40F0200060653E
:101E9000A068002118B92068C26880680090E186B7
:101EA000012084F85100606D18B12046FFF74CFB0B
:101EB00038BD2046FFF71CFD38BD000038B504468C
:101EC0001248134B0068B0FBF3F04FF47A73584399
:101ED00000906068B0F5827F0DD10B460092002221
:101EE0008021204600F016F870B1606D40F02000AF
:101EF0006065032038BD009830B1401E0090206816
:101F00008068C0430006F6D5002038BD28000020B8
:101F100000366E012DE9F8431E4691468846044678
:101F2000089DFEF7D5FE401B351AFEF7D1FE074689
:101F300025480068C0F3CB30684338E0701C37D0C8
:101F4000FEF7C6FEC01BA84203D215B1009860B3CD
:101F50002CE02068416821F0E00141606068B0F544
:101F6000827F0BD1A068B0F5004F02D0B0F5806F32
:101F700004D12068016821F040010160A06AB0F539
:101F8000005F09D12068016821F4005101602068D8
:101F9000016841F400510160012084F851000020E3
:101FA00084F850000320BDE8F8830025401E00900F
:101FB0002068816838EA010004D000214945BDD17C
:101FC0000020F0E70121F9E72800002010B51446B1
:101FD0000B4A5388984211D2128891420ED24A1C61
:101FE00093B2421C92B200F087F8200AE4B200F0EB
:101FF000CDF82046BDE8104000F0C8B810BD000084
:102000002C000020F0B55D1AADF5017D141A641C9A
:102010006D1C1433A4B2ADB29BB2869E00F06CF876
:1020200070BA81B26C4300204FEA0D0222F8101002
:10203000401CFF28FAD9012280211148FEF742FEF8
:10204000002210210F48FEF73DFE4FF480764FF638
:10205000FF770FE03546AC4200D8254607EA450237
:1020600069460948FFF7D8FB0748FFF76EFA0128D1
:10207000FAD1641B002CEDD10DF5017DF0BD0000FF
:1020800000080240000002406801002008B500215D
:1020900000904FF48C73F0220846FFF7B3FF08BDA1
:1020A00010B500F091F8012240211248FEF70AFE17
:1020B000012000F04DF84FF47A70FEF7B9FC1120C2
:1020C00000F046F87820FEF7B3FC362000F040F828
:1020D000002000F05BF83A2000F03AF8052000F00C
:1020E00055F8212000F034F8BDE81040292000F018
:1020F0002FB80000000402402DE9F04106461C46BE
:1021000015460F462A2000F023F8300A00F03EF86A
:10211000F0B200F03BF8280A00F038F8E8B200F01E
:1021200035F81437BDB22B2000F012F8280A00F061
:102130002DF8E8B200F02AF8200A00F027F8E0B203
:1021400000F024F8BDE8F0412C2000F001B80000B8
:1021500031B5002280210A48FEF7B4FD094C002267
:1021600010212046FEF7AEFD01231A4669460648B7
:10217000FFF79EFA012210212046FEF7A3FD38BD8D
:1021800000080240000002406801002031B5012231
:1021900080210A48FEF796FD094C002210212046B6
:1021A000FEF790FD01231A4669460648FFF780FABC
:1021B000012210212046FEF785FD38BD00080240AF
:1021C000000002406801002010B5FFF7CFFDBDE818
:1021D0001040FFF7EBBC704710B5FEF779FEBDE885
:1021E0001040FFF7B9BB000030B593B0302168460E
:1021F000FEF728F814210CA8FEF724F81C48002547
:10220000016841F080510160006800F08050119039
:102210001848016841F4404101600068022400F45C
:1022200040401190012000904FF4A02001906005E3
:10223000CDE9064008AA0420642182E813000B902F
:102240006846FEF7CBFF08B172B6FEE70CA90F2077
:1022500081E831004FF48050CDE90F0503210CA82F
:10226000FEF7D2FE002801D072B6FEE713B030BDF3
:1022700040380240007000400248016841F470019B
:102280000160704788ED00E070B5044600680169A0
:10229000E26821F44051114301612169A068E269BB
:1022A00008436169114308432168CA6849F20C6315
:1022B0009A430243CA6020684169A26921F44071CF
:1022C0001143416131492068884202D03049884237
:1022D00002D1FEF743FF01E0FEF730FFE269002381
:1022E000192164253226B2F5004F626828D0A0FB80
:1022F0000101930F9200FDF76DFF0146B0FBF5F071
:102300006FF01802504301EB800006EB0010B0FBA9
:10231000F5F000F0F002B1FBF5F002EB0012B1FBBA
:10232000F5F06FF01803584301EB800006EB001046
:10233000B0FBF5F000F00F0021681044886070BD1C
:10234000A0FB010192185B41FDF744FF0146B0FB81
:10235000F5F00201B1FBF5F06FF01803584301EB03
:10236000800006EBC000B0FBF5F000F0F80002EBD7
:102370004002B1FBF5F0584301EB800006EBC000D2
:10238000B0FBF5F000F00700D6E7000000100140B8
:1023900000140140FEE700000FB4084B10B504A97B
:1023A00002AA039800F02CF8044602A9002000F0CD
:1023B000D1F8204610BC5DF814FB0000552500083C
:1023C0000907090E002804DB00F1E02080F8001462
:1023D000704700F00F0000F1E02080F8141D7047F6
:1023E00002E008C8121F08C1002AFAD170477047DE
:1023F000002001E001C1121F002AFBD1704700003C
:102400002DE9FF4F89B09B460446002506E02528AC
:102410000BD05A460B999047641C6D1C20780028FD
:10242000F5D10DB02846BDE8F08F0027B84601224F
:10243000474900E0074314F8013F203B02FA03F04C
:102440000842F7D120782E2819D114F8010F47F04F
:1024500004072A280ED06FF02F022078A0F1300157
:1024600009290CD808EB880102EB410100EB0108B7
:10247000641CF2E70A98641C50F8048B0A902078D8
:102480000028CED0642808D0692806D075281ED030
:102490005A460B9990476D1C58E00A994FF00A096B
:1024A00001C90A91002802DA40422D2102E03905D3
:1024B00004D52B218DF82010012103E0F90704D069
:1024C0002021F7E78A4608AE0DE00021FAE70A99D5
:1024D0004FF00A0901C90A91F7E74946FDF7BDFE29
:1024E000303106F8011D0028F7D1ADEB060000F1F0
:1024F0002009780701D44FF00108C84502DDA8EB98
:10250000090000E000208046002706E008A85A469F
:10251000C05D0B9990476D1C7F1C5745F6DB04E0AE
:1025200030205A460B9990476D1CB8F10001A8F174
:102530000108F5DC05E016F8010B5A460B999047A7
:102540006D1CB9F10001A9F10109F4DC641C65E717
:10255000092801000A68531C0B60107070470000C6
:1025600008B5FEF7BDFCFFF73FFEFFF71FFBFFF7C7
:10257000FFFAFFF73BFCFFF7F9FBFFF71BFCFFF748
:10258000C5FAFFF7D3FBFFF78BFD0020FFF77EFDB9
:1025900000254FF6E0735FA2962132200095FFF7E9
:1025A0009FFA614C61A16548A268FFF7F5FE4FF6FE
:1025B000FF773B46614A3C2141200095FFF790FAA6
:1025C0005E485FA11430E268FFF7E6FE5B4A3B46D7
:1025D0001432502141200095FFF782FA57485CA140
:1025E00028302269FFF7D8FE544A3B46283264213E
:1025F00041200095FFF774FA594EDFF86881DFF843
:10260000689100BFD4E90220111A042903D131686E
:1026100041F480613160801A042803D1306840F4AD
:1026200080703060207840B340A14448FFF7B4FE8A
:102630003B46424A3C2141200095FFF751FA3F4872
:102640003FA11430E268FFF7A7FE3C4A3B46143234
:10265000502141200095FFF743FA38483CA128302B
:102660002269FFF799FE354A3B4628326421412012
:102670000095FFF735FA2570A570607830B3E078E3
:1026800030B1012211464046FEF71CFB012205E055
:10269000002201214046FEF715FB00220221484698
:1026A000FEF710FB207930B1012211464846FEF7B3
:1026B00009FB012205E0002201214846FEF702FB4A
:1026C000002208214046FEF7FDFA6570A079002837
:1026D00098D01A481EA128302269FFF75DFE174ADC
:1026E0003B462832642141200095FFF7F9F96079D3
:1026F000012808D0022809D0032883D15FF06400A4
:1027000000F034F87EE74FF47A70F9E74FF4FA708E
:10271000F6E7000044656661756C7420696E746547
:10272000726661636500000000000020455854494E
:10273000305F6E756D3A2025640000003000002087
:1027400045585449315F6E756D3A2025640000008C
:1027500045585449325F6E756D3A2025640000007B
:10276000103C0140000402400008024070B51C4CBF
:102770000646012211462046FEF7A4FA3046FEF72F
:1027800057F9002201212046FEF79CFA154D01223F
:1027900002212846FEF796FA3046FEF749F9002254
:1027A00002212846FEF78EFA012211462846FEF73E
:1027B00089FA3046FEF73CF9002201212846FEF74F
:1027C00081FA012208212046FEF77CFA3046FEF706
:1027D0002FF92046BDE8704000220821FEF772BAAA
:1027E0000004024000080240000610160006101601
:1027F00000000000000000000102030406070809B1
:1028000000000000010203040000000000000000BE
:102810000000000000000000000000080808080890
:10282000080800001818000000486C24120000007E
:1028300000000000000000000000002424247F129B
:1028400012127F12121200000000081C2A2A0A0C21
:102850001828282A2A1C080800000022251515150A
:102860002A585454542200000000000C1212120A7C
:1028700076252911916E0000000606040300000071
:1028800000000000000000000040201010080808B0
:10289000080808101020400000020408081010105A
:1028A00010101008080402000000000008086B1C4B
:1028B0001C6B080800000000000000000808080861
:1028C0007F08080808000000000000000000000069
:1028D00000000000060604030000000000000000E5
:1028E000FE000000000000000000000000000000EA
:1028F000000000000606000000008040402020107C
:102900001008080404020200000000182442424299
:102910004242424224180000000000080E08080845
:1029200008080808083E00000000003C424242201F
:1029300020100804427E00000000003C42422018A3
:1029400020404042221C00000000002030282424A7
:1029500022227E20207800000000007E0202021A5F
:1029600026404042221C0000000000382402021AC7
:1029700026424242241800000000007E222210104D
:1029800008080808080800000000003C42424224F1
:1029900018244242423C00000000001824424242F7
:1029A00064584040241C000000000000000018187B
:1029B00000000000181800000000000000000008DF
:1029C0000000000000080804000000402010080477
:1029D00002040810204000000000000000007F00FA
:1029E00000007F000000000000000002040810202A
:1029F00040201008040200000000003C4242464013
:102A000020101000181800000000001C225A555514
:102A100055552D42221C000000000008081814140F
:102A2000243C224242E700000000001F2222221E16
:102A300022424242221F00000000007C424201016B
:102A400001010142221C00000000001F22424242FC
:102A500042424242221F00000000003F4212121E6A
:102A600012120242423F00000000003F4212121EBA
:102A700012120202020700000000003C22220101A3
:102A800001712122221C0000000000E74242424264
:102A90007E42424242E700000000003E080808086B
:102AA00008080808083E00000000007C1010101004
:102AB000101010101010110F0000007722120A0ED3
:102AC0000A1212222277000000000007020202020E
:102AD00002020202427F00000000007736363636DE
:102AE0002A2A2A2A2A6B0000000000E346464A4AA6
:102AF00052525262624700000000001C22414141D4
:102B000041414141221C00000000003F424242423C
:102B10003E020202020700000000001C2241414167
:102B200041414D53321C60000000003F4242423E92
:102B30001212222242C700000000007C424202041E
:102B400018204042423E00000000007F490808086B
:102B500008080808081C0000000000E74242424242
:102B600042424242423C0000000000E7424222242E
:102B700024141418080800000000006B4949494952
:102B80005555362222220000000000E74224241876
:102B90001818242442E700000000007722221414B1
:102BA00008080808081C00000000007E2120101002
:102BB00008040442423F000000780808080808089A
:102BC0000808080808087800000002020404080841
:102BD0000810102020204040001E1010101010106F
:102BE0001010101010101E000038440000000000EB
:102BF00000000000000000000000000000000000D5
:102C000000000000000000FF0006080000000000B7
:102C10000000000000000000000000000000003C78
:102C20004278444242FC0000000000030202021A03
:102C300026424242261A0000000000000000003830
:102C40004402020244380000000000604040407826
:102C50004442424264D80000000000000000003CF2
:102C6000427E0202423C0000000000F08808087E1C
:102C700008080808083E0000000000000000007C72
:102C800022221C023C42423C000000030202023AA3
:102C90004642424242E700000000000C0C00000ED9
:102CA00008080808083E0000000000303000003826
:102CB000202020202020221E000000030202027299
:102CC000120A1612227700000000000E08080808F9
:102CD00008080808083E0000000000000000007F0F
:102CE0009292929292B70000000000000000003B18
:102CF0004642424242E70000000000000000003C63
:102D000042424242423C0000000000000000001B22
:102D100026424242221E0207000000000000007806
:102D200044424242447840E0000000000000007746
:102D30004C040404041F0000000000000000007C9C
:102D400042023C40423E0000000000000008083EF5
:102D500008080808083000000000000000000063B8
:102D60004242424262DC000000000000000000E736
:102D7000422424140808000000000000000000EBBA
:102D8000494955552222000000000000000000764D
:102D900024181818246E000000000000000000E74E
:102DA0004224241418080807000000000000007ED8
:102DB00022100808447E000000C02020202020109F
:102DC000202020202020C000101010101010101003
:102DD0001010101010101010000608080808081035
:102DE00008080808080806000C32C20000000000AD
:102DF0000000000000000000182E00080000002065
:102E000030000000E0230008482E000830000020B9
:102E100078060000F0230008000000000000000019
:102E200000000000000000000000000000000000A2
:102E30000000000001000000100000000000000081
:082E40000024F4001801F00069
:040000050800019955
:00000001FF
