:020000040800F2
:1000000058080020390200088B1A0008BD170008A4
:10001000891A0008590500084D1C0008000000005E
:100020000000000000000000000000008F1A00081F
:10003000E5050008000000008D1A0008911A00086C
:10004000530200085302000853020008530200083C
:10005000530200085302000853020008530200082C
:10006000530200085302000853020008530200081C
:10007000530200085302000853020008530200080C
:100080005302000853020008530200080000000059
:100090000000000000000000000000005302000803
:1000A00053020008530200085302000853020008DC
:1000B00053020008530200085302000853020008CC
:1000C00053020008530200085302000853020008BC
:1000D0005302000853020008530200080000000009
:1000E00053020008530200085302000800000000F9
:1000F00000000000000000000000000053020008A3
:1001000000000000530200085302000853020008D8
:1001100000000000000000000000000000000000DF
:100120005D0500085302000853020008530200084E
:100130005302000800000000000000000000000062
:100140000000000000000000000000005302000852
:10015000530200085302000853020008530200082B
:1001600053020008530200080000000000000000D5
:10017000000000000000000000000000000000007F
:100180000000000053020008000000000000000012
:10019000530200085302000800F002F800F03CF897
:1001A0000AA090E8000C82448344AAF10107DA45D2
:1001B00001D100F031F8AFF2090EBAE80F0013F0E8
:1001C000010F18BFFB1A43F001031847581D000028
:1001D000781D0000103A24BF78C878C1FAD85207B9
:1001E00024BF30C830C144BF04680C6070470000B1
:1001F0000023002400250026103A28BF78C1FBD830
:10020000520728BF30C148BF0B6070471FB501F0CF
:1002100073FE1FBD10B510BD00F0CFF81146FFF7FB
:10022000F5FF01F08BFD00F0EDF803B4FFF7F2FFEE
:1002300003BC00F0F5F80000094880470948004772
:10024000FEE7FEE7FEE7FEE7FEE7FEE7FEE7FEE786
:10025000FEE7FEE704480549054A064B70470000E3
:10026000311B00089901000858020020580800209E
:10027000580400205804002053EA020C00F0698062
:100280002DE9F04B4FF00006002B1FBFB3FA83F5AA
:1002900003FA05F424FA05F65E4012BF1643B2FADB
:1002A00082F502FA05F4C5F120051EBF22FA05FC0D
:1002B00044EA0C04203556EA044C4FEA144418BFB3
:1002C000641C4FF000084FF00009904271EB030CE2
:1002D00039D3002919BFB1FA81F701FA07F6B0FA4C
:1002E00080F700FA07F6C7F120071EBF20FA07FCC7
:1002F00046EA0C062037B6FBF4FCA7EB0507103FD7
:1003000007F01F0BCBF120060CFA0BFB2CFA06F6BC
:1003100044BFB3460026202FA4BF5E464FF0000B1B
:100320005BEA060C08BF4FF0010B19EB0B09ABFBA6
:10033000027C48EB0608C01B06FB02CC0BFB03CC7F
:1003400071EB0C01C1E70B46024641464846BDE849
:10035000F08B13B54FF000004FF00001AFF30080B9
:10036000BDE81C4070474FF0000200B513469446AC
:100370009646203922BFA0E80C50A0E80C50B1F1FD
:100380002001BFF4F7AF090728BFA0E80C5048BF11
:100390000CC05DF804EB890028BF40F8042B08BFAF
:1003A000704748BF20F8022B11F0804F18BF00F8AB
:1003B000012B7047704770477047754600F02CF866
:1003C000AE4605006946534620F00700854618B042
:1003D00020B5FFF73FFFBDE820404FF000064FF08B
:1003E00000074FF000084FF0000B21F00701AC466A
:1003F000ACE8C009ACE8C009ACE8C009ACE8C00989
:100400008D46704710B50446AFF300802046BDE826
:100410001040FFF70ABF000000487047F4010020B9
:1004200001491820ABBEFEE726000200704700001D
:10043000464910B54A6822F440324A604A68436827
:100440001A434A6001684A6822F480724A6001686F
:100450004A68036942EA03224A6001684A6822F056
:1004600040724A6001684A6883681A434A600168BA
:100470008A6822F400628A6001688A68C3681A4345
:100480008A60816A6FF07062D14201688A6822F0E6
:1004900070628A6001688A680CD0836A1A438A6035
:1004A00001688A6822F040528A6001688A68C36ADB
:1004B0001A4301E022F040528A6001688A6822F003
:1004C00002028A6001688A68037E42EA43028A6007
:1004D00090F82010002901684A680FD042F40062A9
:1004E0004A6001684A6822F460424A6001684A68CA
:1004F000174C436A04EB43331A4301E022F40062D1
:100500004A600168CA6A22F47002CA620168CA6A53
:10051000838B104C04EB03531A43CA6201688A6848
:1005200022F400728A6001688A6890F8303042EAEA
:1005300043228A6001688A6822F480628A600168C6
:100540008A68406942EA8020886010BD002301402B
:1005500000E0FFFF0000F0FFFEE70000014800F0B0
:100560006DB900006000002001681823CAB2103A7B
:10057000B2FBF3F2054B6FF30901032A9B5CC365E1
:1005800000D9091D8165084670470000021F000858
:1005900010B5014600208B698A6A4FF0C07453B1D0
:1005A000B3F5005F15D072B1012A0CD0022A0AD02F
:1005B000032A09D104E01AB1012A06D0022A03D184
:1005C000C96AC90100D5012010BDC96AA142FAD08B
:1005D00010BD002AF7D0012AF2D0022AF3D0032A54
:1005E000F3D010BD704772B6FEE7000078B5002466
:1005F000009490F83C20012A19D0012280F83C2078
:100600000A6807230568092A13D9EE680A3A02EB3B
:10061000420293409E43EE600B788A680A3B03EBEC
:1006200043039A400368DD682A43DA6010E0022041
:1006300078BD2E6902EB420293409E432E610B78F7
:100640008A6803EB43039A4003681D692A431A61D1
:100650004A681F23072A13D205686E6B521E02EBED
:10066000820293409E436E630A8893B20A79521EB7
:1006700002EB820293400268556B2B43536327E0E1
:1006800005680D2A12D22E6BD21F02EB8202934014
:100690009E432E630B790A88DB1F92B203EB830320
:1006A0009A4003681D6B2A431A6311E0EE6A0D3A03
:1006B00002EB820293409E43EE620B790A880D3B67
:1006C00092B203EB83039A400368DD6A2A43DA623D
:1006D0001B4B0568194A9D420AD10D68122D07D19E
:1006E000556825F400055560556845F4800555604A
:1006F00005689D421DD1134D0B68AB4201D0112BF3
:1007000017D1536823F480035360536843F4000304
:1007100053600968A9420CD10B490C4A0968B1FB26
:10072000F2F101EB8101490000E0491E009100292E
:10073000FBD180F83C40002078BD00000023014040
:1007400000200140120000101400002040420F0061
:1007500070B504004FF0000503D0206C002610B1E6
:1007600007E0012070BD204600F01CF8666484F8A4
:100770003C60206CC00610D4206C20F4885040F0FF
:10078000020020642046FFF753FE6664206C20F0D0
:10079000020040F00100206400E0012584F83C6084
:1007A000284670BD70B586B0064614216846FFF72E
:1007B000DAFD1D493068884234D11C4800250168A3
:1007C00041F480710160006800F480700590174862
:1007D0001438016841F0010101600068694600F0C9
:1007E00001000590012000900320CDE9010510488B
:1007F00000F070F9104C0F48C4E900050015A56021
:10080000C4E90350800060618000A0618011C4E9E8
:1008100007052046656200F0E1F808B1FFF7E3FE46
:10082000B463A66306B070BD0020014044380240A6
:100830000000024010640240600000202DE9F843EF
:1008400004464FF00009CDF8009063484FF416516C
:10085000A56D0068B0FBF1F72E6894F85C100820D5
:1008600000FA01F131420FD021680A6852070BD516
:100870000A6822F004020A6094F85C108840A860BC
:10088000606D40F00100606594F85C104FF0010865
:1008900008FA01F0304208D021684969090604D5F8
:1008A000A860606D40F00200606594F85C10042060
:1008B0008840304208D021680968890704D5A860BB
:1008C000606D40F00400606594F85C101020884072
:1008D000304218D021680968090714D5A86020683B
:1008E0000168490304D50068000308D5A16C07E03E
:1008F0000168C90503D4016821F008010160216C79
:1009000009B12046884794F85C1020208840304286
:1009100031D021680968C9062DD5A86094F8350042
:1009200005282068016806D0490347D50068000300
:100930001DD4616C1CE021F0160101602068416942
:1009400021F080014161206C08B9A06C20B12068C1
:10095000016821F00801016094F85C103F20884094
:10096000A86084F8358084F83490216D1FE0E16B35
:1009700009B120468847606D00282BD0606DC00704
:1009800014D0052084F835002068016821F00101A9
:1009900001600098401C0090B84203D820680068AD
:1009A000C007F6D184F8358084F83490E16C0029D2
:1009B00010D001B02046BDE8F04308470168C905E2
:1009C000D5D4016821F01001016084F8358084F8E5
:1009D0003490CCE7BDE8F883140000202DE9F04105
:1009E000044600F071F906465CB1022084F8350037
:1009F000002584F834502068016821F0010101606D
:100A00000DE00120BDE8F08100F05EF9801B0528B3
:100A100005D920206065032084F83500F2E72068BE
:100A20000068C007F0D12268116820480140D4E96D
:100A300001031843D4E90336334318436369184369
:100A4000A3691843E3691843236A18430843616A9A
:100A5000042903D1D4E90B1319430843106020681B
:100A60004069666A20F0070130460E4301270428DA
:100A70000CD1A06A0643E06A40B12046FFF788FD2A
:100A800020B14020606584F83570BAE7206846617F
:100A90002046FFF769FD94F85C203F21914081607A
:100AA000656584F835700020ACE700003F8010F0E9
:100AB00070B5044600F008F90546601C02D00448F1
:100AC0000078044400F000F9401BA042FAD370BD46
:100AD000080000202DE9F84FDFF8B8A1002201241A
:100AE00003254FF00F090AF1040BAAF1040E00BF11
:100AF0000B6804FA02F63340B34273D10F7907F062
:100B00000307012F01D0022F16D187684FEA420850
:100B100005FA08FC27EA0C07D1F80CC00CFA08FC0F
:100B20004CEA070CC0F808C04768B7430E79C6F313
:100B3000001696403E4346600E79F643B6070DD048
:100B4000C768560005FA06FC27EA0C07D1F808C06A
:100B50000CFA06FC4CEA070CC0F80CC00E7906F043
:100B60000306022E10D1D60800EB8608D8F82060C4
:100B700057074FEAD76C09FA0CF7BE430F6907FA1B
:100B80000CF73743C8F8207006684FEA420C05FAA4
:100B90000CF7BE430F7907F0030707FA0CF737434A
:100BA00007604E6816F4403F6DD03B4E376847F4FF
:100BB00080473760366822F0030706F480460096C7
:100BC000364E07EB060CDCF8086897073F0F09FA6A
:100BD00007F826EA0806DFF8C880404503D14FF041
:100BE00000081EE04FE0DFF8BC80404502D14FF026
:100BF000010816E0DFF8B080404502D14FF002084E
:100C00000FE0DFF8A880404502D14FF0030808E06C
:100C1000DFF89C80404502D14FF0040801E04FF01E
:100C2000070808FA07F848EA0608CCF80888DAF84E
:100C300000605746D1F804C09E435FEACC2C00D533
:100C40001E433E60DBF800605F46D1F804C09E435F
:100C50005FEA8C2C00D51E433E60DEF800607746CC
:100C6000D1F804C09E435FEA8C3C00D51E433E6031
:100C7000084F083F3E68D1F804C09E435FEACC3C71
:100C800000D51E433E60521C102AFFF431AFBDE870
:100C9000F88F0000083C0140443802400030014019
:100CA000000002400004024000080240000C024024
:100CB000001002400069084000D0012070470AB1CE
:100CC000816170470904FBE70148806870470000B4
:100CD0000800002070B5040025D094F83D000025E0
:100CE00020B984F83C50204600F0B8F8242084F85D
:100CF0003D002068016821F0010101602068016861
:100D000041F4004101602068016821F40041016064
:100D100000F010FA4D4A6168914201D84C4900E058
:100D20004C49884201D2012070BD4B492368B0FB79
:100D3000F1F15E6826F03F060E435E606368934201
:100D400006D94FF4967359434FF47A73B1FBF3F11C
:100D50002368491C1E6A26F03F0631431962616808
:100D6000914210D84900401EB0FBF1F2521CC2F370
:100D70000B02042A01D2042022E0B0FBF1F0401C57
:100D8000C0F30B001CE0A268F2B301EBC10303EB5C
:100D90000116431EB3FBF6F35B1C43F480431B05B3
:100DA00049D092B301EBC10202EB0111401EB0FB2E
:100DB000F1F0401CC0F30B0040F4804040F40040D0
:100DC0002168CA694CF6FF739A431043C861D4E99D
:100DD000071001432068026822F0C002114301603D
:100DE000D4E9030101432068826848F2FF339A4343
:100DF00011438160D4E9050108432168CA6822F0E3
:100E0000FF021043C86001E00EE016E020680168B0
:100E100041F0010101602564202084F83D00256334
:100E200084F83E50002070BD01EB4106431EB3FB29
:100E3000F6F35B1CB3E70120C2E701EB4101401E62
:100E4000B0FBF1F0401CC0F30B00B7E7A086010037
:100E500080841E0000093D0040420F0010B586B09E
:100E6000044614216846FFF77EFA14492068884238
:100E700021D113480021026842F00202026000689A
:100E800000F0020005904FF4C07000901220CDE9F0
:100E90000101032003900420049069460948FFF7EC
:100EA00019FE07481030016841F400110160006824
:100EB00000F40010059006B010BD00000054004082
:100EC0003038024000040240024881680278114430
:100ED00081607047080000200B4810B5016841F49C
:100EE00000710160016841F480610160016841F4B2
:100EF00080710160032000F071F8002000F006F816
:100F000000F024F8002010BD003C024070B50D4DEB
:100F100004464FF47A712878B1FBF0F00A49096869
:100F2000B1FBF0F000F0B2FB48B9102C07D2002260
:100F30002146501E00F032F800206C6070BD012088
:100F400070BD000008000020140000200B4882B093
:100F5000016841F480410160006800F48040009025
:100F60000648001F016841F080510160006800F0F0
:100F700080500090072002B000F030B844380240A2
:100F8000002809DB00F01F02012191404009800088
:100F900000F1E020C0F8001170470000F0B40E4BE3
:100FA0001B680C46C3F30223C3F10705042D00D9C7
:100FB0000425191D072901D2002300E0DB1E0126AC
:100FC00006FA05F1491E214099409E40761E1640C2
:100FD0003143F0BC00F03BBE0CED00E0064900F0F0
:100FE000070208684FF6FF03184040EA0220034A50
:100FF00010430860704700000CED00E00000FA05A7
:101000002DE9F0470E46050065D0DFF81481D8F8C9
:101010000000F7B200F00700B04207D288F8007075
:10102000D8F8000000F00700B04254D128683D4CC9
:10103000810712D5400703D5206840F4E0502060B6
:101040002878000703D5206840F4604020602068BD
:10105000A96820F0F000084320602878C0072DD050
:10106000304968680839012812D0022813D00328B3
:1010700011D00968890700292DDA216821F00301C0
:1010800001432160FFF720FE814641F2883A0EE0DD
:1010900009688903EFE709688901ECE7FFF714FEA7
:1010A000A0EB0901514502D90320BDE8F087206873
:1010B000696800F00C00B0EB810FEFD1D8F8001098
:1010C000404601F00701B14207D90770006800F0FF
:1010D0000700B04201D00120E7E72878400705D596
:1010E0002068E96820F4E050084320602878000771
:1010F00006D52068296920F4604040EAC1002060DC
:1011000000F038F82168084AC1F30311515CC84067
:101110000649086006480068FFF7F8FE0020C4E7AB
:10112000003C0240083802400A1F0008140000205A
:101130000C0000200448054900680968044AC1F30E
:101140008221515CC84070471400002008380240DA
:101150001A1F00080448054900680968044AC1F3D9
:101160004231515CC84070471400002008380240EA
:101170001A1F0008154810B5006810F00C0214483A
:1011800013D04110042A0FD0082A0ED10F4C241F6F
:101190002268236802F03F025B0207D52068C0F393
:1011A0008810A0FB010106E0084610BD2168C1F3CC
:1011B0008811A1FB00010023FFF75EF82168C1F34D
:1011C0000141491C4900B0FBF1F010BD0838024054
:1011D0000024F4002DE9F84F04006ED02078DFF8E9
:1011E0004C93C007A9F104054AD009F10400016835
:1011F000C1F38101012908D00068C0F381000228F1
:101200000AD1D9F80000400206D52868800337D5F6
:1012100060680028E1D033E06068B0F5803F10D00E
:10122000B0F5A02F286810D020F4803028602868FE
:1012300020F4802028606068A8B1FFF745FD0646CD
:101240000DE0286840F48030F4E740F48020286006
:10125000F7E700BFFFF738FD801B642873D82868C4
:101260008003F7D50CE0FFF72FFD064605E000BF31
:10127000FFF72AFD801B6428F0D828688003F7D484
:101280002078DFF8AC8280074FF0000A3ED5A748EF
:10129000001D016811F00C0F08D00068C0F3810038
:1012A00002280BD1D9F80000400207D42868800733
:1012B00016D5E068012800D112E033E1E068B8B14A
:1012C0000120C8F80000FFF7FFFC064605E000BF5C
:1012D000FFF7FAFC801B0228C0D828688007F7D5E2
:1012E0002868216920F0F80040EAC10028600DE07C
:1012F000C8F800A0FFF7E8FC064604E0FFF7E4FCAE
:10130000801B02281FD828688007F7D420780007A0
:1013100022D5864F87486169703771B1012101601C
:10132000FFF7D2FC064604E0FFF7CEFC801B022844
:1013300009D838688007F7D50EE0C0F800A0FFF79D
:10134000C3FC064605E082E0FFF7BEFC801B0228D6
:101350007DD838688007F7D42078400768D5DFF853
:10136000CCB100270BF13C0BDBF80000C0000BD424
:10137000DBF8001041F08051CBF80010DBF80000E2
:10138000012700F0805000906B4E3068C00510D4EB
:10139000306840F480703060FFF796FC009005E004
:1013A000FFF792FC0099401A022850D83068C00517
:1013B000F6D55E4EA0686C3601280FD0052830683F
:1013C00010D020F001003060306820F00400306060
:1013D000A068B8B1FFF778FC00900FE0306840F0EB
:1013E0000100F4E740F004003060F7E7FFF76CFC21
:1013F0000099411A41F28830814266D830688007EE
:10140000F4D50EE0FFF760FC009007E0FFF75CFC0E
:101410000099411A41F28830814256D830688007DD
:10142000F4D42FB1DBF8001021F08051CBF800107C
:10143000A069C8B33D49091D0968C1F381010229AA
:101440004AD00228504607D0C8F8600000E03CE0CF
:10145000FFF73AFC04463BE04746C8F86000FFF758
:1014600033FC064605E000BFFFF72EFC801B022878
:101470002BD828688001F7D4D4E907010843A16A72
:101480002E4A490802EB0141626A41EA821108438F
:1014900094F82C1040EA0161C9F800100120386668
:1014A000FFF712FC044606E03EE000BFFFF70CFC2D
:1014B000001B022809D828688001F7D534E000BF56
:1014C000FFF702FC001B022802D90320BDE8F88FB9
:1014D00028688001F4D427E00128F7D0D9F800006B
:1014E000E26900F4800191421CD1226A00F03F01C0
:1014F000914217D147F6C071626A0140B1EB821F79
:1015000010D1A26A4FF0FF3300F4403103EB5202D6
:10151000B1EB024F06D194F82C1000F07060B0EBE4
:10152000016F01D00120D1E70020CFE7043802404D
:1015300000004742800E4742007000400000FFFF5D
:1015400070B5040009D0606A002540B1256165616D
:10155000A56294F8510040B10CE0012070BD6068B4
:10156000B0F5827FF4D0E561F2E784F85050204670
:1015700000F044F8022084F851002068016821F04E
:1015800040010160A088218900F4827001F40441C7
:101590000843A18901F400610843217C01F00201A4
:1015A0000843217D01F001010843218B01F4007102
:1015B0000843217F01F03801084394F8201001F01E
:1015C00080010843218D01F400510843216808601F
:1015D000A069042101EA104094F8241001F01001E0
:1015E0000843216848602068C16921F40061C16135
:1015F0006565012084F85100002070BD10B586B0EB
:10160000044614216846FEF7AEFE1349206888425E
:1016100020D112480021026842F480520260006822
:1016200000F4805005900D481438026842F0010221
:101630000260006800F001000590A02000900220E8
:10164000CDE9010103200390052004906946044878
:10165000FFF740FA06B010BD0030014044380240A8
:1016600000000240084890F90000012807D0022835
:1016700005D0032805D0042805D100F075BB00F083
:101680009FBB00F095BB70470000002010B5401EC6
:10169000B0F1807F01D3012010BD4FF0E0246061E4
:1016A0000F21601700F0D3FA0020A061072020610D
:1016B000002010BD10B5FFF7D5FF10BD70B50400B8
:1016C00004D094F83D00002510B106E0012070BD63
:1016D00084F83C50204600F023F8242084F83D0094
:1016E0002068C16821F40051C160204600F028FA4A
:1016F0002068016921F4904101612068416921F06D
:101700002A0141612068C16841F40051C16025642B
:10171000202084F83D0084F83E00002070BD0000C9
:10172000F0B587B0044614216846FEF71CFE1F4F33
:10173000236800221E490224032507261D48BB42B8
:1017400013D11B4B14331F6847F010071F601B6831
:1017500003F0100305930B6843F001030B60096865
:1017600001F001010591690215E0134FBB421AD146
:101770000F4B10331F6847F400371F601B6803F4DA
:10178000003305930B6843F001030B60096801F017
:10179000010105910C21CDE9001402AB694683E8F3
:1017A0006400FFF797F907B0F0BD0000001001409A
:1017B000303802400000024000440040FEE70000D4
:1017C0007FB50025154800950195029512490395AE
:1017D000016001244FF480310461C0E901150476F1
:1017E00080F820500E49C0E90A15C560C46180F830
:1017F00030404461FEF7ACFF08B1FEF7F4FECDE9DE
:101800000054694605480295FEF7F0FE002801D015
:10181000FEF7E9FE7FBD0000002001401800002017
:101820000100000F094808B5016841F4800101601A
:101830000068002200F48000009011463820FFF775
:10184000ADFBBDE808403820FFF79ABB30380240B6
:101850002DE9F04387B014216846FEF784FD48481F
:101860000025016841F004010160016801F00401F4
:101870000591016841F080010160016801F080017B
:101880000591016841F001010160016801F0010169
:101890000591016841F0020101600068394F00F0D4
:1018A00002000590002283213846FFF708FADFF88E
:1018B000D880002212214046FFF701FADFF8CC90D1
:1018C000002249214846FFF7FAF94FF400500090F2
:1018D0004FF40410CDE9010569463846FFF7FAF8E0
:1018E00001240326CDE9006469463846CDE9024566
:1018F000FFF7F0F80220CDE9000469464046CDE943
:101900000245FFF7E7F810208DE871006946404670
:10191000FFF7E0F80920CDE9000469464846CDE923
:101920000245FFF7D7F84FF48260CDE9000569461C
:1019300002944846FFF7CEF880208DE87100694692
:101940003846FFF7C7F82002CDE900056946029442
:101950004046FFF7BFF8202000904FF48810CDE9F3
:10196000010469464846FFF7B5F840208DE871004C
:1019700069464846FFF7AEF807B0BDE8F0830000BF
:1019800030380240000802400000024000040240DB
:101990000D4810B50B4901600C49416000214FF41E
:1019A00080428160C0E9031241618161C1610162CD
:1019B000FFF790F9002803D0BDE81040FEF713BEF2
:1019C00010BD000000540040C0000020A0860100AF
:1019D000104810B50E4901604FF4827141604FF418
:1019E000004181600021C1604FF400720161C0E9D3
:1019F0000512C1610162416281620A21C162FFF781
:101A00009FFD002803D0BDE81040FEF7ECBD10BDDF
:101A100000300140140100200C4810B50A49016053
:101A20004FF4E1314160002181600C22C160C0E9C6
:101A300004128161C161FFF741FE002803D0BDE8B7
:101A40001040FEF7D0BD10BD001001406C01002019
:101A50000C4810B50A4901604FF4E13141600021A2
:101A600081600C22C160C0E904128161C161FFF78D
:101A700025FE002803D0BDE81040FEF7B4BD10BD20
:101A800000440040B0010020FEE7FEE770477047C9
:101A900010B5FFF719FABDE81040FFF70BBE0000C4
:101AA00030B593B030216846FEF75DFC14210CA8D8
:101AB000FEF759FC1C480024016841F08051016088
:101AC000006800F0805011901848016841F44041CE
:101AD00001600068022500F440401190012003904D
:101AE0001020009506950490CDE907404FF4A870AA
:101AF000099004200A900B906846FFF76BFB08B131
:101B000072B6FEE70F20CDE90C054FF48050CDE909
:101B10000E4002210CA81094FFF772FA002801D0A1
:101B200072B6FEE713B030BD40380240007000408E
:101B30000248016841F470010160704788ED00E0DF
:101B400070B5044600680169E26821F44051114310
:101B500001612169A068E269084361691143084392
:101B60002168CA6849F20C639A430243CA6020683C
:101B70004169A26921F440711143416131492068F2
:101B8000884202D03049884202D1FFF7E3FA01E0EF
:101B9000FFF7D0FAE2690023192164253226B2F555
:101BA000004F626828D0A0FB0101930F9200FEF75E
:101BB00063FB0146B0FBF5F06FF01802504301EBF8
:101BC000800006EB0010B0FBF5F000F0F002B1FB76
:101BD000F5F002EB0012B1FBF5F06FF0180358437B
:101BE00001EB800006EB0010B0FBF5F000F00F00F9
:101BF00021681044886070BDA0FB010192185B4110
:101C0000FEF73AFB0146B0FBF5F00201B1FBF5F03F
:101C10006FF01803584301EB800006EBC000B0FBE7
:101C2000F5F000F0F80002EB4002B1FBF5F058438C
:101C300001EB800006EBC000B0FBF5F000F0070000
:101C4000D6E700000010014000140140FEE709073C
:101C5000090E002804DB00F1E02080F80014704732
:101C600000F00F0000F1E02080F8141D7047000024
:101C70002DE9F0412E4E4FF4807421463046FFF797
:101C800019F82C4D2C4FB0B91420FEF711FF214646
:101C90003046FFF70FF870B921463046FFF70AF8D3
:101CA0000028F9D000F060F8012211463846FFF70D
:101CB00006F8012028704FF4806631463C463846CD
:101CC000FEF7F8FF80B91420FEF7F2FE31462046F9
:101CD000FEF7F0FF40B900F047F801220821204646
:101CE000FEF7EDFF0220287010212046FEF7E2FFEC
:101CF00058B91420FEF7DCFE10212046FEF7DAFF6B
:101D000018B900F031F80320287020212046FEF792
:101D1000D1FF00280AD11420FEF7CAFE2021204658
:101D2000FEF7C8FF002801D104202870BDE8F0812B
:101D3000000002400000002000040240FFF7CCF841
:101D4000FFF7AEFEFFF784FDFFF76CFDFFF780FEA7
:101D5000FFF73EFEFFF760FEFFF732FDFFF718FECC
:101D6000FFF786FFFCE7000070B5002202210D4856
:101D7000FEF7A5FF0C4C002201212046FEF79FFF35
:101D80000A4D002202212846FEF799FF0022012178
:101D90002846FEF794FF2046BDE870400022082147
:101DA000FEF78DBF00000240000402400008024020
:101DB000012202210148FEF782BF0000000002401C
:101DC0002DE9F047494C0546DFF8249120680121B0
:101DD000401C20604846FEF76DFF0026DFF81481A6
:101DE0004FF4FA77012821D002214046FEF762FF26
:101DF00001283BD001214046FEF75CFF01284CD072
:101E000008214846FEF756FF01282DD1012D60D04C
:101E1000022D29D12068B84226D90022082148463F
:101E2000FEF74DFF0122114640461AE0012D0DD06C
:101E3000022D19D12068B84216D9002201214D4641
:101E40004846FEF73CFF012208214DE02068322879
:101E50000AD9002201214846FEF731FF0122022162
:101E6000E2E7FEF72CFF2660BDE8F087012D0CD0DD
:101E7000022DF9D12068B842F6D90022022140464D
:101E8000FEF71DFF0122114621E020683228EBD920
:101E9000002202214546404622E0012D0DD0022DB0
:101EA000E2D12068B842DFD90022012145464046F0
:101EB000FEF705FF0122022116E020683228D3D95F
:101EC000002201214046FEF7FAFE01220821484681
:101ED000C7E720683228C7D9002208214D46484666
:101EE000FEF7EDFE012211462846BAE70400002065
:101EF00000040240000802404FF04070E1EE100A7A
:101F000070470006101600061016000000000000C2
:101F10000000010203040607080900000000010296
:101F200003040000441F0008000000201800000007
:101F3000D40100085C1F00081800002040080000C1
:101F4000F001000800000000000000000100000097
:0C1F500010000000000000000024F4005D
:040000050800019955
:00000001FF
