:020000040800F2
:10000000B0080020B10100085F2F0008312A000865
:100010005D2F0008ED0900086D38000800000000A1
:100020000000000000000000000000000F33000886
:10003000AD0A000800000000612F0008113300081D
:10004000CB010008CB010008CB010008CB01000860
:10005000CB010008CB010008CB010008CB01000850
:10006000CB010008CB010008C50A0008CB0100083D
:10007000CB010008CB010008CB010008CB01000830
:10008000CB010008CB010008CB01000800000000F4
:10009000000000000000000000000000CB0A000883
:1000A000CB010008CB010008CB010008CB01000800
:1000B000CB010008C1330008CB010008CB010008C8
:1000C000CB010008CB010008CB010008CB010008E0
:1000D000CB010008CB010008CB01000800000000A4
:1000E000AF0A0008CB010008CB01000800000000A7
:1000F000000000000000000000000000CB0100082C
:1001000000000000CB010008CB010008CB01000873
:1001100000000000000000000000000000000000DF
:10012000F1090008CB010008FD090008CB01000817
:10013000CB010008000000000000000000000000EB
:10014000000000000000000000000000CB010008DB
:10015000CB010008CB010008CB010008CB0100084F
:10016000CB010008CB0100080000000000000000E7
:10017000000000000000000000000000000000007F
:1001800000000000CB01000800000000000000009B
:10019000CB010008CB010008DFF810D000F026FBEF
:1001A000004800476D410008AFF30080B008002010
:1001B0000648804706480047FEE7FEE7FEE7FEE701
:1001C000FEE7FEE7FEE7FEE7FEE7FEE7B1330008E5
:1001D000990100082DE9F05F0546002092469B46F4
:1001E00088460646814640241BE02846414647464D
:1001F000224600F080F953465A46C01A914110D366
:1002000011461846224600F067F92D1A67EB0108DF
:100210004F4622460120002100F05EF917EB00094D
:100220004E41201EA4F10104DFDC484631462A4637
:100230004346BDE8F09FD2B201E000F8012B491E11
:10024000FBD270470022F6E710B513460A46044673
:100250001946FFF7F0FF204610BD2DE9FE4F81EA59
:10026000030404F0004421F0004100944FF0000B1F
:1002700023F0004350EA01045ED052EA03045BD04D
:10028000C3F30A54C1F30A552C44A4F2F334019485
:10029000A0FB0254C1F3130141F48011C3F3130313
:1002A00043F4801301FB024400FB034E840A970AC7
:1002B00044EA815447EA8357A4FB076802958D0AF4
:1002C00005FB07854FEA932C04FB0C542705029D80
:1002D0004FEA065847EA1637B5EB08056EEB070CF0
:1002E000870E920E47EA811742EA8312A7FB0201AA
:1002F000B6EB0B0164EB00042B0D43EA0C335E18E4
:1003000044EB1C50DA465146E7FB0201C5F31304E7
:100310004FEA0B3343EA14534FEA0432019C43EA99
:100320000603A4F10C040294009CCDE900B400F093
:1003300038F903B0BDE8F08F00200146F9E72DE958
:10034000F04D81EA030404F0004B21F0004514460F
:100350004FF0000A23F0004150EA050220D054EA91
:1003600001021DD0C5F30A570246C5F31303C1F3BA
:100370001300C1F30A5640F4801543F48013A7EB31
:100380000608101BD64608F2FD3873EB050002D3B1
:1003900008F1010801E092185B41B8F1000F03DA9F
:1003A00000200146BDE8F08D00204FF48011064684
:1003B00084460EE0171B73EB050705D3121B63EB96
:1003C000050306434CEA010C49084FEA3000921835
:1003D0005B4150EA0107EDD152EA030012D082EAF4
:1003E000040083EA0501084305D0101BAB4106D287
:1003F0000122002306E000224FF0004302E06FF0EC
:10040000010253101AEB06004CEB085110EB0A00E6
:1004100041EB0B01BDE8F04D00F0B4B8C1F30A5256
:1004200010B5C1F3130140F2FF3341F480119A4239
:1004300001DA002010BD40F233439A42A2F2334267
:1004400003DC524200F057F810BD904010BD00F0A0
:10045000004230F000400AD0C10D01F56071C0F3D8
:10046000160042EA0151C2084007114370470020BC
:100470000146704701F0004330B421F0004150EADA
:10048000010206D00A0DA2F56072C1F31301002A21
:1004900002DC30BC00207047440F44EAC104C100B4
:1004A000E01830BC00EBC25000F035B830B50B4658
:1004B000014600202022012409E021FA02F59D4294
:1004C00005D303FA02F5491B04FA02F52844151E68
:1004D000A2F10102F1DC30BD202A04DB203A00FA4F
:1004E00002F1002070479140C2F1200320FA03F38B
:1004F000194390407047202A04DB203A21FA02F089
:100500000021704721FA02F3D040C2F1200291404D
:100510000843194670470029A8BF7047401C49008E
:1005200008BF20F00100704710B4B0FA80FC00FA58
:100530000CF050EA010404BF10BC704749B1CCF183
:10054000200421FA04F411FA0CF118BF012121430F
:100550000843A3EB0C01CB1D4FEA00614FEA1020CA
:1005600042BF002010BC704700EBC350104400296C
:10057000A4BF10BC7047401C490008BF20F0010018
:1005800010BC704710B5141E73F1000408DA401C4B
:1005900041F1000192185B411A4301D120F00100A2
:1005A00010BD2DE9F04D92469B4611B1B1FA81F292
:1005B00002E0B0FA80F220329046FFF78DFF044649
:1005C0000F4640EA0A0041EA0B0153465A460843E7
:1005D00013D0114653EA010019D0C8F14002504629
:1005E000FFF789FF05460E46504659464246FFF73B
:1005F00073FF084305D0012004E020463946BDE8DA
:10060000F08D0020054346EAE0762C4337430A98F4
:100610006305E40AA0EB08000022FD0A44EA4754FF
:100620000A3002D500200146E9E7010510196941A9
:10063000DDE9084500196941BDE8F04DA2E72DE963
:10064000FE4F804681EA0300C00F0C46009021F067
:10065000004123F00045B8EB0200A94105D2404615
:10066000214690461C460B46024623F000401043AC
:1006700047D0270DC7F30A00C3F30A510290401A6E
:10068000019040286BDAC3F3130040F4801B0098FC
:10069000924620B10023D2EB030A63EB0B0B0198C7
:1006A0005946C0F140025046FFF716FF06460D4678
:1006B00050465946019A00F0ABF810EB0800614132
:1006C000002487EA115284EAE7731A4340D0009A63
:1006D00062B3019A012A4FEA075215DC001B61EB55
:1006E00002014FF0004202EA0752CDE90042001C2D
:1006F00041F5801132462B46FFF753FF03B0BDE8AA
:10070000F08F40462146F9E7001B61EB0201001C17
:1007100041F5801300185B412018A2F5001747EB44
:10072000030140EAD570B6196D4111E06D084FEA3A
:10073000360645EAC0754FEA0752001B61EB02011D
:10074000001C41F5801149084FEA30000019514161
:1007500032462B4603B0BDE8F04FFFF713BF0098B9
:10076000012240000023D0EB020263EBE07300980B
:1007700021464FEAE074B8EB000061EB0401E9E7C1
:1007800083F000435BE781F0004158E7C1F30A5270
:10079000C1F3130140F2FF3341F480119A4202DAAF
:1007A00000200146704740F233439A42A2F233429E
:1007B00002DC5242FFF79FBEFFF78EBE30B5041E2B
:1007C00071F1000404DB4FF00044404264EB01018E
:1007D000141E73F1000405DB1C464FF00043524227
:1007E00063EB0403994208BF904230BD064C074DAD
:1007F00006E0E06840F0010394E8070098471034F1
:10080000AC42F6D3FFF7CCFC944A0008B44A000887
:10081000202A06DBCB17203A41FA02F043EAE073C4
:1008200006E041FA02F3D040C2F1200291400843B1
:100830001946704710B50146806B026C12F0500FDC
:1008400005D0026CD20626D500F0FAF910BD016C75
:1008500041F40071016401688A6812F0405F17D1A9
:10086000027EAAB9CA6A12F4700F02D08A685205D1
:100870000ED44A6822F020024A60016C21F4807193
:100880000164016CC90403D4016C41F001010164ED
:1008900000F0D4F910BD806BC26CBDE81040084672
:1008A000104710B5806B40210164416C41F0040198
:1008B000416400F0C5F910BD10B5806B00F0BFF9C0
:1008C00010BD0000464910B54A6822F440324A6023
:1008D0004A6843681A434A6001684A6822F4807291
:1008E0004A6001684A68036942EA03224A60016873
:1008F0004A6822F040724A6001684A6883681A4375
:100900004A6001688A6822F400628A6001688A6825
:10091000C3681A438A60816A6FF07062D1420168CD
:100920008A6822F070628A6001688A680CD0836AE3
:100930001A438A6001688A6822F040528A6001681E
:100940008A68C36A1A4301E022F040528A60016853
:100950008A6822F002028A6001688A68037E42EA9D
:1009600043028A6090F82010002901684A680FD07D
:1009700042F400624A6001684A6822F460424A60B8
:1009800001684A68174C436A04EB43331A4301E099
:1009900022F400624A600168CA6A22F47002CA62E4
:1009A0000168CA6A838B104C04EB03531A43CA6272
:1009B00001688A6822F400728A6001688A6890F887
:1009C000303042EA43228A6001688A6822F48062F9
:1009D0008A6001688A68406942EA8020886010BDA8
:1009E0000023014000E0FFFF0000F0FFFEE70000F1
:1009F000014800F02FBA000028020020014800F052
:100A000029BA00003403002001681823CAB2103A42
:100A1000B2FBF3F2054B6FF30901032A9B5CC3653C
:100A200000D9091D8165084670470000844400080C
:100A300010B5014600208B698A6A4FF0C07453B12B
:100A4000B3F5005F15D072B1012A0CD0022A0AD08A
:100A5000032A09D104E01AB1012A06D0022A03D1DF
:100A6000C96AC90100D5012010BDC96AA142FAD0E6
:100A700010BD002AF7D0012AF2D0022AF3D0032AAF
:100A8000F3D010BD30B50468256825F480252560B5
:100A9000046863608368402B036803D09960006832
:100AA000C26030BD9A600068C16030BD704710B54B
:100AB0004FF4806000F054FBBDE810404FF400504C
:100AC00000F04EBB102000F04BBB4FF4807000F0E4
:100AD00047BB72B6FEE7000078B50024009490F89A
:100AE0003C20012A19D0012280F83C200A68072303
:100AF0000568092A13D9EE680A3A02EB42029340CC
:100B00009E43EE600B788A680A3B03EB43039A40EE
:100B10000368DD682A43DA6010E0022078BD2E69A0
:100B200002EB420293409E432E610B788A6803EBEE
:100B300043039A4003681D692A431A614A681F23C8
:100B4000072A13D205686E6B521E02EB8202934095
:100B50009E436E630A8893B20A79521E02EB8202A8
:100B600093400268556B2B43536327E005680D2AB9
:100B700012D22E6BD21F02EB820293409E432E6351
:100B80000B790A88DB1F92B203EB83039A40036858
:100B90001D6B2A431A6311E0EE6A0D3A02EB8202E2
:100BA00093409E43EE620B790A880D3B92B203EBB1
:100BB00083039A400368DD6A2A43DA621B4B0568A7
:100BC000194A9D420AD10D68122D07D1556825F4A6
:100BD00000055560556845F48005556005689D42DF
:100BE0001DD1134D0B68AB4201D0112B17D15368A7
:100BF00023F480035360536843F40003536009688F
:100C0000A9420CD10B490C4A0968B1FBF2F101EB86
:100C10008101490000E0491E00910029FBD180F8C4
:100C20003C40002078BD000000230140002001402E
:100C3000120000102000002040420F007047704753
:100C4000704770B504004FF0000503D0206C0026FB
:100C500010B107E0012070BD204600F01DF8666469
:100C600084F83C60206CC00610D4206C20F48850BE
:100C700040F0020020642046FFF724FE6664206CEA
:100C800020F0020040F00100206400E0012584F81B
:100C90003C60284670BD000070B586B00646142141
:100CA0006846FFF7CFFA1D493068884234D11C48A6
:100CB0000025016841F480710160006800F48070D3
:100CC000059017481438016841F00101016000687F
:100CD000694600F001000590012000900320CDE955
:100CE0000105104800F048FA104C0F48C4E900050F
:100CF0000015A560C4E90350800060618000A06118
:100D00008011C4E907052046656200F073F908B157
:100D1000FFF7DFFEB463A66306B070BD002001409C
:100D200044380240000002401064024028020020C3
:100D3000F8B5044600200E46009094F83C100129B6
:100D400007D0012184F83C1021688B68DB0702D0B2
:100D500011E00220F8BD8B6843F001038B60364937
:100D6000364B0968B1FBF3F101EB410100E0491E8C
:100D700000910029FBD121688B68DB0503D58B68C6
:100D800023F480738B6021688B68DB0749D0236C68
:100D900040F20165AB4343F480732364496849051D
:100DA00005D5216C21F4005141F480512164216C5E
:100DB000C90404D5616C21F00601616400E060643F
:100DC00084F83C00A16B1F481D4DC863A16B1E48F1
:100DD0000864A16B1D48C86421686FF02200086098
:100DE0002068416841F0806141602068816841F479
:100DF000807181602168134632464C31A06B00F04F
:100E000063F96868C006206802D01149884210D191
:100E1000816811F0405F0CD1816841F080418160B0
:100E200007E0206C40F010002064606C40F001008E
:100E300060640020F8BD00002000002040420F0048
:100E40000023014035080008B9080008A30800087D
:100E5000002001402DE9F84304464FF00009CDF889
:100E6000009063484FF41651A56D0068B0FBF1F790
:100E70002E6894F85C10082000FA01F131420FD07E
:100E800021680A6852070BD50A6822F004020A603A
:100E900094F85C108840A860606D40F001006065C7
:100EA00094F85C104FF0010808FA01F0304208D0C5
:100EB00021684969090604D5A860606D40F0020008
:100EC000606594F85C1004208840304208D02168A6
:100ED0000968890704D5A860606D40F0040060656A
:100EE00094F85C1010208840304218D021680968BE
:100EF000090714D5A86020680168490304D5006873
:100F0000000308D5A16C07E00168C90503D4016896
:100F100021F008010160216C09B12046884794F84E
:100F20005C1020208840304231D021680968C90611
:100F30002DD5A86094F8350005282068016806D0F2
:100F4000490347D5006800031DD4616C1CE021F003
:100F5000160101602068416921F080014161206C27
:100F600008B9A06C20B12068016821F00801016077
:100F700094F85C103F208840A86084F8358084F89D
:100F80003490216D1FE0E16B09B120468847606D08
:100F900000282BD0606DC00714D0052084F83500E0
:100FA0002068016821F0010101600098401C009058
:100FB000B84203D820680068C007F6D184F83580AD
:100FC00084F83490E16C002910D001B02046BDE8CF
:100FD000F04308470168C905D5D4016821F0100124
:100FE000016084F8358084F83490CCE7BDE8F8835C
:100FF000200000202DE9F041044600F0B7F9064634
:101000005CB1022084F83500002584F83450206853
:10101000016821F0010101600DE00120BDE8F081CF
:1010200000F0A4F9801B052805D920206065032065
:1010300084F83500F2E720680068C007F0D1226824
:10104000116820480140D4E901031843D4E903366C
:101050003343184363691843A3691843E36918438A
:10106000236A18430843616A042903D1D4E90B13A6
:1010700019430843106020684069666A20F0070140
:1010800030460E43012704280CD1A06A0643E06ACB
:1010900040B12046FFF7CCFC20B14020606584F8C9
:1010A0003570BAE7206846612046FFF7ADFC94F83A
:1010B0005C203F2191408160656584F83570002097
:1010C000ACE700003F8010F02DE9F0410446866D4A
:1010D00090F83400002501280DD0012084F8340058
:1010E00094F835700020012F07D084F834000225D1
:1010F0002846BDE8F0810220FBE7022784F835701E
:1011000060652046FFF7BEFC94F85C103F208840E5
:10111000B0602068016841F016010160206C20B1C8
:101120002068016841F0080101602068016841F011
:1011300001010160DCE7000070B5044600F016F91B
:101140000546601C02D004480078044400F00EF903
:10115000401BA042FAD370BD14000020704700006D
:10116000044910B50A68024202D00860FFF7F6FF92
:1011700010BD0000143C01402DE9F84FDFF8B8A184
:101180000022012403254FF00F090AF1040BAAF1F4
:10119000040E00BF0B6804FA02F63340B34273D169
:1011A0000F7907F00307012F01D0022F16D18768AE
:1011B0004FEA420805FA08FC27EA0C07D1F80CC0F0
:1011C0000CFA08FC4CEA070CC0F808C04768B743A3
:1011D0000E79C6F3001696403E4346600E79F643FC
:1011E000B6070DD0C768560005FA06FC27EA0C07BB
:1011F000D1F808C00CFA06FC4CEA070CC0F80CC089
:101200000E7906F00306022E10D1D60800EB8608F0
:10121000D8F8206057074FEAD76C09FA0CF7BE439D
:101220000F6907FA0CF73743C8F8207006684FEAD1
:10123000420C05FA0CF7BE430F7907F0030707FAD3
:101240000CF7374307604E6816F4403F6DD03B4EB5
:10125000376847F480473760366822F0030706F4A2
:1012600080460096364E07EB060CDCF808689707B8
:101270003F0F09FA07F826EA0806DFF8C88040455C
:1012800003D14FF000081EE04FE0DFF8BC8040457E
:1012900002D14FF0010816E0DFF8B080404502D1DE
:1012A0004FF002080FE0DFF8A880404502D14FF070
:1012B000030808E0DFF89C80404502D14FF00408A5
:1012C00001E04FF0070808FA07F848EA0608CCF8EA
:1012D0000888DAF800605746D1F804C09E435FEAF8
:1012E000CC2C00D51E433E60DBF800605F46D1F891
:1012F00004C09E435FEA8C2C00D51E433E60DEF89E
:1013000000607746D1F804C09E435FEA8C3C00D56C
:101310001E433E60084F083F3E68D1F804C09E431C
:101320005FEACC3C00D51E433E60521C102AFFF4FD
:1013300031AFBDE8F88F0000083C0140443802405E
:10134000003001400000024000040240000802405A
:10135000000C0240001002400069084000D001204B
:1013600070470AB1816170470904FBE70148806852
:10137000704700001400002070B5040025D094F8D8
:101380003D00002520B984F83C50204600F0B8F814
:10139000242084F83D002068016821F001010160EB
:1013A0002068016841F4004101602068016821F46F
:1013B0000041016000F010FA4D4A6168914201D885
:1013C0004C4900E04C49884201D2012070BD4B4994
:1013D0002368B0FBF1F15E6826F03F060E435E60C5
:1013E0006368934206D94FF4967359434FF47A7366
:1013F000B1FBF3F12368491C1E6A26F03F06314316
:1014000019626168914210D84900401EB0FBF1F2A8
:10141000521CC2F30B02042A01D2042022E0B0FBCA
:10142000F1F0401CC0F30B001CE0A268F2B301EB2A
:10143000C10303EB0116431EB3FBF6F35B1C43F43D
:1014400080431B0549D092B301EBC10202EB0111AD
:10145000401EB0FBF1F0401CC0F30B0040F4804094
:1014600040F400402168CA694CF6FF739A43104368
:10147000C861D4E9071001432068026822F0C00265
:1014800011430160D4E9030101432068826848F2F6
:10149000FF339A4311438160D4E905010843216871
:1014A000CA6822F0FF021043C86001E00EE016E0B7
:1014B0002068016841F0010101602564202084F862
:1014C0003D00256384F83E50002070BD01EB4106CD
:1014D000431EB3FBF6F35B1CB3E70120C2E701EB4D
:1014E0004101401EB0FBF1F0401CC0F30B00B7E718
:1014F000A086010080841E0000093D0040420F00CC
:1015000010B586B0044614216846FEF79BFE1449C8
:101510002068884221D113480021026842F002026B
:101520000260006800F0020005904FF4C070009067
:101530001220CDE9010103200390042004906946A4
:101540000948FFF719FE07481030016841F40011FF
:101550000160006800F40010059006B010BD0000A6
:1015600000540040303802400004024002488168C4
:101570000278114481607047140000200B4810B5B8
:10158000016841F400710160016841F4806101600B
:10159000016841F480710160032000F071F80020BF
:1015A00000F006F800F024F8002010BD003C0240D6
:1015B00070B50D4D04464FF47A712878B1FBF0F008
:1015C0000A490968B1FBF0F000F0F8FC48B9102CAA
:1015D00007D200222146501E00F032F800206C6035
:1015E00070BD012070BD000014000020200000200C
:1015F0000B4882B0016841F480410160006800F44A
:10160000804000900648001F016841F08051016051
:10161000006800F080500090052002B000F030B863
:1016200044380240002809DB00F01F0201219140EC
:101630004009800000F1E020C0F800117047000070
:10164000F0B40E4B1B680C46C3F30223C3F107052D
:10165000042D00D90425191D072901D2002300E01B
:10166000DB1E012606FA05F1491E214099409E40E5
:10167000761E16403143F0BC02F00EB90CED00E0CE
:10168000064900F0070208684FF6FF03184040EAD9
:101690000220034A10430860704700000CED00E090
:1016A0000000FA052DE9F0470E46050065D0DFF889
:1016B0001481D8F80000F7B200F00700B04207D25A
:1016C00088F80070D8F8000000F00700B04254D14C
:1016D00028683D4C810712D5400703D5206840F4A7
:1016E000E05020602878000703D5206840F460406F
:1016F00020602068A96820F0F00008432060287866
:10170000C0072DD0304968680839012812D0022856
:1017100013D0032811D00968890700292DDA216820
:1017200021F0030101432160FFF720FE814641F2D1
:10173000883A0EE009688903EFE709688901ECE758
:10174000FFF714FEA0EB0901514502D90320BDE8C3
:10175000F0872068696800F00C00B0EB810FEFD1D2
:10176000D8F80010404601F00701B14207D90770D0
:10177000006800F00700B04201D00120E7E72878B8
:10178000400705D52068E96820F4E0500843206050
:101790002878000706D52068296920F4604040EACF
:1017A000C100206000F038F82168084AC1F3031135
:1017B000515CC8400649086006480068FFF7F8FE1B
:1017C0000020C4E7003C0240083802408C44000876
:1017D000200000201800002004480549006809681E
:1017E000044AC1F38221515CC840704720000020A8
:1017F000083802409C44000804480549006809680C
:10180000044AC1F34231515CC840704720000020B7
:10181000083802409C440008154810B5006810F0D4
:101820000C02144813D04110042A0FD0082A0ED1FC
:101830000F4C241F2268236802F03F025B0207D589
:101840002068C0F38810A0FB010106E0084610BD27
:101850002168C1F38811A1FB00010023FEF7BAFC47
:101860002168C1F30141491C4900B0FBF1F010BDF2
:10187000083802400024F4002DE9F84F04006ED02F
:101880002078DFF84C93C007A9F104054AD009F18C
:1018900004000168C1F38101012908D00068C0F388
:1018A000810002280AD1D9F80000400206D5286834
:1018B000800337D560680028E1D033E06068B0F578
:1018C000803F10D0B0F5A02F286810D020F48030D1
:1018D0002860286820F4802028606068A8B1FFF79D
:1018E00045FD06460DE0286840F48030F4E740F4FA
:1018F00080202860F7E700BFFFF738FD801B6428D1
:1019000073D828688003F7D50CE0FFF72FFD064653
:1019100005E000BFFFF72AFD801B6428F0D8286887
:101920008003F7D42078DFF8AC8280074FF0000AFC
:101930003ED5A748001D016811F00C0F08D00068C3
:10194000C0F3810002280BD1D9F80000400207D46F
:101950002868800716D5E068012800D112E033E13D
:10196000E068B8B10120C8F80000FFF7FFFC0646A8
:1019700005E000BFFFF7FAFC801B0228C0D82868EA
:101980008007F7D52868216920F0F80040EAC100F7
:1019900028600DE0C8F800A0FFF7E8FC064604E068
:1019A000FFF7E4FC801B02281FD828688007F7D4C3
:1019B0002078000722D5864F87486169703771B15A
:1019C00001210160FFF7D2FC064604E0FFF7CEFCE0
:1019D000801B022809D838688007F7D50EE0C0F8C8
:1019E00000A0FFF7C3FC064605E082E0FFF7BEFC5F
:1019F000801B02287DD838688007F7D420784007FC
:101A000068D5DFF8CCB100270BF13C0BDBF8000008
:101A1000C0000BD4DBF8001041F08051CBF800106F
:101A2000DBF80000012700F0805000906B4E30681A
:101A3000C00510D4306840F480703060FFF796FC29
:101A4000009005E0FFF792FC0099401A022850D858
:101A50003068C005F6D55E4EA0686C3601280FD000
:101A60000528306810D020F001003060306820F088
:101A700004003060A068B8B1FFF778FC00900FE078
:101A8000306840F00100F4E740F004003060F7E710
:101A9000FFF76CFC0099411A41F28830814266D808
:101AA00030688007F4D50EE0FFF760FC009007E097
:101AB000FFF75CFC0099411A41F28830814256D808
:101AC00030688007F4D42FB1DBF8001021F080518A
:101AD000CBF80010A069C8B33D49091D0968C1F3DE
:101AE000810102294AD00228504607D0C8F8600078
:101AF00000E03CE0FFF73AFC04463BE04746C8F80C
:101B00006000FFF733FC064605E000BFFFF72EFC40
:101B1000801B02282BD828688001F7D4D4E907015C
:101B20000843A16A2E4A490802EB0141626A41EA70
:101B30008211084394F82C1040EA0161C9F80010A2
:101B400001203866FFF712FC044606E03EE000BFC5
:101B5000FFF70CFC001B022809D828688001F7D584
:101B600034E000BFFFF702FC001B022802D903206B
:101B7000BDE8F88F28688001F4D427E00128F7D069
:101B8000D9F80000E26900F4800191421CD1226A78
:101B900000F03F01914217D147F6C071626A0140DF
:101BA000B1EB821F10D1A26A4FF0FF3300F4403135
:101BB00003EB5202B1EB024F06D194F82C1000F067
:101BC0007060B0EB016F01D00120D1E70020CFE7BA
:101BD0000438024000004742800E47420070004037
:101BE0000000FFFF704790F85100704770B5040087
:101BF00009D0606A002540B125616561A56294F84D
:101C0000510040B10CE0012070BD6068B0F5827FEA
:101C1000F4D0E561F2E784F85050204600F044F833
:101C2000022084F851002068016821F04001016021
:101C3000A088218900F4827001F404410843A1893D
:101C400001F400610843217C01F002010843217D79
:101C500001F001010843218B01F400710843217F49
:101C600001F03801084394F8201001F08001084386
:101C7000218D01F40051084321680860A069042106
:101C800001EA104094F8241001F010010843216883
:101C900048602068C16921F40061C1616565012067
:101CA00084F85100002070BD70B586B0064614213E
:101CB0006846FEF7C7FA1F493068884238D11E4887
:101CC0000025016841F480510160006800F48050F3
:101CD000059019481438016841F00101016000685D
:101CE000694600F001000590A02000900220CDE997
:101CF000010503200390052004901048FFF73CFAEB
:101D0000104C0F4820604FF0806060604020C4E9B4
:101D100002050001C4E90405A561E56125622046CC
:101D20006562FFF767F908B1FEF7D3FEB464A663F6
:101D300006B070BD0030014044380240000002404F
:101D400040640240340300202DE9F84F044690F827
:101D5000500000271D461646894601280DD04FF039
:101D6000010B84F850B0FFF701FB804694F8510056
:101D7000BA46012804D0022793E00220BDE8F88F7C
:101D8000B9F1000F73D0002E71D0032084F85100F8
:101D9000C4F854A0C4F83090A686E686C4F838A0EB
:101DA000A4F83CA0A4F83EA0C4F844A0C4F840A005
:101DB000A068B0F5004F09D12068016821F040010A
:101DC00001602068016841F4804101602068016879
:101DD000490603D4016841F040010160E068B0F5B4
:101DE000006F606803D030B3012E24D041E008B109
:101DF000012E1CD1206B21680088C86006E0206895
:101E00008168890709D5216B0988C160206B801C16
:101E10002063E08E401EE08609E0FFF7A7FAA0EB02
:101E20000800A84202D3681C01D031E07DB3E08EE7
:101E30000028E4D120E0206B21680078087306E0D8
:101E400020688168890709D5216B09780173206BA7
:101E5000401C2063E08E401EE0860AE0FFF786FA11
:101E6000A0EB0800A84203D3681C02D010E017E0E2
:101E70006DB1E08E0028E3D142462946204601F0AC
:101E8000B9F808B120206065A06818B106E0FFE746
:101E9000032706E02068C16880680090606D00B18B
:101EA000012784F851B084F850A0384666E7000056
:101EB0002DE9F041044690F850000026012809D091
:101EC000012784F8507094F851000025012804D0AF
:101ED00002264EE00220BDE8F08189B182B10320E4
:101EE00084F8510065652163A286E286A563656476
:101EF0002564A587E587A068B0F5004F02D00BE008
:101F0000012636E02068016821F040010160206868
:101F1000016841F480410160A16C18480864A16C1B
:101F20001748C863A16C1748C864A06C0565E38EA8
:101F30002268216B0C32A06CFFF7C6F838B1606DD7
:101F400040F010006065012684F8517011E02068AF
:101F50000168490603D4016841F04001016020682E
:101F6000416841F0200141602068416841F0020170
:101F7000416084F850503046ADE70000852F0008DE
:101F80008F2F0008632F000870477047094810B56D
:101F900000210170084B8160027853F82240521CE6
:101FA000D2B2214402701E2AF6D31E22B1FBF2F1F6
:101FB000816010BD000000202800002010B5401EE8
:101FC000B0F1807F01D3012010BD4FF0E0246061AB
:101FD0000F21601701F060FC0020A0610720206144
:101FE000002010BD10B5FFF7D1FF10BD704770473E
:101FF00070B590F83C20012A2CD0012480F83C4098
:10200000022280F83D2003685A689D6822F070061D
:102010000A6832435A60104B02689A420ED0B2F1FD
:10202000804F0BD00D4B9A4208D00D4B9A4205D0F1
:102030000C4B9A4202D00C4B9A4204D1496825F0CD
:1020400080031943916080F83D40002180F83C10E6
:10205000084670BD022070BD000001400004004031
:1020600000080040000C00400040014010B5040092
:1020700003D094F83D0010B107E0012010BD00200E
:1020800084F83C00204600F01FF8022084F83D0050
:10209000211D206801F09AF9012084F8460084F897
:1020A0003E0084F83F0084F8400084F8410084F842
:1020B000420084F8430084F8440084F8450084F822
:1020C0003D00002010BD000010B586B0044614216C
:1020D0006846FEF7B7F8226800211B48B2F1804F2E
:1020E00029D01A4B9A4224D1026842F002020260BF
:1020F000006800F00200059013481038026842F0B2
:1021000001020260006800F001000590402000908C
:102110000220CDE90101CDE9031069460C48FFF723
:102120002BF8002211461D20FFF78AFA1D20FFF729
:1021300079FA06B010BD016841F001010160006844
:1021400000F001000590F4E7403802400004004030
:102150000000024070B5044690F83C0000250128BC
:1021600017D0012684F83C60022084F83D002068E6
:10217000826822F0770222F47F4282600868502849
:1021800038D00DDC20284FD005DC90B3102811D1B9
:102190004AE0022070BD302846D040280AD13BE0FA
:1021A00060282FD070280DD0B0F5805F03D0B0F537
:1021B000005F12D0012584F83D60002084F83C00C7
:1021C000284670BDCB68D1E90121206801F057F99C
:1021D0002068816841F0770109E0CB68D1E90121ED
:1021E000206801F04CF92068816841F480418160E9
:1021F000E1E719E0CA684968206801F03BFA50211C
:10220000206806E0CA684968206801F07BFA60210E
:10221000206801F03EF9CEE7CA684968206801F0FD
:1022200029FA40212068F4E7226801461046F0E7C9
:1022300090F83C20012A0CD0012200F83C2F022308
:10224000437050F83C3C59614270002101700846CF
:10225000704702207047000070B50546007F0F4CA4
:10226000012812D100210E4800F021FB80B26080CD
:10227000A18800EE101AF8EE400A00EE100AB8EE3F
:10228000400A80EE801A84ED041A287F022804D1C7
:102290000421034800F00BFBA08070BD000000206B
:1022A000DC0300202DE9F041054690F83C000026B3
:1022B0000C46012810D0012085F83C0072B1042A98
:1022C0001CD0082A2CD00C2A50D00126002085F8DA
:1022D0003C003046BDE8F0810220FBE7D4E9001263
:1022E000E368286801F0D8F92868816921F00C01B9
:1022F000816128688169A26811430FE0D4E9001266
:10230000E368286801F010FA2868816921F44061C7
:10231000816128688169A26841EA02218161D5E76B
:102320002868D4E9002C277B016A21F480710162BE
:10233000C169036A21F0030141EA0C0121F0F00CAC
:1023400039074FF420674CEA116123F4206307EA50
:1023500002221A43C16102622868C16921F00C019E
:10236000C1612868C169A268114328E02868D4E9DE
:102370000027E168036A23F480530362D0F81CC08D
:10238000036A2CF4407C4CEA07274FF6FF7C27F4C5
:1023900070470CEA013139434FF4204723F42043BE
:1023A00007EA02321A43C16102622868C16921F456
:1023B0004061C1612868C169A26841EA0221C16126
:1023C00084E710B5040003D094F83D0010B107E095
:1023D000012010BD002084F83C00204600F01EF8CB
:1023E000022084F83D00211D206800F0EFFF01204D
:1023F00084F8460084F83E0084F83F0084F84000EA
:1024000084F8410084F8420084F8430084F84400D2
:1024100084F8450084F83D00002010BD704700009E
:1024200030B50446002551B104290DD0082910D03B
:1024300094F8412094F84500012A11D10EE094F857
:102440003E2094F84200F7E794F83F2094F84300C8
:10245000F2E794F8402094F84400EDE7012801D019
:10246000012030BD022059B1042912D0082919D009
:1024700084F8410084F845000C293ED001253AE05B
:1024800084F83E0084F842002068C26842F00202EC
:1024900010E084F83F0084F843002068C26842F0EE
:1024A000040207E084F8400084F844002068C26811
:1024B00042F00802C2600122206800F0D3FF1149F7
:1024C000206888420ED0B0F1804F0BD00E49884270
:1024D00008D00E49884205D00D49884202D00D49E6
:1024E000884204D1816801F00701062903D0016800
:1024F00041F001010160284630BD2068C26842F009
:102500001002D7E70000014000040040000800402E
:10251000000C00400040014070B5044600680169AD
:102520004FF00005C943890715D4C168C94389071D
:1025300011D4E91E0161012020772068806980079D
:10254000204602D0FFF788FE04E000F0C1F82046E4
:1025500000F053F9257720680169C943490717D46A
:10256000C168C943490713D46FF004010161022017
:1025700020772068806910F4407F204602D0FFF762
:102580006BFE04E000F0A4F8204600F036F9257751
:1025900020680169C943090716D4C168C9430907FE
:1025A00012D46FF008010161042020772068C0690F
:1025B0008007204602D0FFF74FFE04E000F088F8C5
:1025C000204600F01AF9257720680169C943C90639
:1025D00017D4C168C943C90613D46FF01001016153
:1025E000082020772068C06910F4407F204602D080
:1025F000FFF732FE04E000F06BF8204600F0FDF833
:10260000257720680169C943C90708D1C168C94352
:10261000C90704D1891E0161204600F047F92068EE
:102620000169C943090609D4C168C943090605D42B
:102630006FF0800101612046FFF7D8FC2068016936
:10264000C943490609D4C168C943490605D46FF096
:1026500040010161204600F06AF920680169C94320
:1026600089060BD4C168C943890607D46FF02001DD
:1026700001612046BDE87040FFF7B9BC70BD0000A5
:1026800010B586B0044614216846FDF7DBFD2068CE
:10269000B0F1804F15D10C480021026842F00202CF
:1026A0000260006800F002000590082000900220FF
:1026B000CDE901010120CDE9031069460348FEF789
:1026C0005BFD06B010BD000030380240000402403F
:1026D000704770B5044690F83C0000260D4601286E
:1026E0000FD0012084F83C006AB1042A1DD0082ACA
:1026F0002FD00C2A3FD00126002084F83C00304621
:1027000070BD022070BD206800F0CCFE2068816999
:1027100041F0080181612068816921F00401816133
:10272000206881692A69114311E0206800F0E2FE07
:102730002068816941F4006181612068816921F428
:1027400080618161206881692A6941EA0221816191
:10275000D2E7206800F0FAFE2068C16941F0080164
:10276000C1612068C16921F00401C1612068C169AB
:102770002A69114311E0206800F014FF2068C16944
:1027800041F40061C1612068C16921F48061C161C7
:102790002068C1692A6941EA0221C161ACE710B52C
:1027A000040003D094F83D0010B107E0012010BDF3
:1027B000002084F83C00204600F01EF8022084F837
:1027C0003D00211D206800F001FE012084F8460034
:1027D00084F83E0084F83F0084F8400084F841000B
:1027E00084F8420084F8430084F8440084F84500EB
:1027F00084F83D00002010BD7047704710B50446B6
:10280000022249B104290ED0082913D094F84100BE
:10281000012816D0012010BD94F83E000128F9D1FE
:1028200084F83E200FE094F83F000128F2D184F8AC
:102830003F2008E094F840000128EBD184F84020C4
:1028400001E084F841200122206800F00BFE1249CB
:102850002068884203D1426C42F4004242642068FE
:1028600088420ED0B0F1804F0BD00C49884208D07E
:102870000B49884205D00B49884202D00A49884258
:1028800004D1816801F00701062903D0016841F0F5
:1028900001010160002010BD000001400004004063
:1028A00000080040000C0040004001407047024614
:1028B000002041B1042909D008290AD00C2901D1EE
:1028C0001068006C70471068406B70471068806B30
:1028D00070471068C06B704770B5044690F83C00B4
:1028E000012812D0012584F83C50022084F83D00D4
:1028F000204600F079FE01004FF0000007D084F878
:102900003D5084F83C00012070BD022070BD21685C
:10291000CA6822F04002CA602168CA6822F4804274
:10292000CA6084F83D5084F83C00002070BD7047B8
:1029300070B5040004D094F83D00002510B106E005
:10294000012070BD84F83C50204600F023F824207C
:1029500084F83D002068C16821F40051C160204620
:1029600000F0FEFE2068016921F4904101612068B9
:10297000416921F02A0141612068C16841F4005198
:10298000C1602564202084F83D0084F83E000020CA
:1029900070BD0000F0B587B0044614216846FDF70D
:1029A00051FC1F4F236800221E49022403250726DD
:1029B0001D48BB4213D11B4B14331F6847F010074F
:1029C0001F601B6803F0100305930B6843F00103BD
:1029D0000B60096801F001010591690215E0134FD0
:1029E000BB421AD10F4B10331F6847F400371F60EA
:1029F0001B6803F4003305930B6843F001030B607D
:102A0000096801F0010105910C21CDE9001402AB28
:102A1000694683E86400FEF7AFFB07B0F0BD000035
:102A200000100140303802400000024000440040E5
:102A3000FEE700002DE9FF5F0446074601F10F00A5
:102A4000203A83B2D5B2E01D82B28A46384600F001
:102A5000EFFB1648002600EB051B4FF0010900BFF5
:102A60001BF806805FF0000509FA05F010EA080F70
:102A700001D0039A00E00E9A5146204600F042FB36
:102A8000641CA4B2E01B082809D06D1CEDB2082D0F
:102A9000EAD3761CB6B2102EE2D3BDE8FF9F0AF14E
:102AA00001003C461FFA80FAF3E70000A444000846
:102AB0002DE9F8431F46144688460546089E08E05F
:102AC0003B46414628460096FFF7B4FF0835ADB2B5
:102AD000641C2278002AF3D1BDE8F8837FB5002575
:102AE000154800950195029512490395016001244E
:102AF0004FF480310461C0E90115047680F820505C
:102B00000E49C0E90A15C560C46180F830404461CF
:102B1000FEF797F808B1FDF7DCFFCDE900546946F0
:102B200005480295FDF7D8FF002801D0FDF7D1FF39
:102B30007FBD000000200140E00100200100000FE7
:102B40000D4808B5016841F4800101600068002269
:102B500000F48000009011463820FEF771FD382007
:102B6000FEF760FD002211463A20FEF769FDBDE840
:102B700008403A20FEF756BD303802402DE9F047B4
:102B800086B014216846FDF75DFB574800240168B4
:102B900041F004010160016801F004010591016840
:102BA00041F080010160016801F080010591016838
:102BB00041F001010160016801F001010591016826
:102BC00041F0020101600068DFF8208100F002009E
:102BD0000590002283214046FEF7C3FBDFF81091E9
:102BE000002212214846FEF7BCFBDFF808A10022B4
:102BF00061215046FEF7B5FB4FF4005000904FF4B2
:102C00000410CDE9010469464046FEF7B5FA0125F6
:102C10000326CDE90065CDE9025469464046FEF73A
:102C2000ABFA0220CDE90005CDE9025469464846D9
:102C3000FEF7A2FA1020CDE90005CDE9024669466B
:102C40004846FEF799FACDE9025400956946504688
:102C50000195FEF791FA4FF482604FF48817CDE9A1
:102C60000007694602945046FEF786FA8020CDE9B7
:102C70000005CDE9024669464046FEF77DFA280286
:102C8000CDE90007694602944846FEF775FA202010
:102C90000090CDE90154694650460394FEF76CFA62
:102CA0004020CDE90005CDE9024669465046FEF7D1
:102CB00063FA002203210A20FEF7C2FC0A20FEF775
:102CC000B1FC002201211720FEF7BAFC1720FEF705
:102CD000A9FC002202212820FEF7B2FC2820FEF7E2
:102CE000A1FC06B0BDE8F087303802400008024081
:102CF00000000240000402400D4810B50B4901607D
:102D00000C49416000214FF480428160C0E9031208
:102D100041618161C1610162FEF72EFB002803D091
:102D2000BDE81040FDF7D5BE10BD000000540040C6
:102D300088020020A0860100104810B50E490160ED
:102D40004FF4827141604FF4004181600021C16005
:102D50004FF400720161C0E90512C1610162416274
:102D600081620A21C162FEF741FF002803D0BDE85D
:102D70001040FDF7AEBE10BD00300140DC02002067
:102D800010B58EB000240794089409940A940B940B
:102D90001C2168460C94FDF755FA1F484FF08041FE
:102DA00001606321C0E9011440F2E731C0E9031476
:102DB00080218161FFF75AF908B1FDF78AFE4FF4CF
:102DC0008050079007A91448FFF7C4F908B1FDF730
:102DD00080FE1148FFF7E3FC08B1FDF77AFE0B9483
:102DE0000BA90D480C94FFF703F908B1FDF771FE2C
:102DF000602000904F20CDE9010404226946064876
:102E00000494FFF766FC08B1FDF763FE0248FFF784
:102E100037FC0EB010BD00009403002010B590B038
:102E2000002409940A940B94142104A80C94FDF72F
:102E300009FA2D480D940E940094019402942949A6
:102E40000394016042F20F71C0E901144FF6FF7163
:102E5000C0E903148461FFF709F908B1FDF739FEF1
:102E60004FF48050099009A91F48FFF773F908B182
:102E7000FDF72FFE1C48FFF7A4FA08B1FDF729FE65
:102E8000042004905020CDE9050404A916480894B4
:102E9000FFF722FD08B1FDF71CFE0D940DA91248A5
:102EA0000E94FFF7A5F808B1FDF713FE0120CDE958
:102EB00000400294002269460B480394FFF7F2F9A0
:102EC00008B1FDF706FE0220009001900422694639
:102ED0000548FFF7E7F9002801D0FDF7FAFD10B02B
:102EE00010BD000000040040DC0300200C4810B5B9
:102EF0000A4901604FF4E1314160002181600C22F8
:102F0000C160C0E904128161C161FFF711FD0028B1
:102F100003D0BDE81040FDF7DCBD10BD001001403E
:102F2000240400200C4810B50A4901604FF4E13137
:102F30004160002181600C22C160C0E904128161FE
:102F4000C161FFF7F5FC002803D0BDE81040FDF794
:102F5000C0BD10BD0044004068040020FEE7FEE74D
:102F6000704710B5806B01684A6822F003024A601E
:102F7000416D41F010014165012180F85110FEF7CB
:102F800031FE10BD10B5806BFEF7FFFF10BD38B5E8
:102F90000546846BFEF7EAF9024628680068C0051A
:102FA00023D42068416821F02001416020684168F5
:102FB00021F0020141606421204600F01BF818B1A5
:102FC000606D40F020006065A068002118B920689D
:102FD000C26880680090E186012084F85100606D2D
:102FE00018B12046FEF7FEFD38BD2046FEF7CCFFA7
:102FF00038BD000038B504461248134B0068B0FBDA
:10300000F3F04FF47A73584300906068B0F5827F14
:103010000DD10B46009200228021204600F016F8C8
:1030200070B1606D40F020006065032038BD0098ED
:1030300030B1401E009020688068C0430006F6D57D
:10304000002038BD2000002000366E012DE9F84335
:103050001E46914688460446089DFEF787F9401BA8
:10306000351AFEF783F9074625480068C0F3CB30D0
:10307000684338E0701C37D0FEF778F9C01BA842CF
:1030800003D215B1009860B32CE02068416821F0AC
:10309000E00141606068B0F5827F0BD1A068B0F5B7
:1030A000004F02D0B0F5806F04D12068016821F094
:1030B00040010160A06AB0F5005F09D12068016895
:1030C00021F4005101602068016841F40051016061
:1030D000012084F85100002084F850000320BDE84E
:1030E000F8830025401E00902068816838EA0100BE
:1030F00004D000214945BDD10020F0E70121F9E7C6
:103100002000002010B514460B4A5388984211D273
:10311000128891420ED24A1C93B2421C92B200F025
:1031200087F8200AE4B200F0CDF82046BDE8104050
:1031300000F0C8B810BD000024000020F0B55D1AF2
:10314000ADF5017D141A641C6D1C1433A4B2ADB22C
:103150009BB2869E00F06CF870BA81B26C4300207E
:103160004FEA0D0222F81010401CFF28FAD9012264
:1031700080211148FEF7F5F8002210210F48FEF7D4
:10318000F0F84FF480764FF6FF770FE03546AC420B
:1031900000D8254607EA450269460948FEF788FE39
:1031A0000748FEF720FD0128FAD1641B002CEDD161
:1031B0000DF5017DF0BD0000000802400000024056
:1031C000DC02002008B5002100904FF48C73F0223F
:1031D0000846FFF7B3FF08BD10B500F091F80122D3
:1031E00040211248FEF7BDF8012000F04DF84FF4E1
:1031F0007A70FDF7A1FF112000F046F87820FDF766
:103200009BFF362000F040F8002000F05BF83A20E9
:1032100000F03AF8052000F055F8212000F034F8CD
:10322000BDE81040292000F02FB800000004024043
:103230002DE9F04106461C4615460F462A2000F0AF
:1032400023F8300A00F03EF8F0B200F03BF8280A0C
:1032500000F038F8E8B200F035F81437BDB22B2092
:1032600000F012F8280A00F02DF8E8B200F02AF871
:10327000200A00F027F8E0B200F024F8BDE8F041A1
:103280002C2000F001B8000031B5002280210A484E
:10329000FEF767F8094C002210212046FEF761F87E
:1032A00001231A4669460648FEF74EFD0122102109
:1032B0002046FEF756F838BD0008024000000240E4
:1032C000DC02002031B5012280210A48FEF749F8CE
:1032D000094C002210212046FEF743F801231A462C
:1032E00069460648FEF730FD012210212046FEF710
:1032F00038F838BD0008024000000240DC0200201F
:1033000010B5FFF719FDBDE81040FFF737BC704757
:1033100010B5FEF72BF9BDE81040FEF763BE0000C4
:1033200030B593B030216846FCF78CFF14210CA80F
:10333000FCF788FF1C480025016841F080510160BE
:10334000006800F0805011901848016841F4404135
:1033500001600068022400F44040119001200090B8
:10336000000401908001CDE9064008AA04206421F0
:1033700082E813000B906846FEF77EFA08B172B639
:10338000FEE70CA90F2081E831004FF48050CDE911
:103390000F0503210CA8FEF785F9002801D072B6AD
:1033A000FEE713B030BD000040380240007000401E
:1033B0000248016841F470010160704788ED00E047
:1033C0000148FFF7A9B80000DC030020F0B502684F
:1033D0001D4B1E4C9F031E4D1E4E984207D0B842F7
:1033E00005D0A04203D0A84201D0B04204D122F0BF
:1033F000700C4A6842EA0C02984210D0B8420ED0D3
:10340000A0420CD0A8420AD0B04208D0124CA04230
:1034100005D0124CA04202D0114CA04203D122F49C
:103420004074CA6822434C6922F080022243026041
:103430008A68C2620A688262984201D1096901639E
:1034400001214161F0BD0000000001400004004086
:1034500000080040000C00400040014000440140D2
:103460000048014010B501F01F030121046A994092
:103470008C430462016A9A401143016210BD10B589
:10348000846842EA032224F47F440A432243826090
:1034900010BD826822F070020A4342F00701816089
:1034A0007047000030B5026A22F001020262026A2F
:1034B0004368846924F073050C682C4322F00205EC
:1034C0008A682A430A4DA8420BD122F00805CA682F
:1034D00023F440732A434D6922F004021D438B6993
:1034E0002B434360846149684163026230BD000040
:1034F0000000014030B5026A22F010020262026A46
:10350000436884690D6824F4E64444EA05248D6820
:1035100022F0200242EA05120B4DA8420ED1CD68DE
:1035200022F0800242EA05124D6923F4406343EA27
:1035300085038D6922F0400243EA8503436084617C
:1035400049688163026230BD0000014030B5026A03
:1035500022F480720262036A4268C46923F4007331
:1035600024F073050C682C438D6843EA05230C4D49
:10357000A8420ED1CD6823F4006343EA05234D69C8
:1035800022F4405242EA05128D6923F4806342EA34
:1035900005124260C4614968C163036230BD000026
:1035A0000000014030B5026A22F480520262046ACF
:1035B0004268C3690D6823F4E64343EA05238D6836
:1035C00024F4005444EA0534064DA84204D14D6960
:1035D00022F4804242EA85124260C3614968016474
:1035E000046230BD0000014070B5036800249A6891
:1035F00022F070054A682A4322F007050A682A4328
:103600009A604A6812F00F0F31D11211082A2ED297
:10361000DFE802F02E2E2E2E0B2127040B69D1E9B4
:1036200002210068FFF72BFF22E00A68052A10D06C
:103630000268136A156A25F001051562026895692A
:10364000096925F0F00545EA0111916100680362FE
:103650000EE0012070BD0A698968006800F00AF870
:1036600006E00A698968006800F04CF800E001246F
:10367000204670BD10B5036A046A24F00104046298
:10368000846924F0F00444EA021423F00A020A4395
:103690008461026210BD000070B5046A24F0010468
:1036A00004628469056A124EB0420ED0B0F1804FB8
:1036B0000BD0104EB04208D00F4EB04205D00F4E86
:1036C000B04202D00E4EB04203D124F003041443A2
:1036D00001E044F001041A0724F0F00444EA126205
:1036E00025F00A0301F00A0119438261016270BDED
:1036F000000001400004004000080040000C0040B1
:103700000040014010B5036A23F01003036283698F
:10371000046A23F4704343EA023224F0A00343EA2C
:1037200001118261016210BD30B5046A24F01004F9
:1037300004628469056A24F4407444EA022222F493
:1037400070444FF6FF7202EA03322243A02425F0B0
:10375000A00304EA011119438261016230BD000037
:1037600070B5044600680169E26821F440511143D4
:1037700001612169A068E269084361691143084356
:103780002168CA6849F20C639A430243CA60206800
:103790004169A26921F440711143416131492068B6
:1037A000884202D03049884202D1FEF725F801E074
:1037B000FEF712F8E2690023192164253226B2F5DA
:1037C000004F626828D0A0FB0101930F9200FCF724
:1037D00001FD0146B0FBF5F06FF01802504301EB1C
:1037E000800006EB0010B0FBF5F000F0F002B1FB3A
:1037F000F5F002EB0012B1FBF5F06FF0180358433F
:1038000001EB800006EB0010B0FBF5F000F00F00BC
:1038100021681044886070BDA0FB010192185B41D3
:10382000FCF7D8FC0146B0FBF5F00201B1FBF5F066
:103830006FF01803584301EB800006EBC000B0FBAB
:10384000F5F000F0F80002EB4002B1FBF5F0584350
:1038500001EB800006EBC000B0FBF5F000F00700C4
:10386000D6E700000010014000140140FEE7000010
:103870000FB4084B10B504A902AA039800F0EEF8A3
:10388000044602A9002000F06CFC204610BC5DF844
:1038900014FB0000634100080907090E002804DB3F
:1038A00000F1E02080F80014704700F00F0000F1F4
:1038B000E02080F8141D704702E008C8121F08C1FC
:1038C000002AFAD170477047002001E001C1121FA1
:1038D000002AFBD1704700002DE9FF5F82B0002174
:1038E000DDE90430020DDDF840B0034318D044F6A2
:1038F0001050A2F2FF3242431514119801281FD034
:10390000A5EB0B00401C5FEA000A4FF000064E4F8B
:10391000DFF83891B046504615D5CAF1000413E0DF
:10392000119801244AA3012801D16FEA0B010298E2
:10393000119AC0E90031C0E9024206B0BDE8F09F2B
:10394000CBF10000DFE704460021404A491842EB72
:103950000450CDE9001012E0E00707D032463B46A4
:1039600040464946FCF779FC8046894632463B464C
:1039700010461946FCF771FC06460F466410002CF1
:10398000EAD1DDE90401DDE90023BAF1000F06DA2E
:10399000FCF763FC42464B46FCF75FFC05E0FCF796
:1039A000CEFC42464B46FCF7CAFC04460E460022BB
:1039B000284BFCF703FF03D84FF0FF30014607E028
:1039C0000022254B20463146FCF739FEFCF7DEFE8F
:1039D000102409E0002C0ADB0A220023FCF7FAFB82
:1039E000039B30321A55641E50EA0102F2D1641C66
:1039F000039AC4F111031444119A012A03D001223D
:103A000008430DD10AE0084304D000204FF0110B09
:103A1000119072E7A3EB0B056D1E0DE05B4504DD15
:103A20004FF0000205F1010504E003DA4FF0000257
:103A3000A5F10105002AECD002981199C0E90231E4
:103A4000C0E9004579E70000000014400000F03FA5
:103A5000300000000000F0430000E03F2DE9FF4F80
:103A600095B09A46884606460025EEE1252877D18E
:103A700000242746F94A0121039400E0044316F884
:103A8000013F203B01FA03F01042F7D130782A2899
:103A900011D06FF02F033078A0F13002092A16D828
:103AA000039A44F0020402EB820203EB4202104448
:103AB000761C0390EFE758F8042B0392002A03DAF0
:103AC000504244F40054039044F00204761C3078D1
:103AD0002E2816D116F8010F44F004042A280DD020
:103AE0006FF02F023078A0F13003092B09D807EBD3
:103AF000870302EB4303C718761CF3E758F8047BEF
:103B0000761C30786C280FD006DC4C2817D068283B
:103B10000DD06A2814D104E0742810D07A280FD16F
:103B20000DE044F400140AE044F4801401E044F48D
:103B300040147278824202D104F58014761C761CFF
:103B4000307866280BD013DC582877D009DC0028A1
:103B500075D04528F6D04628F4D047281AD193E1ED
:103B600018E0632835D0642879D0652812D18BE11C
:103B7000702873D008DC6728F1D069286FD06E28D0
:103B80000DD06F2806D1ACE073282CD0752874D0E6
:103B9000782853D05246179990476D1C54E1C4F3CE
:103BA0000250022809D003280DD0D8F800100428AC
:103BB0000DD00D6008F1040846E1D8F80010EA17AE
:103BC000C1E90052F6E7D8F800100D80F2E70D7059
:103BD000F0E718F8041B8DF8001000208DF80100A4
:103BE000EB46012003E058F804BB4FF0FF306107BB
:103BF0004FF0000102D40DE009F101018946B942FC
:103C00000FDA8145F8DB1BF809100029F4D108E030
:103C100009F1010189468142FADB1BF809100029EC
:103C2000F6D103985346A0EB090721463846179A68
:103C300000F080FA284400EB090507E044E008E1C1
:103C40000DE01BF8010B524617999047B9F1010995
:103C5000F7D2534621463846179AF2E039E00A2156
:103C6000C4F302524FF0000B0091022A06D058F81C
:103C7000040BC117032A09D00AE023E008F107006A
:103C800020F00702F2E80201904605E000B2C117F9
:103C9000042A01D140B2C117002906DA0A460021E0
:103CA000404261EB02012D2202E0220504D52B22C5
:103CB0008DF80420012203E0E20701D02022F7E77B
:103CC000914657E00A2100E010214FF0000B0091CF
:103CD0000BE010214FF0000B44F004040827009182
:103CE00003E008204FF0000B0090C4F30252022AB8
:103CF00005D058F8040B0021032A08D008E008F189
:103D0000070020F00702F2E80201904603E080B2CB
:103D1000042A00D1C0B24FF0000922072AD5327818
:103D2000702A07D0DDF800C08CF0100C5CEA0B0C98
:103D300005D00EE040228DF80420012208E050EA70
:103D4000010306D030238DF804308DF805200222BF
:103D50009146009B83F0080353EA0B030AD150EA13
:103D6000010201D1620705D530228DF804204FF001
:103D700001097F1E3278582A04D039A20C920CAA6D
:103D800002920BE03BA2F9E75B46009AFCF722FAAD
:103D90000C9B9B5C029A521E0292137050EA010225
:103DA000F2D1029804A9081A00F1200B600702D58D
:103DB00024F4803400E001275F4502DDA7EB0B000F
:103DC00000E0002000EB0B01009003984944401AEA
:103DD0000390E00306D453462146179A039800F057
:103DE000A9F90544002706E001A85246C05D1799CD
:103DF00090476D1C7F1C4F45F6DBE0030CD5534606
:103E00002146179A039800F095F9054404E0302004
:103E10005246179990476D1C0099481E0090002942
:103E2000F5DC08E00298029952460078491C02919C
:103E3000179990476D1CBBF10001ABF1010BF1DC50
:103E40005BE100F065F90544761C307800287FF4CA
:103E50000DAE19B02846BDE8F08F0000092801001A
:103E600030313233343536373839616263646566F0
:103E700000000000303132333435363738394142B2
:103E80004344454600000000600700D4062708F1BF
:103E9000070020F00700F0E80223804603F0004C02
:103EA0005FEA0C0001D097A009E0200501D596A09B
:103EB00005E0E00701D095A001E0AFF24C001390BF
:103EC000307823F0004365280CD006DC452809D063
:103ED00046281DD047287FD13BE0662818D06728A8
:103EE0007AD136E00021112F01DB112000E0781C8F
:103EF000CDE9000104A90CA8FFF7EEFCDDE90D01F6
:103F00000C9A4FF0000B07F10109109200914EE05E
:103F10004FF000400097CDE9011004A90CA8FFF76D
:103F2000DBFCDDE90D020C9B0F994FF0000B914675
:103F30001093009211B9791C00EB0109B7EB09004D
:103F400003D4C0F1FF3B07F10109A9EB0700019081
:103F500042E0012F00DA01270021112F01DD11209D
:103F600000E03846CDE9000104A90CA8FFF7B4FC35
:103F7000DDE90D010C9A00914FF0000BB94610924B
:103F800021070FD4009A4A4503DA914601E0A9F1CE
:103F90000109B9F1010F05DD109AA9F10101515C88
:103FA0003029F4D0B84202DA10F1040F03DA01210B
:103FB000CDE9011010E0002803DC8344A9EB0001E7
:103FC00002E0411C494500DD8946A0EB0B00401C86
:103FD00001904FF000400290200705D40198484519
:103FE00002DB4FF0FF30019000208DF84B0002986B
:103FF0000DF14B07B0F1004F25D002200C902B2083
:104000000D90029800280CDA404202902D200D906D
:1040100007E00A210298FCF749FA3031029007F8CC
:10402000011D0C99481E0C900029F2DC0298002812
:10403000EFD1791E0D980870307800F0200040F024
:10404000450007F8020D11A8C01BC01D029013986F
:10405000007800B1012000EB0901019801EBE0714B
:10406000029801440398401A401E0390E00306D4CE
:1040700053462146179A039800F05CF805441398BC
:10408000007818B15246179990476D1CE00323D56C
:1040900053462146179A039800F04CF805441BE05C
:1040A000BBF1000F07DB0098584504DD1098179905
:1040B00010F80B0001E01799302052469047019804
:1040C0000BF1010B401E05F10105019004D12E20DA
:1040D0005246179990476D1CB9F10001A9F10109E9
:1040E000DEDC05E017F8010B5246179990476D1C6E
:1040F0000299481E02900029F4DC53462146179A83
:1041000003989EE62D0000002B0000002000000018
:104110002DE9F041044600251E461746880404D4C4
:1041200005E039462020B0476D1C641EF9D52846AD
:10413000BDE8F0812DE9F041044600251E46904679
:10414000C80301D5302700E02027880404D505E006
:1041500041463846B0476D1C641EF9D52846BDE877
:10416000F0810A68531C0B60107070472DED088BAE
:1041700082B0FDF703FAFFF7D3F8FEF7FFFCFEF776
:10418000DFFCFEF7CFFEFEF7D7FDFEF7AFFEFEF732
:10419000A5FCFEF7B1FDFEF7F3FDFEF73FFEFFF7CE
:1041A0001BF80020FFF70EF84FF000084FF6FF79DC
:1041B0004B465EA23C213720CDF80080FEF778FC0C
:1041C0001E225E495E48FCF7B3FD04215D48FEF700
:1041D00015FB00215C48FEF723F904215A48FEF73D
:1041E0001FF900259FED59BADFED59BADFF864B128
:1041F000594C4FF4807AF3EE0E9A00BF94ED020A08
:1042000056465146B8EE400A5F46584620EE0B0A25
:1042100020EE2B0A84ED030AFDF79EF838B914202E
:10422000FCF78AFF31463846FDF796F808B15DB1D4
:104230001BE031463846FDF78FF80028F9D0012DF4
:1042400001D08DB111E00025012202214348FDF784
:1042500088F894ED030A20EE290A10EE100AFCF704
:10426000F6F841EC1A0B0FE00125002202213B4831
:10427000FDF777F894ED030A20EE290A10EE100AF4
:10428000FCF7E5F841EC180B51EC180BFCF7F2F8D1
:1042900009EE100A51EC1A0BFCF7C0F8064632463C
:1042A000B0EE490A0421274800F084F82348B2B24E
:1042B0002BA17830FFF7DCFA204A46464F464B46A2
:1042C000783264213520CDF80080FEF7F1FB1B48E1
:1042D00053EC182B26A1B430FFF7CAFA174A3B4615
:1042E000B432782135200096FEF7E2FB608842F276
:1042F0001071B1FBF0F223A12748FFF7B9FA3B4652
:10430000254A8C2135200096FEF7D2FB224853EC3B
:10431000182B22A13C30FFF7ABFA1F4A3B463C3238
:10432000A02135200096FEF7C3FB67E74672657152
:1043300075656E6379204D657465720028000020F4
:10434000E001002094030020DC03002033335340BD
:1043500000008039000002400000002000080240F8
:10436000467265715365743A2025303464487A008A
:10437000447574795365743A2025312E32662525AB
:1043800000000000467265714D6561737275653A93
:104390002025303464487A00400100204475747947
:1043A0004D6561737275653A2025312E326625257B
:1043B000000000002DE9F04105462DED048B0F466D
:1043C00011042D48B0EE408A0068B0FBF1F6761E6D
:1043D000B6F5803F04D30120BDEC048BBDE8F0812D
:1043E000711C4A43B0FBF2F4641E4FF00008D4F194
:1043F000FF3278EB080001DA0220EDE7601C00EEE6
:10440000100AB8EE400A10EE100AFCF720F841EC52
:10441000190B18EE100AFCF71AF89FED181B53EC55
:10442000112BFBF78CFF53EC192BFBF716FFFBF757
:10443000F5FF0022D0F1FF3372EB080201DA03200E
:10444000CAE729688E622968CC62EC605FB1042FEC
:104450000CD02968082F0CD0086401212846FDF7EC
:10446000E7FE0020B8E729684863F6E72968886313
:10447000F3E7C863F1E7000020000020000000001F
:10448000000059400006101600061016000000003B
:1044900000000000010203040607080900000000F4
:1044A0000102030400000000000000000000000002
:1044B00000000000000000080808080808080000C4
:1044C0001818000000486C241200000000000000D2
:1044D000000000000000002424247F1212127F122A
:1044E000121200000000081C2A2A0A0C1828282A88
:1044F0002A1C080800000022251515152A585454B6
:10450000542200000000000C1212120A7625291114
:10451000916E000000060604030000000000000089
:1045200000000000004020101008080808080810CB
:10453000102040000002040808101010101010088D
:10454000080402000000000008086B1C1C6B08082F
:104550000000000000000000080808087F080808A4
:104560000800000000000000000000000000000043
:10457000060604030000000000000000FE0000002A
:10458000000000000000000000000000000000002B
:10459000060600000000804040202010100808049B
:1045A00004020200000000182442424242424242F9
:1045B00024180000000000080E0808080808080871
:1045C000083E00000000003C424242202010080447
:1045D000427E00000000003C424220182040404241
:1045E000221C0000000000203028242422227E20EB
:1045F000207800000000007E0202021A264040429D
:10460000221C0000000000382402021A2642424206
:10461000241800000000007E22221010080808085C
:10462000080800000000003C424242241824424294
:10463000423C0000000000182442424264584040BE
:10464000241C0000000000000000181800000000FA
:104650001818000000000000000000080000000022
:10466000000808040000004020100804020408109C
:10467000204000000000000000007F0000007F00DC
:104680000000000000000002040810204020100874
:10469000040200000000003C42424640201010008E
:1046A000181800000000001C225A555555552D427F
:1046B000221C00000000000808181414243C2242A8
:1046C00042E700000000001F2222221E2242424236
:1046D000221F00000000007C424201010101014252
:1046E000221C00000000001F22424242424242427D
:1046F000221F00000000003F4212121E121202424E
:10470000423F00000000003F4212121E121202023D
:10471000020700000000003C222201010171212259
:10472000221C0000000000E7424242427E42424218
:1047300042E700000000003E0808080808080808D2
:10474000083E00000000007C101010101010101027
:104750001010110F0000007722120A0E0A12122206
:104760002277000000000007020202020202020299
:10477000427F000000000077363636362A2A2A2A81
:104780002A6B0000000000E346464A4A5252526239
:10479000624700000000001C22414141414141416B
:1047A000221C00000000003F424242423E02020240
:1047B000020700000000001C2241414141414D53CD
:1047C000321C60000000003F4242423E1212222290
:1047D00042C700000000007C424202041820404210
:1047E000423E00000000007F490808080808080849
:1047F000081C0000000000E742424242424242429E
:10480000423C0000000000E7424222242414141815
:10481000080800000000006B4949494955553622F7
:1048200022220000000000E7422424181818242443
:1048300042E700000000007722221414080808084C
:10484000081C00000000007E212010100804044213
:10485000423F00000078080808080808080808080F
:10486000080878000000020204040808081010205C
:1048700020204040001E10101010101010101010BA
:1048800010101E000038440000000000000000006E
:104890000000000000000000000000000000000018
:1048A000000000FF000608000000000000000000FB
:1048B00000000000000000000000003C427844427C
:1048C00042FC0000000000030202021A264242429B
:1048D000261A000000000000000000384402020216
:1048E00044380000000000604040407844424242AA
:1048F00064D80000000000000000003C427E02027C
:10490000423C0000000000F08808087E0808080803
:10491000083E0000000000000000007C22221C0273
:104920003C42423C000000030202023A464242423C
:1049300042E700000000000C0C00000E0808080808
:10494000083E000000000030300000382020202009
:104950002020221E0000000302020272120A161218
:10496000227700000000000E080808080808080860
:10497000083E0000000000000000007F929292922A
:1049800092B70000000000000000003B4642424297
:1049900042E70000000000000000003C42424242AA
:1049A000423C0000000000000000001B2642424282
:1049B000221E02070000000000000078444242422C
:1049C000447840E000000000000000774C0404043C
:1049D000041F0000000000000000007C42023C4078
:1049E000423E0000000000000008083E08080808D9
:1049F0000830000000000000000000634242424214
:104A000062DC000000000000000000E742242414E3
:104A10000808000000000000000000EB494955555F
:104A20002222000000000000000000762418181860
:104A3000246E000000000000000000E7422424145F
:104A400018080807000000000000007E2210080877
:104A5000447E000000C020202020201020202020A4
:104A60002020C00010101010101010101010101086
:104A70001010101000060808080808100808080898
:104A8000080806000C32C200000000000000000010
:104A900000000000B44A00080000002028000000C8
:104AA000B8380008DC4A0008280000208808000008
:104AB000C8380008000001000100000000000000EC
:104AC00000000000000000000100000010000000D5
:0C4AD000000000000024F4001801F000B9
:040000050800019955
:00000001FF
