:020000040800F2
:10000000000A002059020008373800083132000881
:100010003538000841170008D53C000800000000F2
:10002000000000000000000000000000073A000887
:10003000011800080000000039380008093A0008DB
:1000400073020008730200087302000873020008BC
:1000500073020008730200087302000873020008AC
:10006000730200087302000873020008730200089C
:10007000730200087302000873020008730200088C
:1000800073020008730200087302000800000000F9
:1000900000000000000000000000000073020008E3
:1000A000730200087302000873020008730200085C
:1000B000B93A0008730200087302000873020008CE
:1000C0007302000873020008730200083D3800083C
:1000D00073020008730200087302000800000000A9
:1000E0007302000873020008730200080000000099
:1000F0000000000000000000000000007302000883
:100100000000000073020008730200087302000878
:1001100000000000000000000000000000000000DF
:100120004517000873020008511700087302000801
:100130007302000800000000000000000000000042
:100140000000000000000000000000007302000832
:1001500073020008730200087302000873020008AB
:100160007302000873020008000000000000000095
:10017000000000000000000000000000000000007F
:1001800000000000730200080000000000000000F2
:10019000730200087302000800F002F800F04CF847
:1001A0000AA090E8000C82448344AAF10107DA45D2
:1001B00001D100F041F8AFF2090EBAE80F0013F0D8
:1001C000010F18BFFB1A43F0010318476C460000EB
:1001D0008C460000103A24BF78C878C1FAD852077C
:1001E00024BF30C830C144BF04680C6070470000B1
:1001F0000023002400250026103A28BF78C1FBD830
:10020000520728BF30C148BF0B607047662903F012
:10021000B587642900F0F480002070471FB503F013
:10022000A8FF00F075FC04000020002103F014FF7B
:10023000E0601FBD10B510BD00F06AFD1146FFF76C
:10024000EDFF03F077FD00F088FD03B4FFF7F2FF48
:1002500003BC00F0CBFD0000094880470948004777
:10026000FEE7FEE7FEE7FEE7FEE7FEE7FEE7FEE766
:10027000FEE7FEE704480549054A064B70470000C3
:10028000A93A00089901000800040020000A002093
:10029000000600200006002053EA020C00F06980EE
:1002A0002DE9F04B4FF00006002B1FBFB3FA83F58A
:1002B00003FA05F424FA05F65E4012BF1643B2FABB
:1002C00082F502FA05F4C5F120051EBF22FA05FCED
:1002D00044EA0C04203556EA044C4FEA144418BF93
:1002E000641C4FF000084FF00009904271EB030CC2
:1002F00039D3002919BFB1FA81F701FA07F6B0FA2C
:1003000080F700FA07F6C7F120071EBF20FA07FCA6
:1003100046EA0C062037B6FBF4FCA7EB0507103FB6
:1003200007F01F0BCBF120060CFA0BFB2CFA06F69C
:1003300044BFB3460026202FA4BF5E464FF0000BFB
:100340005BEA060C08BF4FF0010B19EB0B09ABFB86
:10035000027C48EB0608C01B06FB02CC0BFB03CC5F
:1003600071EB0C01C1E70B46024641464846BDE829
:10037000F08B13B54FF000004FF00001AFF3008099
:10038000BDE81C40704700000FB41CB5074B06AA1F
:100390007B4469460090059800F0A1FB0020694667
:1003A00000F0B0FB1CBC5DF814FB000071070000FE
:1003B00070B5044685690068C10601D5302600E0A5
:1003C0002026C00707D070BDD4E9012130469047F0
:1003D000206A401C20626D1EF6D570BD70B50446C3
:1003E00085690078C00707D170BDD4E901212020BC
:1003F0009047206A401C20626D1EF6D570BD00003B
:100400002DE9F0410646002410687529314616A5ED
:1004100010D0AFF30080002802DA404213A507E0B5
:1004200031688A0701D512A502E0490704D511A554
:10043000012401E0AFF3008000210A2206F1240725
:1004400009E0B0FBF2FCB0FBF2F302FB1C00303021
:1004500078541846491C0028F3D123462A463046D2
:10046000BDE8F04100F0CEB8000000002D00000013
:100470002B000000200000002DE9F05F89460446B3
:100480004FF0000ADFF824B1FB44C0F820A020465A
:10049000E168884700287DD0252806D0D4E90121CD
:1004A0009047206A401C2062F1E700255F46204605
:1004B000E16888472028064607DB312E05D2B819A7
:1004C00010F8200C08B10543F1E7A80701D525F085
:1004D0000405C4F81CA00027C4F818A02A2E09D0CF
:1004E000304603F020FC38B304EB8708303EC8F8F0
:1004F000186019E059F8041B204604EB870291614B
:10050000E1688847012F064618D1E069002820DA03
:1005100025F020051DE0D8F8180000EB800006EB60
:1005200040003038C8F818002046E1688847064681
:1005300003F0F9FB0028EED1012F0AD02E2E08D1AE
:100540002046E16888477F1C0646022F45F02005BB
:10055000C4DBA069002803DA404245F00105A06130
:10056000E80701D025F01005A6B1A6F14100192831
:1005700002D8203645F400654A46314620462560BB
:100580004D46FFF743FE60B1012807D0ED1D25F071
:10059000070000E007E000F1080978E705F1040929
:1005A00075E730467AE7206ABDE8F09F0443000013
:1005B0004FF0000200B5134694469646203922BFFC
:1005C000A0E80C50A0E80C50B1F12001BFF4F7AF47
:1005D000090728BFA0E80C5048BF0CC05DF804EB29
:1005E000890028BF40F8042B08BF704748BF20F897
:1005F000022B11F0804F18BF00F8012B7047704795
:10060000704770472DE9F0470D46994692460446DB
:1006100000F124080168880604D5E06921F0100182
:10062000216000E00120A84201DD471B00E0002717
:10063000A1697A1902EB0900081AA0612078C006A6
:1006400002D42046FFF7B4FE002608E0D4E90121D9
:100650001AF806009047206A401C761C20624E451E
:10066000F4DB2078C0060AD52046FFF7A1FE06E09D
:10067000D4E9012130209047206A401C2062381EB6
:10068000A7F10107F4DC07E0D4E9012118F805001F
:100690009047206A401C2062281EA5F10105F3DC6A
:1006A0002046FFF79BFE2078000602D50220BDE819
:1006B000F0870120FBE770472DE9FF4F0C461E46EF
:1006C0004FF0FF378BB0D2E90001DDF860800A906F
:1006D0008A46C1F30A5505B93D46002108464FF048
:1006E0000000BAF1000F00F4400005DA00EB8000D2
:1006F0004FF4400101EA50004FEA9059B9F1010F5F
:1007000000DDB9460A9850EA4A000ED044F610506F
:10071000A5F2FF3545432F14B8F1000F1ED07542E6
:10072000291E1EDDC9F100021CE0B8F1010F4FF0D7
:10073000000001D0302103E0F24305E02154401CC9
:10074000B042FBDB30460022002121540B99C1F856
:100750000880C1E900200FB0BDE8F08FBD1B6D1C03
:10076000DEE74A4600DA694206A800F05BFA06AB0B
:1007700093E8070003AB83E8070050460A9900F0AE
:100780003CFB8DE80700A0F500501F38009003984F
:10079000002D0ADD42F21F014A460844002303A946
:1007A0000390684600F0A5FD09E0A0F500504A4618
:1007B0001F38002303A90390684600F0AFFD8DE8C1
:1007C00007000004000C03D04FF0FF30410800E0A8
:1007D0001046B8F1000F03D00022009215461EE02B
:1007E000751E05D400F098F9303262556D1EF9D5AA
:1007F000B3460122084302D000227F1C04E0207887
:10080000302801D100227F1E002A099784D01DE0E4
:10081000112D07DA00F080F9303262556D1C50EA74
:100820000102F5D1084302D00098C8B10EE00021C2
:10083000681E05E0235C625C63542254401E491C20
:100840008142F7DBAB46A81B401E0990002004F84C
:100850000B000B98099AC0F80880C0E9002B7AE7D2
:1008600011264FF0000857E72DE9F04F884604465F
:10087000D21D22F0070191B0D1E90001CDE90A01B2
:1008800003F029FA02460B98C00F01D02D2007E093
:100890002068810701D52B2002E0202101EAC00059
:1008A000032A099001D0072A05DB0346414620466A
:1008B00000F078F90BE12078800601D5E06900E0CE
:1008C0000620B8F1650F814606D0B8F1660F18D042
:1008D000B8F1670F70D131E00020B9F1110F00902D
:1008E00001DB112301E009F101030AAA01A90CA807
:1008F000FFF7E2FEDDE90C70002609F101058346F1
:1009000047E001204B4600904FF000470AAA01A99A
:100910000CA8FFF7D1FEDDE90DB00C995D4600266D
:1009200010B909F101000D18B9EB050003D4C0F1AD
:10093000FF3609F10105A5EB09002BE0B9F1010F24
:1009400001DA4FF001090020B9F1110F009048467B
:1009500001DD112300E003460AAA01A90CA8FFF754
:10096000ABFEDDE90C704D4600268346207800077B
:100970000AD4AB4500DA5D4601A8012D04DD41191A
:1009800011F8011C302907D04F4502DA17F1040F86
:1009900004DA012082460FE06D1EEEE7002F02DC34
:1009A000ED1B3E4403E0781CA84200DD7D1CB81B13
:1009B00000F1010A4FF000472078000703D4AA4550
:1009C00001DB4FF0FF3A0021B7F1004F0DF1430872
:1009D0008DF8431024D002202B23002F01DA7F4210
:1009E0002D230A21021EA0F1010000DC5FB197FB5C
:1009F000F1FC97FBF1F201FB1C7C17460CF1300C6B
:100A000008F801CDEEE7A8F101000370218809057F
:100A100001D5452100E06521A0F1010800F8011C85
:100A200009980FA9A1EB0807FF1D00B1012041198A
:100A300001EBEA70A1693844081A401EA0612078D1
:100A4000C00602D42046FFF7B3FC099828B1D4E9C8
:100A500001219047206A401C20622078C00622D5E0
:100A60002046FFF7A5FC1EE0002E04DBB34502DDA7
:100A700001A8805D00E03020D4E901219047206A80
:100A8000401C2062761CAAF101005FEA000A0AD12C
:100A900000F03EF8C0680168405CD4E9012190474D
:100AA000206A401C2062281EA5F10105DCDC07E05D
:100AB000D4E9012118F8010B9047206A401C2062FC
:100AC000381EA7F10107F3DC2046FFF787FC03205F
:100AD00011B041E601694A1C02610878704700B50F
:100AE0008FB0CDE901310021059105497944CDE967
:100AF000031011466846FFF7BFFC0FB000BD0000B1
:100B0000E5FFFFFF0A6802F8010B0A60704700006A
:100B100000487047BC03002030B5B0F10A024FEA2C
:100B2000900E71F100034EEA817EB0EB0E0061EB96
:100B300091014FEA101E4EEA017E10EB0E0041EBD0
:100B400011114FEA102E4EEA016E10EB0E0041EB30
:100B500011214FEA104E4EEA014E10EB0E0041EB10
:100B60001141401841F100014FEAD00040EA4170C4
:100B70004FEAD10110EB80054FEA810444EA9074FA
:100B800044EB01046D1944EB0404521BA3414FF0E4
:100B9000000348BF0A3200D530BD401C41F10001BE
:100BA00030BD00002DE9F0411F46044603260168D0
:100BB000072A01F4006004DB08B116A505E016A5BC
:100BC00003E008B115A500E015A521F01000206094
:100BD000A069C01EA0610FB1401EA0612046FFF7B2
:100BE000E7FB4FB1D4E9012138469047206A401C09
:100BF0002062C01C206206E0206AFAE7D4E90121E5
:100C000015F8010B9047761EF8D22046FFF7E6FB59
:100C1000BDE8F0814E414E006E616E00494E4600C7
:100C2000696E66002DE9F047814616468AB0354860
:100C300078440DC88DE80D0032487844801C03AC20
:100C40000DC884E80D0041F69B300844372190FB25
:100C5000F1F290FBF1F5A5F1800501FB12041B3CBC
:100C600002D56442012000E00020DFF898A0804611
:100C70000027FA44AAF1BE0A0EE0E0070AD0324685
:100C8000684607EB470101230AEB810100F046FBB0
:100C90008DE8070064107F1C002CEED1194F7F44B3
:100CA000AE3F19E0E80715D007EB04100DF1180A64
:100CB00090E80E008AE80E00C068F04201D1981951
:100CC00008903246012306A903A800F027FB03ABD6
:100CD00083E807006D10641C002DE3D14FF0010381
:100CE00032466946B8F1000F03A802D000F001FBBC
:100CF00001E000F013FBC9E90001C9F808200AB0BF
:100D0000BDE8F087EC3B0000004870479C030020E2
:100D10007546FFF7F9FFAE4605006946534620F0D9
:100D20000700854618B020B5FFF7A4FABDE82040BB
:100D30004FF000064FF000074FF000084FF0000B97
:100D400021F00701AC46ACE8C009ACE8C009ACE84A
:100D5000C009ACE8C0098D46704710B50446AFF332
:100D600000802046BDE81040FFF76FBA4FF0013C0D
:100D700050F8042B51F8043B9A4221D1A2EB0C030A
:100D8000934313EACC1317D150F8042B51F8043BCA
:100D90009A4215D1A2EB0C03934313EACC130BD167
:100DA00050F8042B51F8043B9A4209D1A2EB0C03F2
:100DB000934313EACC13DBD04FF00000704700BF21
:100DC000D01A01BAB1FA81F101F0180122FA01F04A
:100DD000CB40C1F12001DBB2C0B2C01A2CFA01F342
:100DE000D11A914311EAC311E6D170470149182085
:100DF000ABBEFEE72600020070475FEA400C08BF6A
:100E000091F0000F4FEA8C234FEAC12243EA51517F
:100E10004FEA1C5018BF00F5F0404FEA300018BFF1
:100E200041F000415FEA6C5C00F02980BCF1FF3FBB
:100E300008BF40F080407047130C06BF12044FF00B
:100E4000100C4FF0000C130E04BF12020CF1080C32
:100E5000130F04BF12010CF1040C930F04BF920096
:100E60000CF1020CD30F04BF52000CF1010C11461F
:100E70004FF00002A0F11F00A0EB0C00704711F032
:100E8000004F08BF704731F000413FF4D5AF0B0C65
:100E900006BF09044FF0100C4FF0000C0B0E04BFFE
:100EA00009020CF1080C0B0F04BF09010CF1040C32
:100EB0008B0F04BF89000CF1020CCB0F04BF49005B
:100EC0000CF1010CCCF12003A0EB0C0022FA03F38F
:100ED00002FA0CF241EA030100F10100704720F030
:100EE0007F4C80EA030023F07F47ACEB070303F558
:100EF0007C5300F0004003F1FF032DE980494FEAE5
:100F0000154B09B44FEA144325EA0B4E24EA034873
:100F10000FF2042606EB132749083E785FEA3202F7
:100F200003FB0667C7F5000707FB06F64FEA5437D1
:100F30004FEAD64606F1020607FB066CCCF1005CD0
:100F40004FEA1C472CEA074C07FB06F40CFB06F59E
:100F500004EB15464FEA961634BF00204FF00040D0
:100F60004FEAD13706FB07FC4FEA1C4C0CFB0BF792
:100F7000D21B03FB0CF761EB07010CFB0EF7B0EB88
:100F8000074072EB17420CFB08F734BFA2EB074295
:100F9000B2EB074261EB17414FEA0C444FEA91076D
:100FA00006FB07FC4FEA1C4C0CFB0BF7B0EBC740F1
:100FB00072EB573203FB0CF734BFA2EBC742B2EB24
:100FC000C74261EB57310CFB0EF7B0EBC70072EB79
:100FD00057720CFB08F734BFA2EBC702B2EBC70293
:100FE00061EB5771039F4FEA816141EA921104EB73
:100FF000CC044FEAD1374FEA826206FB07FC42EA93
:1010000090124FEA80604FEA1C4C0CFB0BF7D21B8E
:1010100003FB0CF761EB07010CFB0EF7B0EB07408D
:1010200072EB17420CFB08F734BFA2EB0742B2EB9E
:10103000074261EB17414FEA8C554FEA910704EBE9
:101040009C2406FB07FC4FEA1C4C0CFB0BF7B0EB97
:10105000C74072EB573203FB0CF734BFA2EBC74219
:10106000B2EBC74261EB57310CFB0EF7B0EBC70098
:1010700072EB57720CFB08F734BFA2EBC702B2EB5E
:10108000C70261EB577115EB4C254FEA816141EACC
:1010900092114FEA82624FEAD13742EA901206FB80
:1010A00007FC44F100044FEA80604FEA1C4C0CFB43
:1010B0000BF7D21B03FB0CF761EB07010CFB0EF7E0
:1010C000B0EB074072EB17420CFB08F734BFA2EB02
:1010D0000742B2EB074261EB174115EB1C154FEAD3
:1010E000813141EA92414FEA823242EA90424FEA2C
:1010F00080304FEA0C7644F1000448EA03434EEA9C
:101100000B484FF0000EB2EB080C71EB030724BF45
:10111000624639464EEB0E0E4FF0000B001852415E
:1011200049414BEB0B0BB2EB080C71EB03077BF166
:10113000000B24BF624639464EEB0E0E4FF0000BFB
:101140000018524149414BEB0B0BB2EB080C71EB11
:1011500003077BF1000B24BF624639464EEB0E0EAF
:1011600051EA020718BF46F0010616EB0E7655F15C
:10117000000254F1000103D5BDE88901BDE80088F3
:10118000BDE88901BDE80048B619524141EB0101B3
:10119000A3F10103704780807F7E7D7C7B7A797824
:1011A000777676757473727171706F6E6E6D6C6C2C
:1011B0006B6A6A69686867666665646463636261CE
:1011C0006160605F5F5E5E5D5D5C5C5B5B5A5A594F
:1011D00059585857575656555555545453535252BB
:1011E0005251515050504F4F4F4E4E4D4D4D4C4C13
:1011F0004C4B4B4B4A4A4A4949494848484747475C
:101200004746464645454544444444434343434298
:10121000424242414141002B9C4630D477002BD0C2
:101220001CB54FEA370703B44FF010004FF0100120
:10123000BAF1000F06D0BCF1000FDCBF40F008008F
:1012400040F008014FF000000FBCBDE810400BF16A
:10125000010BBBF1010F08BF5FEA170722BF12F1B4
:10126000010211F101014FF0004143F1000300F0D0
:10127000004043EA00007047F9D35708D0E746EA38
:10128000064613F1400F4FEA16461FDD13F1200FFB
:10129000DFBF16430A46002120335B42BED0C3F1B4
:1012A000200746EA064602FA07F74FEA164646EADC
:1012B0000706C3F1200722FA03F201FA07F721FA21
:1012C00003F14FF0000342EA0702A7E746EA0206ED
:1012D00046EA06464FEA164646EA0106BCBF46EA1B
:1012E0000646360C4FF000034FF000024FF00001AD
:1012F00094E72DE9804C9A46934670B491E8380003
:1013000007C831EA400C48BF34EA430C03D5FFF765
:10131000E6FDFFF780FFF0BCBDE8008C2DE9804CB6
:101320009A46934670B491E8380007C810F0804F91
:1013300008BF13F0804F03D100F005F8FFF76BFFF3
:10134000F0BCBDE8008C20F07F4780EA030023F06A
:101350007F4C07EB0C03A3F57C5300F00040A3F196
:10136000FE0392F0000F00F0B38095F0000F00F044
:1013700077802DE901494FEA11404FEA144621EAEE
:10138000004800FB06FC24EA064708FB06F607FBBC
:1013900008F800FB07F718EB06484CEB164C4FEA31
:1013A000124B18EB07484FEA15464CEB174022EA60
:1013B0000B4E0BFB06FC25EA06470EFB06F607FB69
:1013C0000EFE0BFB07F71EEB064E4CEB164C4FF0D8
:1013D00000061EEB074E4CEB174B18EB0B0840F1C9
:1013E000000018EB0E0B58EB000840F100008F1ABC
:1013F0004FF000013CBFC943661B14BFB5EB040CA2
:1014000000213CBFC943F61B4FEA17444EEA8E0E3B
:1014100027EA04454FEA1C4704FB07622CEA074C05
:1014200005FB07F70CFB05F604FB0CFC16EB074667
:1014300042EB174216EB0C4642EB1C421BEB060636
:1014400058EB0202414146EA9E0601D5BDE80189FA
:10145000B619524141EB0101A3F10103BDE8018935
:101460004FEA14454FEA114724EA054621EA074CA2
:1014700005FB07F406FB07F70CFB06F105FB0CFC6C
:1014800011EB074144EB17444FEA124711EB0C41B3
:1014900044EB1C4422EA074C05FB07F206FB07F766
:1014A0000CFB06F605FB0CFC16EB074642EB17425D
:1014B00016EB0C4642EB1C456A1854F1000148BF7C
:1014C0007047B619524141EB0101A3F10103704786
:1014D00095F0000F37D04FEA11424FEA144721EA46
:1014E000024624EA074C02FB07F106FB07F70CFB58
:1014F00006F402FB0CFC14EB074441EB17414FEAE6
:10150000154714EB0C4441EB1C4125EA074C02FB48
:1015100007F506FB07F70CFB06F602FB0CFC16EBC7
:10152000074645EB174516EB0C4645EB1C421219D6
:1015300051F1000148BF7047B619524141EB01011A
:10154000A3F1010370474FEA14454FEA114724EA1B
:10155000054621EA074C05FB07F106FB07F70CFBE4
:1015600006F24FF0000605FB0CFC12EB074241EBC4
:10157000174112EB0C4251EB1C4148BF70479218C7
:1015800041EB0101A3F10103704710B50146806BE7
:10159000026C12F0500F05D0026CD20626D500F076
:1015A000E7F910BD016C41F40071016401688A68BB
:1015B00012F0405F17D1027EAAB9CA6A12F4700F06
:1015C00002D08A6852050ED44A6822F020024A608E
:1015D000016C21F480710164016CC90403D4016CB5
:1015E00041F00101016400F0C1F910BD806BC26CD3
:1015F000BDE810400846104710B5806B40210164DB
:10160000416C41F00401416400F0B2F910BD10B525
:10161000806B00F0ACF910BD464910B54A6822F461
:1016200040324A604A6843681A434A6001684A681F
:1016300022F480724A6001684A68036942EA032220
:101640004A6001684A6822F040724A6001684A684C
:1016500083681A434A6001688A6822F400628A60DB
:1016600001688A68C3681A438A60816A6FF0706291
:10167000D14201688A6822F070628A6001688A68D3
:101680000CD0836A1A438A6001688A6822F040524B
:101690008A6001688A68C36A1A4301E022F04052F6
:1016A0008A6001688A6822F002028A6001688A689A
:1016B000037E42EA43028A6090F820100029016804
:1016C0004A680FD042F400624A6001684A6822F416
:1016D00060424A6001684A68174C436A04EB43332E
:1016E0001A4301E022F400624A600168CA6A22F4E7
:1016F0007002CA620168CA6A838B104C04EB035300
:101700001A43CA6201688A6822F400728A6001681A
:101710008A6890F8303042EA43228A6001688A6819
:1017200022F480628A6001688A68406942EA802007
:10173000886010BD0023014000E0FFFF0000F0FFC3
:10174000FEE70000014800F02FBA00006001002011
:10175000014800F029BA00006C020020016818233B
:10176000CAB2103AB2FBF3F2054B6FF30901032A38
:101770009B5CC36500D9091D816508467047000060
:101780008041000810B5014600208B698A6A4FF03D
:10179000C07453B1B3F5005F15D072B1012A0CD0FB
:1017A000022A0AD0032A09D104E01AB1012A06D07C
:1017B000022A03D1C96AC90100D5012010BDC96A36
:1017C000A142FAD010BD002AF7D0012AF2D0022A95
:1017D000F3D0032AF3D010BD30B50468256825F492
:1017E00080252560046863608368402B036803D00C
:1017F00099600068C26030BD9A600068C16030BD09
:10180000704772B6FEE7000078B50024009490F8A7
:101810003C20012A19D0012280F83C200A680723C5
:101820000568092A13D9EE680A3A02EB420293408E
:101830009E43EE600B788A680A3B03EB43039A40B1
:101840000368DD682A43DA6010E0022078BD2E6963
:1018500002EB420293409E432E610B788A6803EBB1
:1018600043039A4003681D692A431A614A681F238B
:10187000072A13D205686E6B521E02EB8202934058
:101880009E436E630A8893B20A79521E02EB82026B
:1018900093400268556B2B43536327E005680D2A7C
:1018A00012D22E6BD21F02EB820293409E432E6314
:1018B0000B790A88DB1F92B203EB83039A4003681B
:1018C0001D6B2A431A6311E0EE6A0D3A02EB8202A5
:1018D00093409E43EE620B790A880D3B92B203EB74
:1018E00083039A400368DD6A2A43DA621B4B05686A
:1018F000194A9D420AD10D68122D07D1556825F469
:1019000000055560556845F48005556005689D42A1
:101910001DD1134D0B68AB4201D0112B17D1536869
:1019200023F480035360536843F400035360096851
:10193000A9420CD10B490C4A0968B1FBF2F101EB49
:101940008101490000E0491E00910029FBD180F887
:101950003C40002078BD00000023014000200140F1
:10196000120000102000002040420F007047704716
:10197000704770B504004FF0000503D0206C0026BE
:1019800010B107E0012070BD204600F01DF866642C
:1019900084F83C60206CC00610D4206C20F4885081
:1019A00040F0020020642046FFF736FE6664206C9B
:1019B00020F0020040F00100206400E0012584F8DE
:1019C0003C60284670BD000070B586B00646142104
:1019D0006846FEF7EDFD1D493068884234D11C4849
:1019E0000025016841F480710160006800F4807096
:1019F000059017481438016841F001010160006842
:101A0000694600F001000590012000900320CDE917
:101A10000105104800F04CFA104C0F48C4E90005CD
:101A20000015A560C4E90350800060618000A061DA
:101A30008011C4E907052046656200F085F908B108
:101A4000FFF7DFFEB463A66306B070BD002001405F
:101A5000443802400000024010640240600100204F
:101A6000F8B5044600200E46009094F83C10012979
:101A700007D0012184F83C1021688B68DB0702D075
:101A800011E00220F8BD8B6843F001038B603649FA
:101A9000364B0968B1FBF3F101EB410100E0491E4F
:101AA00000910029FBD121688B68DB0503D58B6889
:101AB00023F480738B6021688B68DB0749D0236C2B
:101AC00040F20165AB4343F48073236449684905E0
:101AD00005D5216C21F4005141F480512164216C21
:101AE000C90404D5616C21F00601616400E0606402
:101AF00084F83C00A16B1F481D4DC863A16B1E48B4
:101B00000864A16B1D48C86421686FF0220008605A
:101B10002068416841F0806141602068816841F43B
:101B2000807181602168134632464C31A06B00F011
:101B300075F96868C006206802D01149884210D142
:101B4000816811F0405F0CD1816841F08041816073
:101B500007E0206C40F010002064606C40F0010051
:101B600060640020F8BD00002000002040420F000B
:101B7000002301408B1500080F160008F915000816
:101B80000020014090F83510022903D080214165E2
:101B900001207047052180F835100068016821F0A8
:101BA00001010160002070472DE9F84304464FF021
:101BB0000009CDF8009063484FF41651A56D0068F8
:101BC000B0FBF1F72E6894F85C10082000FA01F1E0
:101BD00031420FD021680A6852070BD50A6822F0FB
:101BE00004020A6094F85C108840A860606D40F0C0
:101BF0000100606594F85C104FF0010808FA01F0EC
:101C0000304208D021684969090604D5A860606D92
:101C100040F00200606594F85C1004208840304277
:101C200008D021680968890704D5A860606D40F074
:101C30000400606594F85C1010208840304218D091
:101C400021680968090714D5A8602068016849035C
:101C500004D50068000308D5A16C07E00168C90538
:101C600003D4016821F008010160216C09B120460C
:101C7000884794F85C1020208840304231D0216899
:101C80000968C9062DD5A86094F835000528206894
:101C9000016806D0490347D5006800031DD4616C74
:101CA0001CE021F0160101602068416921F08001EB
:101CB0004161206C08B9A06C20B12068016821F056
:101CC0000801016094F85C103F208840A86084F807
:101CD000358084F83490216D1FE0E16B09B1204616
:101CE0008847606D00282BD0606DC00714D0052098
:101CF00084F835002068016821F001010160009836
:101D0000401C0090B84203D820680068C007F6D194
:101D100084F8358084F83490E16C002910D001B04B
:101D20002046BDE8F04308470168C905D5D40168DD
:101D300021F01001016084F8358084F83490CCE7FC
:101D4000BDE8F883200000202DE9F041044600F0B2
:101D5000A9F906465CB1022084F83500002584F814
:101D600034502068016821F0010101600DE001207C
:101D7000BDE8F08100F096F9801B052805D92020E8
:101D80006065032084F83500F2E720680068C0072A
:101D9000F0D12268116820480140D4E901031843BA
:101DA000D4E903363343184363691843A3691843DE
:101DB000E3691843236A18430843616A042903D17D
:101DC000D4E90B1319430843106020684069666A20
:101DD00020F0070130460E43012704280CD1A06AE9
:101DE0000643E06A40B12046FFF7CCFC20B140201A
:101DF000606584F83570BAE7206846612046FFF7D1
:101E0000ADFC94F85C203F2191408160656584F8C9
:101E100035700020ACE700003F8010F02DE9F04164
:101E20000446866D90F83400002501280DD001206D
:101E300084F8340094F835700020012F07D084F81E
:101E4000340002252846BDE8F0810220FBE7022786
:101E500084F8357060652046FFF7BEFC94F85C108E
:101E60003F208840B0602068016841F016010160A1
:101E7000206C20B12068016841F0080101602068F1
:101E8000016841F001010160DCE7000070B5044623
:101E900000F008F90546601C02D0044800780444AC
:101EA00000F000F9401BA042FAD370BD14000020DE
:101EB0002DE9F84FDFF8B8A10022012403254FF0E7
:101EC0000F090AF1040BAAF1040E00BF0B6804FA13
:101ED00002F63340B34273D10F7907F00307012FA5
:101EE00001D0022F16D187684FEA420805FA08FC94
:101EF00027EA0C07D1F80CC00CFA08FC4CEA070CD6
:101F0000C0F808C04768B7430E79C6F3001696407C
:101F10003E4346600E79F643B6070DD0C7685600BB
:101F200005FA06FC27EA0C07D1F808C00CFA06FCF3
:101F30004CEA070CC0F80CC00E7906F00306022E1E
:101F400010D1D60800EB8608D8F8206057074FEA72
:101F5000D76C09FA0CF7BE430F6907FA0CF7374341
:101F6000C8F8207006684FEA420C05FA0CF7BE4329
:101F70000F7907F0030707FA0CF7374307604E683D
:101F800016F4403F6DD03B4E376847F480473760CA
:101F9000366822F0030706F480460096364E07EBBB
:101FA000060CDCF8086897073F0F09FA07F826EADD
:101FB0000806DFF8C880404503D14FF000081EE056
:101FC0004FE0DFF8BC80404502D14FF0010816E039
:101FD000DFF8B080404502D14FF002080FE0DFF893
:101FE000A880404502D14FF0030808E0DFF89C804C
:101FF000404502D14FF0040801E04FF0070808FA0D
:1020000007F848EA0608CCF80888DAF8006057466E
:10201000D1F804C09E435FEACC2C00D51E433E603D
:10202000DBF800605F46D1F804C09E435FEA8C2C69
:1020300000D51E433E60DEF800607746D1F804C04C
:102040009E435FEA8C3C00D51E433E60084F083F2C
:102050003E68D1F804C09E435FEACC3C00D51E43E5
:102060003E60521C102AFFF431AFBDE8F88F00002B
:10207000083C01404438024000300140000002406A
:102080000004024000080240000C02400010024020
:102090000069084000D0012070470AB18161704793
:1020A0000904FBE701488068704700001400002025
:1020B00070B5040025D094F83D00002520B984F8BF
:1020C0003C50204600F0B8F8242084F83D002068F9
:1020D000016821F0010101602068016841F40041BC
:1020E00001602068016821F40041016000F010FAED
:1020F0004D4A6168914201D84C4900E04C49884200
:1021000001D2012070BD4B492368B0FBF1F15E683C
:1021100026F03F060E435E606368934206D94FF493
:10212000967359434FF47A73B1FBF3F12368491C5A
:102130001E6A26F03F06314319626168914210D849
:102140004900401EB0FBF1F2521CC2F30B02042AFC
:1021500001D2042022E0B0FBF1F0401CC0F30B00E0
:102160001CE0A268F2B301EBC10303EB0116431EAE
:10217000B3FBF6F35B1C43F480431B0549D092B3D9
:1021800001EBC10202EB0111401EB0FBF1F0401C5B
:10219000C0F30B0040F4804040F400402168CA695D
:1021A0004CF6FF739A431043C861D4E9071001430A
:1021B0002068026822F0C00211430160D4E90301E3
:1021C00001432068826848F2FF339A4311438160DB
:1021D000D4E9050108432168CA6822F0FF021043D0
:1021E000C86001E00EE016E02068016841F00101DE
:1021F00001602564202084F83D00256384F83E506A
:10220000002070BD01EB4106431EB3FBF6F35B1CDF
:10221000B3E70120C2E701EB4101401EB0FBF1F042
:10222000401CC0F30B00B7E7A086010080841E00AD
:1022300000093D0040420F0010B586B0044614214D
:102240006846FEF7B5F914492068884221D1134841
:102250000021026842F002020260006800F0020001
:1022600005904FF4C07000901220CDE901010320C9
:1022700003900420049069460948FFF719FE0748B7
:102280001030016841F400110160006800F4001092
:10229000059006B010BD00000054004030380240E8
:1022A000000402400248816802781144816070474E
:1022B000140000200B4810B5016841F40071016062
:1022C000016841F480610160016841F4807101603E
:1022D000032000F071F8002000F006F800F024F868
:1022E000002010BD003C024070B50D4D04464FF477
:1022F0007A712878B1FBF0F00A490968B1FBF0F077
:1023000000F0ECFC48B9102C07D200222146501EE8
:1023100000F032F800206C6070BD012070BD00003C
:1023200014000020200000200B4882B0016841F416
:1023300080410160006800F4804000900648001F62
:10234000016841F080510160006800F08050009009
:10235000072002B000F030B844380240002809DB02
:1023600000F01F02012191404009800000F1E020AF
:10237000C0F8001170470000F0B40E4B1B680C460B
:10238000C3F30223C3F10705042D00D90425191D49
:10239000072901D2002300E0DB1E012606FA05F121
:1023A000491E214099409E40761E16403143F0BCA4
:1023B00001F0A9BC0CED00E0064900F00702086836
:1023C0004FF6FF03184040EA0220034A104308601A
:1023D000704700000CED00E00000FA052DE9F04721
:1023E0000E46050065D0DFF81481D8F80000F7B27A
:1023F00000F00700B04207D288F80070D8F800005B
:1024000000F00700B04254D128683D4C810712D536
:10241000400703D5206840F4E0502060287800078A
:1024200003D5206840F4604020602068A96820F04F
:10243000F000084320602878C0072DD03049686834
:102440000839012812D0022813D0032811D00968B6
:10245000890700292DDA216821F003010143216059
:10246000FFF720FE814641F2883A0EE009688903B1
:10247000EFE709688901ECE7FFF714FEA0EB09011B
:10248000514502D90320BDE8F0872068696800F053
:102490000C00B0EB810FEFD1D8F80010404601F0EE
:1024A0000701B14207D90770006800F00700B04289
:1024B00001D00120E7E72878400705D52068E968C2
:1024C00020F4E050084320602878000706D52068F3
:1024D000296920F4604040EAC100206000F038F82B
:1024E0002168084AC1F30311515CC84006490860DD
:1024F00006480068FFF7F8FE0020C4E7003C0240F1
:102500000838024088410008200000201800002000
:102510000448054900680968044AC1F38221515CF6
:10252000C840704720000020083802409841000849
:102530000448054900680968044AC1F34231515C06
:10254000C840704720000020083802409841000829
:10255000154810B5006810F00C02144813D0411053
:10256000042A0FD0082A0ED10F4C241F226823689A
:1025700002F03F025B0207D52068C0F38810A0FB81
:10258000010106E0084610BD2168C1F38811A1FBD6
:1025900000010023FDF780FE2168C1F30141491CC1
:1025A0004900B0FBF1F010BD083802400024F400EF
:1025B0002DE9F84F04006ED02078DFF84C93C00767
:1025C000A9F104054AD009F104000168C1F38101B1
:1025D000012908D00068C0F3810002280AD1D9F887
:1025E0000000400206D52868800337D560680028BF
:1025F000E1D033E06068B0F5803F10D0B0F5A02F97
:10260000286810D020F480302860286820F48020CA
:1026100028606068A8B1FFF745FD06460DE0286810
:1026200040F48030F4E740F480202860F7E700BFF2
:10263000FFF738FD801B642873D828688003F7D51E
:102640000CE0FFF72FFD064605E000BFFFF72AFD6F
:10265000801B6428F0D828688003F7D42078DFF83E
:10266000AC8280074FF0000A3ED5A748001D0168E4
:1026700011F00C0F08D00068C0F3810002280BD1C4
:10268000D9F80000400207D42868800716D5E06812
:10269000012800D112E033E1E068B8B10120C8F8A8
:1026A0000000FFF7FFFC064605E000BFFFF7FAFC5D
:1026B000801B0228C0D828688007F7D528682169C0
:1026C00020F0F80040EAC10028600DE0C8F800A042
:1026D000FFF7E8FC064604E0FFF7E4FC801B022855
:1026E0001FD828688007F7D42078000722D5864FA6
:1026F00087486169703771B101210160FFF7D2FC31
:10270000064604E0FFF7CEFC801B022809D8386893
:102710008007F7D50EE0C0F800A0FFF7C3FC06461F
:1027200005E082E0FFF7BEFC801B02287DD83868F8
:102730008007F7D42078400768D5DFF8CCB10027B0
:102740000BF13C0BDBF80000C0000BD4DBF80010F1
:1027500041F08051CBF80010DBF80000012700F0B9
:10276000805000906B4E3068C00510D4306840F443
:1027700080703060FFF796FC009005E0FFF792FC58
:102780000099401A022850D83068C005F6D55E4E30
:10279000A0686C3601280FD00528306810D020F0D2
:1027A00001003060306820F004003060A068B8B1EB
:1027B000FFF778FC00900FE0306840F00100F4E78C
:1027C00040F004003060F7E7FFF76CFC0099411A15
:1027D00041F28830814266D830688007F4D50EE037
:1027E000FFF760FC009007E0FFF75CFC0099411ADE
:1027F00041F28830814256D830688007F4D42FB136
:10280000DBF8001021F08051CBF80010A069C8B3AC
:102810003D49091D0968C1F3810102294AD00228F6
:10282000504607D0C8F8600000E03CE0FFF73AFCF3
:1028300004463BE04746C8F86000FFF733FC064615
:1028400005E000BFFFF72EFC801B02282BD828686C
:102850008001F7D4D4E907010843A16A2E4A490848
:1028600002EB0141626A41EA8211084394F82C109C
:1028700040EA0161C9F8001001203866FFF712FC38
:10288000044606E03EE000BFFFF70CFC001B0228F8
:1028900009D828688001F7D534E000BFFFF702FCB3
:1028A000001B022802D90320BDE8F88F28688001A8
:1028B000F4D427E00128F7D0D9F80000E26900F449
:1028C000800191421CD1226A00F03F01914217D150
:1028D00047F6C071626A0140B1EB821F10D1A26A53
:1028E0004FF0FF3300F4403103EB5202B1EB024FE3
:1028F00006D194F82C1000F07060B0EB016F01D09D
:102900000120D1E70020CFE7043802400000474211
:10291000800E4742007000400000FFFF704700003B
:1029200038B5016804464A688868C043430606D53E
:10293000C30704D1D3435B0601D4216C05E08307B0
:1029400008D4D3431B0605D4616C01B02046BDE812
:1029500030400847830603D5430601D5C30551D44B
:10296000D3439B064ED443060AD494F85130032B2C
:1029700049D0636D43F004036365CB688B680093B3
:10298000830609D4636D43F0010363658B6800938C
:102990000B6823F040030B60C00506D4606D40F067
:1029A00008006065206880680090606D002829D06C
:1029B0002068416821F0E0014160012084F8510065
:1029C000900701D4D00722D02068416821F003018C
:1029D0004160114DE06C40B10565E06CFFF7D2F845
:1029E00018B1606D40F040006065A06C002809D00F
:1029F0000565A06CFFF7C6F8002803D0606D40F0B5
:102A00004000606538BDC8688868009038BD2046C1
:102A1000FFF784FF38BD00004938000870B5040096
:102A200009D0606A002540B125616561A56294F80E
:102A3000510040B10CE0012070BD6068B0F5827FAC
:102A4000F4D0E561F2E784F85050204600F044F8F5
:102A5000022084F851002068016821F040010160E3
:102A6000A088218900F4827001F404410843A189FF
:102A700001F400610843217C01F002010843217D3B
:102A800001F001010843218B01F400710843217F0B
:102A900001F03801084394F8201001F08001084348
:102AA000218D01F40051084321680860A0690421C8
:102AB00001EA104094F8241001F010010843216845
:102AC00048602068C16921F40061C1616565012029
:102AD00084F85100002070BD70B586B00646142100
:102AE0006846FDF765FD24493068884242D1234895
:102AF0000025016841F480510160006800F48050B5
:102B000005901E481438016841F001010160006819
:102B1000694600F001000590B02000900220CDE948
:102B2000010503200390052004901548FFF7C0F924
:102B3000154C144820604FF0806060604020C4E96C
:102B400002050001C4E904054FF44030A561C4E961
:102B5000075020466562FFF7F7F808B1FEF751FE0F
:102B6000B464002211462320A663FFF705FC23204E
:102B7000FFF7F4FB06B070BD00300140443802405E
:102B800000000240406402406C0200202DE9F04148
:102B9000044690F850000026012809D0012784F847
:102BA000507094F851000025012804D002264EE010
:102BB0000220BDE8F08189B182B1032084F8510080
:102BC00065652163A286E286A56365642564A587A1
:102BD000E587A068B0F5004F02D00BE0012636E093
:102BE0002068016821F0400101602068016841F41B
:102BF00080410160A16C18480864A16C1748C86343
:102C0000A16C1748C864A06C0565E38E2268216B2F
:102C10000C32A06CFFF702F938B1606D40F0100083
:102C20006065012684F8517011E02068016849064A
:102C300003D4016841F0400101602068416841F01F
:102C4000200141602068416841F00201416084F840
:102C500050503046ADE700007B380008853800084A
:102C600059380008704770472DE9F041184CDFF8DB
:102C700064804FF4807720783946401C20704046AD
:102C8000FFF706FA0126002550B92078142807D945
:102C900039464046FFF7FCF908B9A570E670257083
:102CA000DFF834804FF4806739464046FFF7F0F98B
:102CB00000280AD12078142807D939464046FFF762
:102CC000E7F908B9A670E5702570BDE8F08100004D
:102CD00000000020000002400004024010B5401E29
:102CE000B0F1807F01D3012010BD4FF0E02460617E
:102CF0000F21601701F007F80020A0610720206174
:102D0000002010BD10B5FFF7AFFF10BD7047704732
:102D100070B590F83C20012A2CD0012480F83C406A
:102D2000022280F83D2003685A689D6822F07006F0
:102D30000A6832435A60104B02689A420ED0B2F1D0
:102D4000804F0BD00D4B9A4208D00D4B9A4205D0C4
:102D50000C4B9A4202D00C4B9A4204D1496825F0A0
:102D600080031943916080F83D40002180F83C10B9
:102D7000084670BD022070BD000001400004004004
:102D800000080040000C00400040014010B5040065
:102D900003D094F83D0010B107E0012010BD0020E1
:102DA00084F83C00204600F01FF8022084F83D0023
:102DB000211D206800F086FE012084F8460084F87A
:102DC0003E0084F83F0084F8400084F8410084F815
:102DD000420084F8430084F8440084F8450084F8F5
:102DE0003D00002010BD000008B50068B0F1804F24
:102DF00012D10A48016841F0010101600068002217
:102E000000F00100009011461C20FFF7B5FABDE864
:102E100008401C20FFF7A2BA08BD0000403802405D
:102E200090F83D10012901D001207047022180F85F
:102E30003D100168CA6842F00102CA6000680E498C
:102E400088420ED0B0F1804F0BD00C49884208D098
:102E50000B49884205D00B49884202D00A49884272
:102E600004D1816801F00701062903D0016841F00F
:102E70000101016000207047000001400004004093
:102E800000080040000C00400040014070B50446BE
:102E900090F83C000025012817D0012684F83C60FA
:102EA000022084F83D002068826822F0770222F434
:102EB0007F4282600868502838D00DDC20284FD02F
:102EC00005DC90B3102811D14AE0022070BD3028F3
:102ED00046D040280AD13BE060282FD070280DD082
:102EE000B0F5805F03D0B0F5005F12D0012584F803
:102EF0003D60002084F83C00284670BDCB68D1E9D5
:102F00000121206800F02AFE2068816841F07701E5
:102F100009E0CB68D1E90121206800F01FFE20689C
:102F2000816841F480418160E1E719E0CA6849683D
:102F3000206800F025FE5021206806E0CA68496834
:102F4000206800F02EFE6021206800F011FECEE720
:102F5000CA684968206800F013FE40212068F4E741
:102F6000226801461046F0E7704770B504460068D5
:102F700001694FF00005C943890715D4C168C943E9
:102F8000890711D4E91E016101202077206880693A
:102F90008007204602D0FFF7E7FF04E000F098F832
:102FA000204600F096F8257720680169C943490753
:102FB00017D4C168C943490713D46FF004010161F4
:102FC000022020772068806910F4407F204602D0DC
:102FD000FFF7CAFF04E000F07BF8204600F079F824
:102FE000257720680169C943090716D4C168C94318
:102FF000090712D46FF008010161042020772068CE
:10300000C0698007204602D0FFF7AEFF04E000F061
:103010005FF8204600F05DF8257720680169C94314
:10302000C90617D4C168C943C90613D46FF010018B
:103030000161082020772068C06910F4407F204695
:1030400002D0FFF791FF04E000F042F8204600F0C4
:1030500040F8257720680169C943C90708D1C168CC
:10306000C943C90704D1891E0161204600F032F826
:1030700020680169C943090609D4C168C943090622
:1030800005D46FF0800101612046FFF73FFE206804
:103090000169C943490609D4C168C943490605D431
:1030A0006FF040010161204600F042F8206801699C
:1030B000C94389060BD4C168C943890607D46FF098
:1030C000200101612046BDE87040FFF720BE70BDC1
:1030D0007047704710B513490068096888421FD1CE
:1030E00011480021114B4170C160427853F82240D1
:1030F000521CD2B2214442701E2AF6D31E22C16055
:10310000B1FBF2F101618278012A09D18268914212
:1031100000D981604268914202D2002900D041600A
:1031200010BD0000CC02002000000020280000207C
:10313000704770B5040004D094F83D00002510B12C
:1031400006E0012070BD84F83C50204600F022F8D3
:10315000242084F83D002068C16821F40051C1603A
:10316000204600F031FD2068016921F490410161A1
:103170002068416921F02A0141612068C16841F459
:103180000051C1602564202084F83D0084F83E0091
:10319000002070BDF0B587B0044614216846FDF7E5
:1031A00007FA1F4F236800221E4902240325072621
:1031B0001D48BB4213D11B4B14331F6847F0100747
:1031C0001F601B6803F0100305930B6843F00103B5
:1031D0000B60096801F001010591690215E0134FC8
:1031E000BB421AD10F4B10331F6847F400371F60E2
:1031F0001B6803F4003305930B6843F001030B6075
:10320000096801F0010105910C21CDE9001402AB20
:10321000694683E86400FEF74BFE07B0F0BD00008E
:1032200000100140303802400000024000440040DD
:10323000FEE7000010B514460B4A5388984211D29D
:10324000128891420ED24A1C93B2421C92B200F0F4
:1032500083F8200AE4B200F0F1F82046BDE81040FF
:1032600000F0ECB810BD00002400002030B504468A
:10327000234885B001884088491E8BB2401E82B227
:103280000021084600F068F8210A8DF800108DF83A
:1032900004108DF808108DF80C108DF810108DF8B2
:1032A00001408DF805408DF809408DF80D408DF8EE
:1032B00011408DF802108DF806108DF80A108DF867
:1032C0000E108DF812108DF803408DF807408DF820
:1032D0000B408DF80F408DF81340012280210948E2
:1032E000FEF7DBFE00244FF49635142269460648AB
:1032F000FFF74CFC641CAC42F7D305B030BD0000B6
:1033000024000020000802401402002010B500F044
:1033100073FB012240210F48FEF7BFFE012000F0A1
:103320007DF84FF47A70FEF7B1FD3A2000F076F8A0
:10333000552000F083F8112000F070F87820FEF797
:10334000A5FD292000F06AF8BDE81040002000F03B
:1033500041B80000000402402DE9FC4107461C462C
:1033600015460E462A2000F059F8380A8DF800005C
:103370008DF80170280A8DF80200300A8DF80400DB
:103380008DF80560200A8DF806008DF807400F4C77
:103390008DF80350012280212046FEF77EFE042294
:1033A00069460B48FFF7F2FB2B2000F037F80122AB
:1033B00080212046FEF771FE042201A90448FFF790
:1033C000E5FB2C2000F02AF8BDE8FC810008024053
:1033D000140200202DE9F0410746362000F01EF8C7
:1033E0000D4CF0264FF4A07567B1012F0CD0022FC1
:1033F0000CD0032F04D1E82000F020F8658026804F
:10340000BDE8F081482002E02820F5E7882000F0A0
:1034100015F866802580F3E72400002001B500221E
:1034200080210448FEF739FE012269460248FFF771
:10343000ADFB08BD000802401402002001B50122C6
:1034400080210448FEF729FE012269460248FFF761
:103450009DFB08BD00080240140200202DE9FF5F1B
:103460000446074601F10F00203A83B2D5B2E01DB1
:1034700082B28A463846FFF76FFF1648002600EBF7
:10348000051B4FF0010900BF1BF806805FF0000527
:1034900009FA05F010EA080F01D0039A00E00E9A2D
:1034A00051462046FFF7C6FE641CA4B2E01B082864
:1034B00009D06D1CEDB2082DEAD3761CB6B2102EE1
:1034C000E2D3BDE8FF9F0AF101003C461FFA80FAF3
:1034D000F3E70000A04100082DE9F8431F46144619
:1034E00088460546089E08E03B4641462846009629
:1034F000FFF7B4FF0835ADB2641C2278002AF3D17F
:10350000BDE8F8837FB50025154800950195029523
:1035100012490395016001244FF480310461C0E930
:103520000115047680F820500E49C0E90A15C560DF
:10353000C46180F830404461FEF71BFA08B1FEF721
:1035400060F9CDE90054694605480295FEF75CF93B
:10355000002801D0FEF755F97FBD00000020014092
:10356000180100200100000F0D4808B5016841F462
:10357000800101600068002200F480000090114684
:103580003820FEF7F9FE3820FEF7E8FE002211464B
:103590003A20FEF7F1FEBDE808403A20FEF7DEBE15
:1035A000303802402DE9F04387B014216846FCF71B
:1035B000FFFF44480025016841F0040101600168F3
:1035C00001F004010591016841F08001016001688A
:1035D00001F080010591016841F00101016001687D
:1035E00001F001010591016841F0020101600068EC
:1035F000354F00F002000590002283213846FEF787
:103600004CFDDFF8C880002202214046FEF745FD50
:10361000DFF8BC90002249214846FEF73EFD4FF4FA
:10362000005000904FF40410CDE90105694638467A
:10363000FEF73EFC01240326CDE9006469463846C6
:10364000CDE90245FEF734FC0220CDE900046946CD
:103650004046CDE90245FEF72BFC0920CDE90004E8
:1036600069464846CDE90245FEF722FC4FF48260E8
:10367000CDE90005694602944846FEF719FC802012
:103680008DE8710069463846FEF712FC2002CDE94C
:103690000005694602944046FEF70AFC202000908F
:1036A0004FF48810CDE9010469464846FEF700FC56
:1036B00040208DE8710069464846FEF7F9FB07B0E7
:1036C000BDE8F083303802400008024000000240AC
:1036D000000402400D4810B50B4901600C494160DF
:1036E00000214FF480428160C0E903124161816191
:1036F000C1610162FEF7DCFC002803D0BDE8104088
:10370000FEF77FB810BD000000540040C00100204B
:10371000A0860100104810B50E4901604FF4827177
:1037200041604FF4004181600021C1604FF480226C
:103730000161C0E90512C1610162416281620A2131
:10374000C162FFF76BF9002803D0BDE81040FEF717
:1037500058B810BD003001401402002010B586B0EA
:1037600000241748009401940294039404944FF0A9
:103770008041059401606221C0E9011440F2E73103
:10378000C0E9031480218161FFF700FB08B1FEF757
:1037900038F84FF48050009069460948FFF776FBEF
:1037A00008B1FEF72EF8049404A905480594FFF724
:1037B000AFFA002801D0FEF724F806B010BD0000D3
:1037C000CC0200200C4810B50A4901604FF4E131E9
:1037D0004160002181600C22C160C0E90412816156
:1037E000C161FFF7A6FC002803D0BDE81040FEF73A
:1037F00008B810BD00100140140300200C4810B59B
:103800000A4901604FF4E1314160002181600C22DE
:10381000C160C0E904128161C161FFF78AFC002820
:1038200003D0BDE81040FDF7ECBF10BD00440040E0
:1038300058030020FEE7FEE7704700000148FFF74D
:103840006FB800001402002010B5806B0021C18702
:10385000C186FFF763F810BD10B5806B01684A6838
:1038600022F003024A60416D41F0100141650121DF
:1038700080F85110FFF752F810BD10B5806BFFF7BC
:10388000F2F910BD38B50546846BFEF70BFC024615
:1038900028680068C00523D42068416821F0200111
:1038A00041602068416821F00201416064212046A6
:1038B00000F01AF818B1606D40F020006065A06853
:1038C000002118B92068C26880680090E186012054
:1038D00084F85100606D18B12046FFF71FF838BD1D
:1038E0002046FFF7BFF938BD38B504461248134BE0
:1038F0000068B0FBF3F04FF47A73584300906068AF
:10390000B0F5827F0DD10B46009200228021204627
:1039100000F016F870B1606D40F020006065032083
:1039200038BD009830B1401E009020688068C043C8
:103930000006F6D5002038BD2000002000366E01BC
:103940002DE9F8431E46914688460446089DFEF739
:10395000A9FB401B351AFEF7A5FB07462548006862
:10396000C0F3CB30684338E0701C37D0FEF79AFBC9
:10397000C01BA84203D215B1009860B32CE02068A8
:10398000416821F0E00141606068B0F5827F0BD1B1
:10399000A068B0F5004F02D0B0F5806F04D1206868
:1039A000016821F040010160A06AB0F5005F09D113
:1039B0002068016821F4005101602068016841F429
:1039C00000510160012084F85100002084F850006B
:1039D0000320BDE8F8830025401E00902068816820
:1039E00038EA010004D000214945BDD10020F0E7AC
:1039F0000121F9E72000002010B5FFF78BFEBDE89C
:103A00001040FFF7CFBD704710B5FEF74BFCBDE887
:103A10001040FFF777B9000030B593B03021684609
:103A2000FCF7C6FD14210CA8FCF7C2FD1C480025BC
:103A3000016841F080510160006800F080501190F1
:103A40001848016841F4404101600068022400F414
:103A500040401190012000904FF4A020019060059B
:103A6000CDE9064008AA0420642182E813000B90E7
:103A70006846FEF79DFD08B172B6FEE70CA90F205F
:103A800081E831004FF48050CDE90F0503210CA8E7
:103A9000FEF7A4FC002801D072B6FEE713B030BDDB
:103AA00040380240007000400248016841F4700153
:103AB0000160704788ED00E00148FFF756BA00004A
:103AC000CC020020F0B502681D4B1E4C9F031E4D1A
:103AD0001E4E984207D0B84205D0A04203D0A8425B
:103AE00001D0B04204D122F0700C4A6842EA0C02C4
:103AF000984210D0B8420ED0A0420CD0A8420AD0B2
:103B0000B04208D0124CA04205D0124CA04202D0C4
:103B1000114CA04203D122F44074CA6822434C697C
:103B200022F08002224302608A68C2620A688262CE
:103B3000984201D10969016301214161F0BD000092
:103B4000000001400004004000080040000C00405C
:103B500000400140004401400048014010B5846825
:103B600042EA032224F47F440A432243826010BDC8
:103B7000826822F070020A4342F0070181607047B8
:103B800010B5036A046A24F001040462846924F015
:103B9000F00444EA021423F00A020A438461026238
:103BA00010BD10B5036A23F0100303628369046A31
:103BB00023F4704343EA023224F0A00343EA0111E4
:103BC0008261016210BD000070B5044600680169A1
:103BD000E26821F44051114301612169A068E26962
:103BE00008436169114308432168CA6849F20C63BC
:103BF0009A430243CA6020684169A26921F4407176
:103C00001143416131492068884202D030498842DD
:103C100002D1FEF78DFC01E0FEF77AFCE269002399
:103C2000192164253226B2F5004F626828D0A0FB26
:103C30000101930F9200FCF72FFB0146B0FBF5F05A
:103C40006FF01802504301EB800006EB0010B0FB50
:103C5000F5F000F0F002B1FBF5F002EB0012B1FB61
:103C6000F5F06FF01803584301EB800006EB0010ED
:103C7000B0FBF5F000F00F0021681044886070BDC3
:103C8000A0FB010192185B41FCF706FB0146B0FB6B
:103C9000F5F00201B1FBF5F06FF01803584301EBAA
:103CA000800006EBC000B0FBF5F000F0F80002EB7E
:103CB0004002B1FBF5F0584301EB800006EBC00079
:103CC000B0FBF5F000F00700D6E70000001001405F
:103CD00000140140FEE703B401984100009850EA47
:103CE000C12018BF04204A0D18BF40F0010040F267
:103CF000FF72B2EB515F08BF40F00200012808BF1D
:103D0000052002B070470907090E002804DB00F106
:103D1000E02080F80014704700F00F0000F1E02070
:103D200080F8141D704730380A2801D201207047EE
:103D3000002070472DED028B82B0FEF7BBFAFFF733
:103D40006BFEFFF72FFCFFF70FFCFFF757FDFFF7A8
:103D5000E1FCFFF737FDFFF7D5FBFFF7BBFCFFF7F3
:103D6000FDFCFFF7D3FA0020FFF780FA8448FFF745
:103D700057F81E2283498448FDF772FE834D0024C4
:103D80004FF6FF76A87800281BD1334680A21E216B
:103D90000A200094FFF7A0FB334685A246213C2071
:103DA0000094FFF799FB334684A26E213C200094D7
:103DB000FFF792FB334684A296210A200094FFF776
:103DC0008BFBA87801281BD1334686A21E210A202E
:103DD0000094FFF781FB33468AA246213C200094E1
:103DE000FFF77AFB33468AA26E213C200094FFF74E
:103DF00073FB33468AA296210A200094FFF76CFBDE
:103E00009FED8F8ADFED8F8AA878002821D1E8788E
:103E1000012849D10020FFF729FA33465CA21E2170
:103E20000A200094FFF758FB334661A246213C204C
:103E30000094FFF751FB334660A26E213C200094B2
:103E4000FFF74AFB334660A296210A200094FFF751
:103E500043FBA878012825D1E878002853D1FFF743
:103E600005FA4FF480502C61C5E9010433465DA288
:103E70001E210A200094FFF72FFB334661A2462142
:103E80003C200094FFF728FB334661A26E213C20C2
:103E90000094FFF721FB334661A296210A2000948B
:103EA000FFF71AFBA87858BBEC7095ED040AB8EE42
:103EB000400A20EE080A20EE280A10EE100A00F050
:103EC000E7F841EC100B2F4853EC102B5EA1783033
:103ED000FCF75AFA2B4A3346783246217820009470
:103EE000FFF7FAFA27485AA196302A69FCF74CFAEC
:103EF000244A334696326E2178200094FFF7ECFA7C
:103F0000A878012880D10120E87095ED020AB8EE6A
:103F1000400A20EE080A20EE280A10EE100A00F0EF
:103F2000B7F841EC100B174853EC102B46A1B430F6
:103F3000FCF72AFA134A3346B43246218C20009407
:103F4000FFF7CAFA95ED010AB8EE400A20EE080A1A
:103F500020EE280A10EE100A00F09AF841EC100B3F
:103F6000084853EC102B38A1D230FCF70DFA054A63
:103F70003346D2326E218C200094FFF7ADFA43E72E
:103F8000CC020020280000201801002000000020A2
:103F90003D3D3D3D3D3D3D20444320566F6C746D9D
:103FA00065746572203D3D3D3D3D3D3D0000000096
:103FB000566F6C746167653A202000004144436E7F
:103FC000756D3A20202000003D3D3D3D3D3D3D3D8D
:103FD0003D3D3D3D3D3D3D3D3D3D3D3D3D3D3D3D11
:103FE0003D3D3D003D3D3D3D3D3D3D204D41582D3C
:103FF0004D494E2056414C5545203D3D3D3D3D3DB2
:104000003D0000004D41585F566F6C743A2020000F
:104010004D494E5F566F6C743A202020000000001E
:104020003D3D3D3D3D3D3D3D3D3D3D3D3D3D3D3DC0
:104030003D3D3D3D3D3D3D3D3D3D3D3D00000000A4
:1040400033335340000080392025312E326656002C
:10405000202530346400000010B500290AD008780B
:10406000002807D005487844FCF780FE002801D0DE
:10407000002010BD0248784410BD0000F207000087
:10408000EA0700000808A0F500114FEA3101704767
:1040900043004FEAD30C4FEA3C0C43401FBF40079C
:1040A0000CF1605113F0FE4F70471CF0006F03D10C
:1040B00000200CF0004170470CF0004343EA5070C0
:1040C00010B540EACC0000F00EF800BF00000092EE
:1040D0004FEA0001FFF7D6BF4FF000414FF000005C
:1040E000A1F5002170470EF1020E2EF0030E5EF8CE
:1040F000044B244204D44FEA4102B2F17F4F11D85D
:104100004FEA4003B3F17F4F0CD80ED14FEAD07C79
:10411000B2F17F4F0CEB4C0C0CF1020C08BF4CEBD6
:10412000D17C04E04FF0080C01E04FEAD17C0CEBAD
:104130004C0324FA03F404F00704B4F1040C06D28F
:104140000EEB840CBDE810404CF0010C6047DFE83A
:104150000CF0070802024FF00040A0F5800010BDEF
:104160000846420018BFD2F1807288BF00F00040BC
:1041700010BD4FF04070E1EE100A7047FCF774BBC1
:1041800000061016000610160000000000000000D7
:1041900001020304060708090000000001020304ED
:1041A000000000000000000000000000000000000F
:1041B0000000000808080808080800001818000097
:1041C00000486C2412000000000000000000000005
:1041D0000000002424247F1212127F121212000009
:1041E0000000081C2A2A0A0C1828282A2A1C080859
:1041F00000000022251515152A5854545422000099
:104200000000000C1212120A76252911916E00008E
:10421000000606040300000000000000000000008B
:10422000004020101008080808080810102040005E
:1042300000020408081010101010100808040200F2
:104240000000000008086B1C1C6B08080000000040
:1042500000000000080808087F080808080000009F
:10426000000000000000000000000000060604033B
:104270000000000000000000FE0000000000000040
:104280000000000000000000000000000606000022
:1042900000008040402020101008080404020200A2
:1042A00000000018244242424242424224180000C8
:1042B000000000080E08080808080808083E00006A
:1042C0000000003C4242422020100804427E0000D0
:1042D0000000003C4242201820404042221C0000C6
:1042E000000000203028242422227E202078000094
:1042F0000000007E0202021A26404042221C0000FA
:10430000000000382402021A26424242241800000B
:104310000000007E2222101008080808080800008B
:104320000000003C4242422418244242423C000029
:10433000000000182442424264584040241C0000FF
:10434000000000000000181800000000181800000D
:104350000000000000000008000000000008080441
:104360000000004020100804020408102040000053
:104370000000000000007F0000007F00000000003F
:104380000000000204081020402010080402000071
:104390000000003C42424640201010001818000067
:1043A0000000001C225A555555552D42221C000074
:1043B0000000000808181414243C224242E70000C0
:1043C0000000001F2222221E22424242221F000021
:1043D0000000007C4242010101010142221C000058
:1043E0000000001F2242424242424242221F00007D
:1043F0000000003F4212121E12120242423F000011
:104400000000003F4212121E1212020202070000B8
:104410000000003C2222010101712122221C000027
:10442000000000E7424242427E42424242E7000030
:104430000000003E0808080808080808083E0000B8
:104440000000007C10101010101010101010110F30
:104450000000007722120A0E0A12122222770000B0
:10446000000000070202020202020202427F000074
:1044700000000077363636362A2A2A2A2A6B0000B0
:10448000000000E346464A4A525252626247000028
:104490000000001C2241414141414141221C0000D9
:1044A0000000003F424242423E0202020207000078
:1044B0000000001C2241414141414D53321C60002B
:1044C0000000003F4242423E1212222242C7000038
:1044D0000000007C4242020418204042423E00009C
:1044E0000000007F4908080808080808081C0000A8
:1044F000000000E74242424242424242423C000047
:10450000000000E742422224241414180808000086
:104510000000006B494949495555362222220000C6
:10452000000000E7422424181818242442E7000061
:10453000000000772222141408080808081C000054
:104540000000007E2120101008040442423F0000B9
:10455000007808080808080808080808080878000B
:104560000000020204040808081010202020404027
:10457000001E1010101010101010101010101E003F
:1045800000384400000000000000000000000000AF
:10459000000000000000000000000000000000FF1C
:1045A00000060800000000000000000000000000FD
:1045B000000000000000003C4278444242FC000041
:1045C000000000030202021A26424242261A00009C
:1045D00000000000000000384402020244380000DD
:1045E00000000060404040784442424264D80000ED
:1045F000000000000000003C427E0202423C00003D
:10460000000000F08808087E08080808083E00003E
:10461000000000000000007C22221C023C42423CC0
:10462000000000030202023A4642424242E7000012
:104630000000000C0C00000E08080808083E0000EE
:104640000000003030000038202020202020221ED2
:104650000000000302020272120A16122277000002
:104660000000000E0808080808080808083E0000B6
:10467000000000000000007F9292929292B700002A
:10468000000000000000003B4642424242E70000BA
:10469000000000000000003C42424242423C000058
:1046A000000000000000001B26424242221E0207BA
:1046B000000000000000007844424242447840E09C
:1046C00000000000000000774C040404041F0000F8
:1046D000000000000000007C42023C40423E00001E
:1046E000000000000008083E080808080830000024
:1046F00000000000000000634242424262DC000011
:1047000000000000000000E7422424140808000014
:1047100000000000000000EB49495555222200002E
:10472000000000000000007624181818246E000015
:1047300000000000000000E74224241418080807C5
:10474000000000000000007E22100808447E0000E7
:1047500000C0202020202010202020202020C00069
:104760001010101010101010101010101010101049
:1047700000060808080808100808080808080600C5
:104780000C32C20000000000000000000000000029
:10479000040000080000000000000002000100000A
:1047A0001000000002400000000000A00000000017
:1047B00005400000000000C8000000000C400000A0
:1047C0000000409C00000000194000000020BCBE1A
:1047D0000000000034400000BFC91B8E0000000430
:1047E000B5400000504BCFD06607E2CF010000007B
:1047F0006C4100003E8251AADFEEA73401000000A8
:10480000D9420000DCB5A0E23A301F97FFFFFFFF5E
:10481000B4450000FD25A0C8E9A3C14FFFFFFFFF7D
:10482000FF3F00000000008000000000FF3F00008C
:104830000000008000000000744800080000002014
:1048400028000000D40100089C480008280000202F
:10485000D8090000F00100081C000000430000001F
:10486000F8FFFFFF0C0000000E0000000F0000002A
:104870002E000000000000000010000000000000FA
:104880000000000000000000010000001000000017
:0C489000000000000024F400F0004001D3
:040000050800019955
:00000001FF
