:020000040800F2
:1000000050060020B1010008EB1B00080D19000884
:10001000E91B0008E50300083D210008000000007E
:100020000000000000000000000000007F1F00082A
:10003000A504000800000000ED1B0008811F000857
:10004000CB010008CB010008CB010008CB01000860
:10005000CB010008CB010008CB010008CB01000850
:10006000CB010008CB010008CB010008CB01000840
:10007000CB010008CB010008CB010008CB01000830
:10008000CB010008CB010008CB01000800000000F4
:10009000000000000000000000000000CB0100088C
:1000A000CB010008CB010008CB010008CB01000800
:1000B000CB010008CB010008CB010008CB010008F0
:1000C000CB010008CB010008CB010008F11B0008A0
:1000D000CB010008CB010008CB01000800000000A4
:1000E000CB010008CB010008CB0100080000000094
:1000F000000000000000000000000000CB0100082C
:1001000000000000CB010008CB010008CB01000873
:1001100000000000000000000000000000000000DF
:10012000E9030008CB010008F5030008CB01000833
:10013000CB010008000000000000000000000000EB
:10014000000000000000000000000000CB010008DB
:10015000CB010008CB010008CB010008CB0100084F
:10016000CB010008CB0100080000000000000000E7
:10017000000000000000000000000000000000007F
:1001800000000000CB01000800000000000000009B
:10019000CB010008CB010008DFF810D000F07CF89C
:1001A000004800477D210008AFF300805006002082
:1001B0000648804706480047FEE7FEE7FEE7FEE701
:1001C000FEE7FEE7FEE7FEE7FEE7FEE72120000888
:1001D000990100082DE9F05F0546002092469B46F4
:1001E00088460646814640241BE02846414647464D
:1001F000224600F041F853465A46C01A914110D3A6
:1002000011461846224600F028F82D1A67EB01081F
:100210004F4622460120002100F01FF817EB00098D
:100220004E41201EA4F10104DFDC484631462A4637
:100230004346BDE8F09FD2B201E000F8012B491E11
:10024000FBD270470022F6E710B513460A46044673
:100250001946FFF7F0FF204610BD202A04DB203AA4
:1002600000FA02F1002070479140C2F1200320FA09
:1002700003F3194390407047202A04DB203A21FA07
:1002800002F00021704721FA02F3D040C2F12002AF
:100290009140084319467047064C074D06E0E06858
:1002A00040F0010394E8070098471034AC42F6D3BD
:1002B000FFF776FFEC2100080C220008464910B534
:1002C0004A6822F440324A604A6843681A434A60E6
:1002D00001684A6822F480724A6001684A680369CA
:1002E00042EA03224A6001684A6822F040724A608A
:1002F00001684A6883681A434A6001688A6822F480
:1003000000628A6001688A68C3681A438A60816AE9
:100310006FF07062D14201688A6822F070628A6070
:1003200001688A680CD0836A1A438A6001688A6807
:1003300022F040528A6001688A68C36A1A4301E069
:1003400022F040528A6001688A6822F002028A60C4
:1003500001688A68037E42EA43028A6090F82010AE
:10036000002901684A680FD042F400624A600168BF
:100370004A6822F460424A6001684A68174C436A3E
:1003800004EB43331A4301E022F400624A6001683F
:10039000CA6A22F47002CA620168CA6A838B104C6E
:1003A00004EB03531A43CA6201688A6822F400729C
:1003B0008A6001688A6890F8303042EA43228A6095
:1003C00001688A6822F480628A6001688A684069EC
:1003D00042EA8020886010BD0023014000E0FFFF5A
:1003E0000000F0FFFEE70000014800F099B90000AE
:1003F00058000020014800F093B90000640100207B
:1004000001681823CAB2103AB2FBF3F2054B6FF33E
:100410000901032A9B5CC36500D9091D8165084653
:1004200070470000CC21000810B5014600208B6900
:100430008A6A4FF0C07453B1B3F5005F15D072B142
:10044000012A0CD0022A0AD0032A09D104E01AB1E9
:10045000012A06D0022A03D1C96AC90100D50120A8
:1004600010BDC96AA142FAD010BD002AF7D0012AF6
:10047000F2D0022AF3D0032AF3D010BD30B50468BD
:10048000256825F480252560046863608368402B17
:10049000036803D099600068C26030BD9A6000684C
:1004A000C16030BD704772B6FEE7000078B5002429
:1004B000009490F83C20012A19D0012280F83C20B9
:1004C0000A6807230568092A13D9EE680A3A02EB7D
:1004D000420293409E43EE600B788A680A3B03EB2E
:1004E00043039A400368DD682A43DA6010E0022083
:1004F00078BD2E6902EB420293409E432E610B7839
:100500008A6803EB43039A4003681D692A431A6112
:100510004A681F23072A13D205686E6B521E02EB2E
:10052000820293409E436E630A8893B20A79521EF8
:1005300002EB820293400268556B2B43536327E022
:1005400005680D2A12D22E6BD21F02EB8202934055
:100550009E432E630B790A88DB1F92B203EB830361
:100560009A4003681D6B2A431A6311E0EE6A0D3A44
:1005700002EB820293409E43EE620B790A880D3BA8
:1005800092B203EB83039A400368DD6A2A43DA627E
:100590001B4B0568194A9D420AD10D68122D07D1DF
:1005A000556825F400055560556845F4800555608B
:1005B00005689D421DD1134D0B68AB4201D0112B34
:1005C00017D1536823F480035360536843F4000346
:1005D00053600968A9420CD10B490C4A0968B1FB68
:1005E000F2F101EB8101490000E0491E0091002970
:1005F000FBD180F83C40002078BD00000023014082
:1006000000200140120000100C00002040420F00AA
:1006100070B504004FF0000503D0206C002610B127
:1006200007E0012070BD204600F01CF8666484F8E5
:100630003C60206CC00610D4206C20F4885040F040
:10064000020020642046FFF739FE6664206C20F02B
:10065000020040F00100206400E0012584F83C60C5
:10066000284670BD70B586B0064614216846FFF76F
:10067000E9FD1D493068884234D11C4800250168D5
:1006800041F480710160006800F4807005901748A3
:100690001438016841F0010101600068694600F00A
:1006A00001000590012000900320CDE901051048CC
:1006B00000F0BAF9104C0F48C4E900050015A56018
:1006C000C4E90350800060618000A0618011C4E92A
:1006D00007052046656200F0F3F808B1FFF7E3FE76
:1006E000B463A66306B070BD0020014044380240E8
:1006F00000000240106402405800002090F83510BD
:10070000022903D08021416501207047052180F82E
:1007100035100068016821F0010101600020704778
:100720002DE9F84304464FF00009CDF800906348E6
:100730004FF41651A56D0068B0FBF1F72E6894F8E0
:100740005C10082000FA01F131420FD021680A68DC
:1007500052070BD50A6822F004020A6094F85C1074
:100760008840A860606D40F00100606594F85C10FE
:100770004FF0010808FA01F0304208D021684969B9
:10078000090604D5A860606D40F00200606594F829
:100790005C1004208840304208D02168096889072D
:1007A00004D5A860606D40F00400606594F85C10AA
:1007B00010208840304218D021680968090714D5F4
:1007C000A86020680168490304D50068000308D5C3
:1007D000A16C07E00168C90503D4016821F0080194
:1007E0000160216C09B12046884794F85C102020F4
:1007F0008840304231D021680968C9062DD5A860EB
:1008000094F8350005282068016806D0490347D5CB
:10081000006800031DD4616C1CE021F0160101602A
:100820002068416921F080014161206C08B9A06C09
:1008300020B12068016821F00801016094F85C1083
:100840003F208840A86084F8358084F83490216D7A
:100850001FE0E16B09B120468847606D00282BD06E
:10086000606DC00714D0052084F835002068016849
:1008700021F0010101600098401C0090B84203D8AB
:1008800020680068C007F6D184F8358084F8349079
:10089000E16C002910D001B02046BDE8F0430847C4
:1008A0000168C905D5D4016821F01001016084F800
:1008B000358084F83490CCE7BDE8F8830C00002044
:1008C0002DE9F041044600F0A5F906465CB102208E
:1008D00084F83500002584F834502068016821F040
:1008E000010101600DE00120BDE8F08100F092F906
:1008F000801B052805D920206065032084F8350079
:10090000F2E720680068C007F0D12268116820482B
:100910000140D4E901031843D4E9033633431843B3
:1009200063691843A3691843E3691843236A1843AA
:100930000843616A042903D1D4E90B13194308431E
:10094000106020684069666A20F0070130460E4357
:10095000012704280CD1A06A0643E06A40B1204672
:10096000FFF762FD20B14020606584F83570BAE77A
:10097000206846612046FFF743FD94F85C203F2144
:1009800091408160656584F835700020ACE7000017
:100990003F8010F02DE9F0410446866D90F8340058
:1009A000002501280DD0012084F8340094F835701A
:1009B0000020012F07D084F8340002252846BDE826
:1009C000F0810220FBE7022784F83570606520463D
:1009D000FFF754FD94F85C103F208840B060206819
:1009E000016841F016010160206C20B120680168A7
:1009F00041F0080101602068016841F001010160D7
:100A0000DCE7000070B5044600F004F90546601C00
:100A100002D004480078044400F0FCF8401BA042D7
:100A2000FAD370BD000000202DE9F84FDFF8B8A11F
:100A30000022012403254FF00F090AF1040BAAF14B
:100A4000040E00BF0B6804FA02F63340B34273D1C0
:100A50000F7907F00307012F01D0022F16D1876805
:100A60004FEA420805FA08FC27EA0C07D1F80CC047
:100A70000CFA08FC4CEA070CC0F808C04768B743FA
:100A80000E79C6F3001696403E4346600E79F64353
:100A9000B6070DD0C768560005FA06FC27EA0C0712
:100AA000D1F808C00CFA06FC4CEA070CC0F80CC0E0
:100AB0000E7906F00306022E10D1D60800EB860848
:100AC000D8F8206057074FEAD76C09FA0CF7BE43F5
:100AD0000F6907FA0CF73743C8F8207006684FEA29
:100AE000420C05FA0CF7BE430F7907F0030707FA2B
:100AF0000CF7374307604E6816F4403F6DD03B4E0D
:100B0000376847F480473760366822F0030706F4F9
:100B100080460096364E07EB060CDCF8086897070F
:100B20003F0F09FA07F826EA0806DFF8C8804045B3
:100B300003D14FF000081EE04FE0DFF8BC804045D5
:100B400002D14FF0010816E0DFF8B080404502D135
:100B50004FF002080FE0DFF8A880404502D14FF0C7
:100B6000030808E0DFF89C80404502D14FF00408FC
:100B700001E04FF0070808FA07F848EA0608CCF841
:100B80000888DAF800605746D1F804C09E435FEA4F
:100B9000CC2C00D51E433E60DBF800605F46D1F8E8
:100BA00004C09E435FEA8C2C00D51E433E60DEF8F5
:100BB00000607746D1F804C09E435FEA8C3C00D5C4
:100BC0001E433E60084F083F3E68D1F804C09E4374
:100BD0005FEACC3C00D51E433E60521C102AFFF455
:100BE00031AFBDE8F88F0000083C014044380240B6
:100BF00000300140000002400004024000080240B2
:100C0000000C0240001002400AB1816170470904E3
:100C1000FBE70000014880687047000000000020EA
:100C200070B5040025D094F83D00002520B984F863
:100C30003C50204600F0B8F8242084F83D0020689D
:100C4000016821F0010101602068016841F4004160
:100C500001602068016821F40041016000F010FA91
:100C60004D4A6168914201D84C4900E04C498842A4
:100C700001D2012070BD4B492368B0FBF1F15E68E1
:100C800026F03F060E435E606368934206D94FF438
:100C9000967359434FF47A73B1FBF3F12368491CFF
:100CA0001E6A26F03F06314319626168914210D8EE
:100CB0004900401EB0FBF1F2521CC2F30B02042AA1
:100CC00001D2042022E0B0FBF1F0401CC0F30B0085
:100CD0001CE0A268F2B301EBC10303EB0116431E53
:100CE000B3FBF6F35B1C43F480431B0549D092B37E
:100CF00001EBC10202EB0111401EB0FBF1F0401C00
:100D0000C0F30B0040F4804040F400402168CA6901
:100D10004CF6FF739A431043C861D4E907100143AE
:100D20002068026822F0C00211430160D4E9030187
:100D300001432068826848F2FF339A43114381607F
:100D4000D4E9050108432168CA6822F0FF02104374
:100D5000C86001E00EE016E02068016841F0010182
:100D600001602564202084F83D00256384F83E500E
:100D7000002070BD01EB4106431EB3FBF6F35B1C84
:100D8000B3E70120C2E701EB4101401EB0FBF1F0E7
:100D9000401CC0F30B00B7E7A086010080841E0052
:100DA00000093D0040420F0010B586B004461421F2
:100DB0006846FFF747FA14492068884221D1134852
:100DC0000021026842F002020260006800F00200A6
:100DD00005904FF4C07000901220CDE9010103206E
:100DE00003900420049069460948FFF71DFE074858
:100DF0001030016841F400110160006800F4001037
:100E0000059006B010BD000000540040303802408C
:100E100000040240024881680278114481607047F2
:100E2000000000200B4810B5016841F4007101601A
:100E3000016841F480610160016841F480710160E2
:100E4000032000F071F8002000F006F800F024F80C
:100E5000002010BD003C024070B50D4D04464FF41B
:100E60007A712878B1FBF0F00A490968B1FBF0F01B
:100E700000F0B5FC48B9102C07D200222146501EC4
:100E800000F032F800206C6070BD012070BD0000E1
:100E9000000000200C0000200B4882B0016841F4E3
:100EA00080410160006800F4804000900648001F07
:100EB000016841F080510160006800F080500090AE
:100EC000072002B000F030B844380240002809DBA7
:100ED00000F01F02012191404009800000F1E02054
:100EE000C0F8001170470000F0B40E4B1B680C46B0
:100EF000C3F30223C3F10705042D00D90425191DEE
:100F0000072901D2002300E0DB1E012606FA05F1C5
:100F1000491E214099409E40761E16403143F0BC48
:100F200001F00DB90CED00E0064900F00702086879
:100F30004FF6FF03184040EA0220034A10430860BE
:100F4000704700000CED00E00000FA052DE9F047C5
:100F50000E46050065D0DFF81481D8F80000F7B21E
:100F600000F00700B04207D288F80070D8F80000FF
:100F700000F00700B04254D128683D4C810712D5DB
:100F8000400703D5206840F4E0502060287800072F
:100F900003D5206840F4604020602068A96820F0F4
:100FA000F000084320602878C0072DD030496868D9
:100FB0000839012812D0022813D0032811D009685B
:100FC000890700292DDA216821F0030101432160FE
:100FD000FFF720FE814641F2883A0EE00968890356
:100FE000EFE709688901ECE7FFF714FEA0EB0901C0
:100FF000514502D90320BDE8F0872068696800F0F8
:101000000C00B0EB810FEFD1D8F80010404601F092
:101010000701B14207D90770006800F00700B0422D
:1010200001D00120E7E72878400705D52068E96866
:1010300020F4E050084320602878000706D5206897
:10104000296920F4604040EAC100206000F038F8CF
:101050002168084AC1F30311515CC8400649086081
:1010600006480068FFF7F8FE0020C4E7003C024095
:1010700008380240D42100080C00002004000020A1
:101080000448054900680968044AC1F38221515C9B
:10109000C84070470C00002008380240E4210008D6
:1010A0000448054900680968044AC1F34231515CAB
:1010B000C84070470C00002008380240E4210008B6
:1010C000154810B5006810F00C02144813D04110F8
:1010D000042A0FD0082A0ED10F4C241F226823683F
:1010E00002F03F025B0207D52068C0F38810A0FB26
:1010F000010106E0084610BD2168C1F38811A1FB7B
:1011000000010023FFF766F82168C1F30141491C83
:101110004900B0FBF1F010BD083802400024F40093
:101120002DE9F84F04006ED02078DFF84C93C0070B
:10113000A9F104054AD009F104000168C1F3810155
:10114000012908D00068C0F3810002280AD1D9F82B
:101150000000400206D52868800337D56068002863
:10116000E1D033E06068B0F5803F10D0B0F5A02F3B
:10117000286810D020F480302860286820F480206F
:1011800028606068A8B1FFF745FD06460DE02868B5
:1011900040F48030F4E740F480202860F7E700BF97
:1011A000FFF738FD801B642873D828688003F7D5C3
:1011B0000CE0FFF72FFD064605E000BFFFF72AFD14
:1011C000801B6428F0D828688003F7D42078DFF8E3
:1011D000AC8280074FF0000A3ED5A748001D016889
:1011E00011F00C0F08D00068C0F3810002280BD169
:1011F000D9F80000400207D42868800716D5E068B7
:10120000012800D112E033E1E068B8B10120C8F84C
:101210000000FFF7FFFC064605E000BFFFF7FAFC01
:10122000801B0228C0D828688007F7D52868216964
:1012300020F0F80040EAC10028600DE0C8F800A0E6
:10124000FFF7E8FC064604E0FFF7E4FC801B0228F9
:101250001FD828688007F7D42078000722D5864F4A
:1012600087486169703771B101210160FFF7D2FCD5
:10127000064604E0FFF7CEFC801B022809D8386838
:101280008007F7D50EE0C0F800A0FFF7C3FC0646C4
:1012900005E082E0FFF7BEFC801B02287DD838689D
:1012A0008007F7D42078400768D5DFF8CCB1002755
:1012B0000BF13C0BDBF80000C0000BD4DBF8001096
:1012C00041F08051CBF80010DBF80000012700F05E
:1012D000805000906B4E3068C00510D4306840F4E8
:1012E00080703060FFF796FC009005E0FFF792FCFD
:1012F0000099401A022850D83068C005F6D55E4ED5
:10130000A0686C3601280FD00528306810D020F076
:1013100001003060306820F004003060A068B8B18F
:10132000FFF778FC00900FE0306840F00100F4E730
:1013300040F004003060F7E7FFF76CFC0099411AB9
:1013400041F28830814266D830688007F4D50EE0DB
:10135000FFF760FC009007E0FFF75CFC0099411A82
:1013600041F28830814256D830688007F4D42FB1DA
:10137000DBF8001021F08051CBF80010A069C8B351
:101380003D49091D0968C1F3810102294AD002289B
:10139000504607D0C8F8600000E03CE0FFF73AFC98
:1013A00004463BE04746C8F86000FFF733FC0646BA
:1013B00005E000BFFFF72EFC801B02282BD8286811
:1013C0008001F7D4D4E907010843A16A2E4A4908ED
:1013D00002EB0141626A41EA8211084394F82C1041
:1013E00040EA0161C9F8001001203866FFF712FCDD
:1013F000044606E03EE000BFFFF70CFC001B02289D
:1014000009D828688001F7D534E000BFFFF702FC57
:10141000001B022802D90320BDE8F88F286880014C
:10142000F4D427E00128F7D0D9F80000E26900F4ED
:10143000800191421CD1226A00F03F01914217D1F4
:1014400047F6C071626A0140B1EB821F10D1A26AF7
:101450004FF0FF3300F4403103EB5202B1EB024F87
:1014600006D194F82C1000F07060B0EB016F01D041
:101470000120D1E70020CFE70438024000004742B6
:10148000800E4742007000400000FFFF704790F858
:101490005100704738B5016804464A688868C043FF
:1014A000430606D5C30704D1D3435B0601D4216CA0
:1014B00005E0830708D4D3431B0605D4616C01B053
:1014C0002046BDE830400847830603D5430601D5D2
:1014D000C30551D4D3439B064ED443060AD494F893
:1014E0005130032B49D0636D43F004036365CB682F
:1014F0008B680093830609D4636D43F00103636531
:101500008B6800930B6823F040030B60C00506D482
:10151000606D40F008006065206880680090606D34
:10152000002829D02068416821F0E00141600120B5
:1015300084F85100900701D4D00722D02068416878
:1015400021F003014160114DE06C40B10565E06C94
:10155000FFF7D4F818B1606D40F040006065A06CF2
:10156000002809D00565A06CFFF7C8F8002803D053
:10157000606D40F04000606538BDC86888680090C4
:1015800038BD2046FFF782FF38BD0000FD1B000874
:1015900070B5040009D0606A002540B1256165611D
:1015A000A56294F8510040B10CE0012070BD606864
:1015B000B0F5827FF4D0E561F2E784F85050204620
:1015C00000F044F8022084F851002068016821F0FE
:1015D00040010160A088218900F4827001F4044177
:1015E0000843A18901F400610843217C01F0020154
:1015F0000843217D01F001010843218B01F40071B2
:101600000843217F01F03801084394F8201001F0CD
:1016100080010843218D01F40051084321680860CE
:10162000A069042101EA104094F8241001F010018F
:101630000843216848602068C16921F40061C161E4
:101640006565012084F85100002070BD70B586B03A
:10165000064614216846FEF7F5FD244930688842A5
:1016600042D123480025016841F48051016000689F
:1016700000F4805005901E481438016841F00101C3
:1016800001600068694600F001000590A02000900C
:101690000220CDE9010503200390052004901548A0
:1016A000FFF7C2F9154C144820604FF0806060606D
:1016B0004020C4E902050001C4E904054FF44030AC
:1016C000A561C4E9075020466562FFF7F9F808B143
:1016D000FEF7E9FEB464002211462320A663FFF75B
:1016E00003FC2320FFF7F2FB06B070BD0030014081
:1016F000443802400000024040640240640100207F
:101700002DE9F041044690F850000026012809D048
:10171000012784F8507094F851000025012804D066
:1017200002264EE00220BDE8F08189B182B103209B
:1017300084F8510065652163A286E286A56365642D
:101740002564A587E587A068B0F5004F02D00BE0BF
:10175000012636E02068016821F040010160206820
:10176000016841F480410160A16C18480864A16CD3
:101770001748C863A16C1748C864A06C0565E38E60
:101780002268216B0C32A06CFFF704F938B1606D50
:1017900040F010006065012684F8517011E0206867
:1017A0000168490603D4016841F0400101602068E6
:1017B000416841F0200141602068416841F0020128
:1017C000416084F850503046ADE700002F1C0008FF
:1017D000391C00080D1C000870477047704710B591
:1017E000401EB0F1807F01D3012010BD4FF0E024F6
:1017F00060610F21601700F0A2FC0020A0610720AB
:101800002061002010BD10B5FFF7E8FF10BD70B5D6
:10181000040004D094F83D00002510B106E001203A
:1018200070BD84F83C50204600F022F8242084F853
:101830003D002068C16821F40051C160204600F0DD
:10184000F7FB2068016921F490410161206841693A
:1018500021F02A0141612068C16841F40051C16052
:101860002564202084F83D0084F83E00002070BDEF
:10187000F0B587B0044614216846FEF7E3FC1F4F1D
:10188000236800221E490224032507261D48BB4267
:1018900013D11B4B14331F6847F010071F601B68E0
:1018A00003F0100305930B6843F001030B60096814
:1018B00001F001010591690215E0134FBB421AD1F5
:1018C0000F4B10331F6847F400371F601B6803F489
:1018D000003305930B6843F001030B60096801F0C6
:1018E000010105910C21CDE9001402AB694683E8A2
:1018F0006400FFF799F807B0F0BD00000010014048
:10190000303802400000024000440040FEE7000082
:101910007FB500251548009501950295124903955C
:10192000016001244FF480310461C0E9011504769F
:1019300080F820500E49C0E90A15C560C46180F8DE
:1019400030404461FEF764FE08B1FEF7ACFDCDE91E
:101950000054694605480295FEF7A8FD002801D00D
:10196000FEF7A1FD7FBD0000002001401000002017
:101970000100000F0D4808B5016841F480010160C5
:101980000068002200F48000009011463820FFF724
:10199000ABFA3820FFF79AFA002211463A20FFF7F7
:1019A000A3FABDE808403A20FFF790BA3038024069
:1019B0002DE9F04387B014216846FEF743FC484800
:1019C0000025016841F004010160016801F0040193
:1019D0000591016841F080010160016801F080011A
:1019E0000591016841F001010160016801F0010108
:1019F0000591016841F0020101600068394F00F073
:101A000002000590002283213846FFF7FDF8DFF839
:101A1000D880002212214046FFF7F6F8DFF8CC907C
:101A2000002249214846FFF7EFF84FF4005000909C
:101A30004FF40410CDE9010569463846FEF7F4FF7E
:101A400001240326CDE9006469463846CDE9024504
:101A5000FEF7EAFF0220CDE9000469464046CDE9E1
:101A60000245FEF7E1FF10208DE87100694640460F
:101A7000FEF7DAFF0920CDE9000469464846CDE9C2
:101A80000245FEF7D1FF4FF48260CDE900056946BB
:101A900002944846FEF7C8FF80208DE87100694631
:101AA0003846FEF7C1FF2002CDE9000569460294E1
:101AB0004046FEF7B9FF202000904FF48810CDE992
:101AC000010469464846FEF7AFFF40208DE87100EB
:101AD00069464846FEF7A8FF07B0BDE8F08300005E
:101AE000303802400008024000000240000402407A
:101AF0000D4810B50B4901600C49416000214FF4BD
:101B000080428160C0E9031241618161C16101626B
:101B1000FFF786F8002803D0BDE81040FEF7C3BCED
:101B200010BD000000540040B8000020A086010055
:101B3000104810B50E4901604FF4827141604FF4B6
:101B4000004181600021C1604FF400720161C0E971
:101B50000512C1610162416281620A21C162FFF71F
:101B600017FD002803D0BDE81040FEF79CBC10BD57
:101B7000003001400C0100200C4810B50A490160FA
:101B80004FF4E1314160002181600C22C160C0E965
:101B900004128161C161FFF73AFE002803D0BDE85D
:101BA0001040FEF780BC10BD00100140C4010020B1
:101BB0000C4810B50A4901604FF4E1314160002141
:101BC00081600C22C160C0E904128161C161FFF72C
:101BD0001EFE002803D0BDE81040FEF764BC10BD17
:101BE0000044004008020020FEE7FEE770470000C6
:101BF0000148FFF74FBC00000C01002010B5806BBE
:101C00000021C187C186FFF741FC10BD10B5806B74
:101C100001684A6822F003024A60416D41F01001F8
:101C20004165012180F85110FFF730FC10BD10B55F
:101C3000806BFFF7D2FD10BD38B50546846BFEF70B
:101C4000E9FF024628680068C00523D4206841687F
:101C500021F0200141602068416821F002014160CB
:101C60006421204600F01AF818B1606D40F02000A1
:101C70006065A068002118B92068C268806800907B
:101C8000E186012084F85100606D18B12046FFF70D
:101C9000FDFB38BD2046FFF79FFD38BD38B5044633
:101CA0001248134B0068B0FBF3F04FF47A735843BB
:101CB00000906068B0F5827F0DD10B460092002243
:101CC0008021204600F016F870B1606D40F02000D1
:101CD0006065032038BD009830B1401E0090206838
:101CE0008068C0430006F6D5002038BD0C000020F7
:101CF00000366E012DE9F8431E469146884604469B
:101D0000089DFEF787FF401B351AFEF783FF074645
:101D100025480068C0F3CB30684338E0701C37D0EA
:101D2000FEF778FFC01BA84203D215B1009860B33C
:101D30002CE02068416821F0E00141606068B0F566
:101D4000827F0BD1A068B0F5004F02D0B0F5806F54
:101D500004D12068016821F040010160A06AB0F55B
:101D6000005F09D12068016821F4005101602068FA
:101D7000016841F400510160012084F85100002005
:101D800084F850000320BDE8F8830025401E009031
:101D90002068816838EA010004D000214945BDD19E
:101DA0000020F0E70121F9E70C000020F0B55D1AF2
:101DB000ADF5017D141A641C6D1C1433A4B2ADB2D0
:101DC0009BB2869E00F06CF870BA81B26C43002022
:101DD0004FEA0D0222F81010401CFF28FAD9012208
:101DE00080211148FEF710FF002210210F48FEF756
:101DF0000BFF4FF480764FF6FF770FE03546AC428D
:101E000000D8254607EA450269460948FFF778FCED
:101E10000748FFF73CFB0128FAD1641B002CEDD1E9
:101E20000DF5017DF0BD00000008024000000240F9
:101E30000C01002008B5002100904FF48C73F022B3
:101E40000846FFF7B3FF08BD10B500F091F8012276
:101E500040211248FEF7D8FE012000F04DF84FF463
:101E60007A70FEF7CFFD112000F046F87820FEF7DB
:101E7000C9FD362000F040F8002000F05BF83A2061
:101E800000F03AF8052000F055F8212000F034F871
:101E9000BDE81040292000F02FB8000000040240E7
:101EA0002DE9F04106461C4615460F462A2000F053
:101EB00023F8300A00F03EF8F0B200F03BF8280AB0
:101EC00000F038F8E8B200F035F81437BDB22B2036
:101ED00000F012F8280A00F02DF8E8B200F02AF815
:101EE000200A00F027F8E0B200F024F8BDE8F04145
:101EF0002C2000F001B8000031B5002280210A48F2
:101F0000FEF782FE094C002210212046FEF77CFEDF
:101F1000012269460648FFF7F3FB01221021204603
:101F2000FEF772FE38BD00000008024000000240CB
:101F30000C01002031B5012280210A48FEF764FE21
:101F4000094C002210212046FEF75EFE0122694660
:101F50000648FFF7D5FB012210212046FEF754FE6C
:101F600038BD000000080240000002400C010020C3
:101F700010B5FFF7DDFDBDE81040FFF719BD704754
:101F800010B5FEF747FFBDE81040FFF73CBC00006E
:101F900030B593B030216846FEF754F914210CA8EF
:101FA000FEF750F91C480025016841F0805101609E
:101FB000006800F0805011901848016841F44041D9
:101FC00001600068022400F440401190012000905C
:101FD0004FF4A02001906005CDE9064008AA042036
:101FE000642182E813000B906846FFF799F808B166
:101FF00072B6FEE70CA90F2081E831004FF4805043
:10200000CDE90F0503210CA8FEF7A0FF002801D0A1
:1020100072B6FEE713B030BD403802400070004099
:102020000248016841F470010160704788ED00E0EA
:1020300070B5044600680169E26821F4405111431B
:1020400001612169A068E26908436169114308439D
:102050002168CA6849F20C639A430243CA60206847
:102060004169A26921F440711143416131492068FD
:10207000884202D03049884202D1FFF711F801E0CE
:10208000FEF7FEFFE2690023192164253226B2F52E
:10209000004F626828D0A0FB0101930F9200FEF769
:1020A00099F80146B0FBF5F06FF01802504301EBD0
:1020B000800006EB0010B0FBF5F000F0F002B1FB81
:1020C000F5F002EB0012B1FBF5F06FF01803584386
:1020D00001EB800006EB0010B0FBF5F000F00F0004
:1020E00021681044886070BDA0FB010192185B411B
:1020F000FEF770F80146B0FBF5F00201B1FBF5F018
:102100006FF01803584301EB800006EBC000B0FBF2
:10211000F5F000F0F80002EB4002B1FBF5F0584397
:1021200001EB800006EBC000B0FBF5F000F007000B
:10213000D6E700000010014000140140FEE7090747
:10214000090E002804DB00F1E02080F8001470473D
:1021500000F00F0000F1E02080F8141D704702E04D
:1021600008C8121F08C1002AFAD170477047002022
:1021700001E001C1121F002AFBD17047FEF752FE99
:10218000FFF706FFFFF714FCFFF7F4FBFFF710FD66
:10219000FFF7CEFCFFF7F0FCFFF7BAFBFFF7A8FC58
:1021A000FFF752FE1F20FFF745FE4FF47A742046DA
:1021B000FEF728FC4FF6FF70FFF73CFE2046FEF7C7
:1021C00021FC4FF47840FFF735FEFEE700061016BD
:1021D00000061016000000000000000001020304C9
:1021E0000607080900000000010203040C22000891
:1021F00000000020100000005E2100081C220008E2
:1022000010000020400600006E21000801000000C0
:0C22100010000000000000000024F4009A
:040000050800019955
:00000001FF
