:020000040800F2
:1000000070080020B101000863260008ED220008F6
:100010006126000835040008CD2C0008000000000F
:10002000000000000000000000000000852600081D
:100030000D0500080000000065260008872600085E
:10004000CB010008CB010008CB010008CB01000860
:10005000CB010008CB010008CB010008CB01000850
:10006000CB010008CB010008CB010008CB01000840
:10007000CB010008CB010008CB010008CB01000830
:100080003904000845040008CB0100080000000006
:10009000000000000000000000000000CB0100088C
:1000A000CB010008CB010008CB010008CB01000800
:1000B0002D270008CB010008CB010008CB01000868
:1000C000CB010008CB010008CB010008692600081D
:1000D000CB010008CB010008C12C00080000000083
:1000E000CB010008CB010008CB0100080000000094
:1000F000000000000000000000000000CB0100082C
:1001000000000000CB010008CB010008CB01000873
:1001100000000000000000000000000000000000DF
:1001200051040008CB0100085D040008CB01000861
:10013000CB010008000000000000000000000000EB
:10014000000000000000000000000000CB010008DB
:10015000CB010008CB010008CB010008CB0100084F
:10016000CB010008CB0100080000000000000000E7
:10017000000000000000000000000000000000007F
:1001800000000000CB01000800000000000000009B
:10019000CB010008CB010008DFF810D000F0A4F874
:1001A00000480047052F0008AFF3008070080020CA
:1001B0000648804706480047FEE7FEE7FEE7FEE701
:1001C000FEE7FEE7FEE7FEE7FEE7FEE71D27000885
:1001D000990100082DE9F05F0546002092469B46F4
:1001E00088460646814640241BE02846414647464D
:1001F000224600F069F853465A46C01A914110D37E
:1002000011461846224600F050F82D1A67EB0108F7
:100210004F4622460120002100F047F817EB000965
:100220004E41201EA4F10104DFDC484631462A4637
:100230004346BDE8F09FD2B201E000F8012B491E11
:10024000FBD270470022F6E710B513460A46044673
:100250001946FFF7F0FF204610BD30B505462A4687
:100260000B4612F8010B13F8014B08B1A042F8D06D
:100270001CB1002802D06D1CF1E7284630BD30B516
:100280000B46014600202022012409E021FA02F554
:100290009D4205D303FA02F5491B04FA02F52844EE
:1002A000151EA2F10102F1DC30BD202A04DB203A48
:1002B00000FA02F1002070479140C2F1200320FAB9
:1002C00003F3194390407047202A04DB203A21FAB7
:1002D00002F00021704721FA02F3D040C2F120025F
:1002E0009140084319467047064C074D06E0E06808
:1002F00040F0010394E8070098471034AC42F6D36D
:10030000FFF74EFF742F0008942F0008464910B5E0
:100310004A6822F440324A604A6843681A434A6095
:1003200001684A6822F480724A6001684A68036979
:1003300042EA03224A6001684A6822F040724A6039
:1003400001684A6883681A434A6001688A6822F42F
:1003500000628A6001688A68C3681A438A60816A99
:100360006FF07062D14201688A6822F070628A6020
:1003700001688A680CD0836A1A438A6001688A68B7
:1003800022F040528A6001688A68C36A1A4301E019
:1003900022F040528A6001688A6822F002028A6074
:1003A00001688A68037E42EA43028A6090F820105E
:1003B000002901684A680FD042F400624A6001686F
:1003C0004A6822F460424A6001684A68174C436AEE
:1003D00004EB43331A4301E022F400624A600168EF
:1003E000CA6A22F47002CA620168CA6A838B104C1E
:1003F00004EB03531A43CA6201688A6822F400724C
:100400008A6001688A6890F8303042EA43228A6044
:1004100001688A6822F480628A6001688A6840699B
:1004200042EA8020886010BD0023014000E0FFFF09
:100430000000F0FFFEE70000014800F0EFB9000007
:100440000C040020014800F0E9B90000AC030020D2
:10045000014800F0E3B9000070010020014800F0FD
:10046000DDB900007C02002001681823CAB2103AEE
:10047000B2FBF3F2054B6FF30901032A9B5CC365E2
:1004800000D9091D8165084670470000542F0008F7
:1004900010B5014600208B698A6A4FF0C07453B1D1
:1004A000B3F5005F15D072B1012A0CD0022A0AD030
:1004B000032A09D104E01AB1012A06D0022A03D185
:1004C000C96AC90100D5012010BDC96AA142FAD08C
:1004D00010BD002AF7D0012AF2D0022AF3D0032A55
:1004E000F3D010BD30B50468256825F4802525605B
:1004F000046863608368402B036803D099600068D8
:10050000C26030BD9A600068C16030BD704772B68D
:10051000FEE7000078B50024009490F83C20012A02
:1005200019D0012280F83C200A6807230568092AAF
:1005300013D9EE680A3A02EB420293409E43EE6002
:100540000B788A680A3B03EB43039A400368DD6833
:100550002A43DA6010E0022078BD2E6902EB4202E5
:1005600093409E432E610B788A6803EB43039A40C5
:1005700003681D692A431A614A681F23072A13D298
:1005800005686E6B521E02EB820293409E436E63BF
:100590000A8893B20A79521E02EB820293400268E3
:1005A000556B2B43536327E005680D2A12D22E6B3F
:1005B000D21F02EB820293409E432E630B790A887E
:1005C000DB1F92B203EB83039A4003681D6B2A433F
:1005D0001A6311E0EE6A0D3A02EB820293409E43E9
:1005E000EE620B790A880D3B92B203EB83039A40CB
:1005F0000368DD6A2A43DA621B4B0568194A9D428B
:100600000AD10D68122D07D1556825F400055560F3
:10061000556845F48005556005689D421DD1134D10
:100620000B68AB4201D0112B17D1536823F4800320
:100630005360536843F4000353600968A9420CD126
:100640000B490C4A0968B1FBF2F101EB8101490049
:1006500000E0491E00910029FBD180F83C400020B9
:1006600078BD00000023014000200140120000106E
:100670005800002040420F0070B504004FF0000504
:1006800003D0206C002610B107E0012070BD204689
:1006900000F01CF8666484F83C60206CC00610D43E
:1006A000206C20F4885040F0020020642046FFF7C0
:1006B0002DFE6664206C20F0020040F001002064F2
:1006C00000E0012584F83C60284670BD70B586B016
:1006D000064614216846FFF7B5FD1D49306888427B
:1006E00034D11C480025016841F480710160006824
:1006F00000F48070059017481438016841F001013A
:1007000001600068694600F001000590012000903A
:100710000320CDE90105104800F0F2F9104C0F4814
:10072000C4E900050015A560C4E9035080006061BC
:100730008000A0618011C4E907052046656200F0D1
:100740003DF908B1FFF7E3FEB463A66306B070BDE0
:100750000020014044380240000002401064024082
:10076000700100202DE9F0410446876D00F0BEFACB
:10077000064694F835000025022806D080206065E2
:1007800084F834500120BDE8F0812068016821F030
:10079000160101602068416921F080014161206CEF
:1007A00008B9A06C20B12068016821F0080101603F
:1007B0002068016821F0010101600CE000F096FA68
:1007C000801B052807D920206065032084F83500A8
:1007D00084F83450D7E720680068C007EED194F859
:1007E0005C103F208840B860012084F8350084F810
:1007F00034500020C7E790F83510022903D080213B
:10080000416501207047052180F8351000680168B6
:1008100021F0010101600020704700002DE9F8433C
:1008200004464FF00009CDF8009063484FF416518C
:10083000A56D0068B0FBF1F72E6894F85C100820F5
:1008400000FA01F131420FD021680A6852070BD536
:100850000A6822F004020A6094F85C108840A860DC
:10086000606D40F00100606594F85C104FF0010885
:1008700008FA01F0304208D021684969090604D518
:10088000A860606D40F00200606594F85C10042080
:100890008840304208D021680968890704D5A860DB
:1008A000606D40F00400606594F85C101020884092
:1008B000304218D021680968090714D5A86020685B
:1008C0000168490304D50068000308D5A16C07E05E
:1008D0000168C90503D4016821F008010160216C99
:1008E00009B12046884794F85C10202088403042A7
:1008F00031D021680968C9062DD5A86094F8350063
:1009000005282068016806D0490347D50068000320
:100910001DD4616C1CE021F0160101602068416962
:1009200021F080014161206C08B9A06C20B12068E1
:10093000016821F00801016094F85C103F208840B4
:10094000A86084F8358084F83490216D1FE0E16B55
:1009500009B120468847606D00282BD0606DC00724
:1009600014D0052084F835002068016821F00101C9
:1009700001600098401C0090B84203D820680068CD
:10098000C007F6D184F8358084F83490E16C0029F2
:1009900010D001B02046BDE8F04308470168C90502
:1009A000D5D4016821F01001016084F8358084F805
:1009B0003490CCE7BDE8F883580000202DE9F041E1
:1009C000044600F093F906465CB1022084F8350035
:1009D000002584F834502068016821F0010101608D
:1009E0000DE00120BDE8F08100F080F9801B0528B2
:1009F00005D920206065032084F83500F2E72068DF
:100A00000068C007F0D12268116820480140D4E98D
:100A100001031843D4E90336334318436369184389
:100A2000A3691843E3691843236A18430843616ABA
:100A3000042903D1D4E90B1319430843106020683B
:100A40004069666A20F0070130460E4301270428FA
:100A50000CD1A06A0643E06A40B12046FFF718FDBA
:100A600020B14020606584F83570BAE7206846619F
:100A70002046FFF7F9FC94F85C203F21914081600B
:100A8000656584F835700020ACE700003F8010F009
:100A90002DE9F0410446866D90F8340000250128C8
:100AA0000DD0012084F8340094F835700020012F17
:100AB00007D084F8340002252846BDE8F0810220E2
:100AC000FBE7022784F8357060652046FFF70AFDD2
:100AD00094F85C103F208840B0602068016841F0C5
:100AE00016010160206C20B12068016841F0080106
:100AF00001602068016841F001010160DCE700004D
:100B00002DE9F84FDFF8B8A10022012403254FF0AA
:100B10000F090AF1040BAAF1040E00BF0B6804FAD6
:100B200002F63340B34273D10F7907F00307012F68
:100B300001D0022F16D187684FEA420805FA08FC57
:100B400027EA0C07D1F80CC00CFA08FC4CEA070C99
:100B5000C0F808C04768B7430E79C6F30016964040
:100B60003E4346600E79F643B6070DD0C76856007F
:100B700005FA06FC27EA0C07D1F808C00CFA06FCB7
:100B80004CEA070CC0F80CC00E7906F00306022EE2
:100B900010D1D60800EB8608D8F8206057074FEA36
:100BA000D76C09FA0CF7BE430F6907FA0CF7374305
:100BB000C8F8207006684FEA420C05FA0CF7BE43ED
:100BC0000F7907F0030707FA0CF7374307604E6801
:100BD00016F4403F6DD03B4E376847F4804737608E
:100BE000366822F0030706F480460096364E07EB7F
:100BF000060CDCF8086897073F0F09FA07F826EAA1
:100C00000806DFF8C880404503D14FF000081EE019
:100C10004FE0DFF8BC80404502D14FF0010816E0FC
:100C2000DFF8B080404502D14FF002080FE0DFF856
:100C3000A880404502D14FF0030808E0DFF89C800F
:100C4000404502D14FF0040801E04FF0070808FAD0
:100C500007F848EA0608CCF80888DAF80060574632
:100C6000D1F804C09E435FEACC2C00D51E433E6001
:100C7000DBF800605F46D1F804C09E435FEA8C2C2D
:100C800000D51E433E60DEF800607746D1F804C010
:100C90009E435FEA8C3C00D51E433E60084F083FF0
:100CA0003E68D1F804C09E435FEACC3C00D51E43A9
:100CB0003E60521C102AFFF431AFBDE8F88F0000EF
:100CC000083C01404438024000300140000002402E
:100CD0000004024000080240000C024000100240E4
:100CE0000AB1816170470904FBE700000148806890
:100CF000704700004C00002070B5040025D094F827
:100D00003D00002520B984F83C50204600F0B8F89A
:100D1000242084F83D002068016821F00101016071
:100D20002068016841F4004101602068016821F4F5
:100D30000041016000F010FA4D4A6168914201D80B
:100D40004C4900E04C49884201D2012070BD4B491A
:100D50002368B0FBF1F15E6826F03F060E435E604B
:100D60006368934206D94FF4967359434FF47A73EC
:100D7000B1FBF3F12368491C1E6A26F03F0631439C
:100D800019626168914210D84900401EB0FBF1F22F
:100D9000521CC2F30B02042A01D2042022E0B0FB51
:100DA000F1F0401CC0F30B001CE0A268F2B301EBB1
:100DB000C10303EB0116431EB3FBF6F35B1C43F4C4
:100DC00080431B0549D092B301EBC10202EB011134
:100DD000401EB0FBF1F0401CC0F30B0040F480401B
:100DE00040F400402168CA694CF6FF739A431043EF
:100DF000C861D4E9071001432068026822F0C002EC
:100E000011430160D4E9030101432068826848F27C
:100E1000FF339A4311438160D4E9050108432168F7
:100E2000CA6822F0FF021043C86001E00EE016E03D
:100E30002068016841F0010101602564202084F8E8
:100E40003D00256384F83E50002070BD01EB410653
:100E5000431EB3FBF6F35B1CB3E70120C2E701EBD3
:100E60004101401EB0FBF1F0401CC0F30B00B7E79E
:100E7000A086010080841E0000093D0040420F0052
:100E800010B586B0044614216846FFF7DBF9144913
:100E90002068884221D113480021026842F00202F2
:100EA0000260006800F0020005904FF4C0700090EE
:100EB0001220CDE90101032003900420049069462B
:100EC0000948FFF71DFE07481030016841F4001182
:100ED0000160006800F40010059006B010BD00002D
:100EE000005400403038024000040240024881684B
:100EF00002781144816070474C0000200B4810B507
:100F0000016841F400710160016841F48061016091
:100F1000016841F480710160032000F071F8002045
:100F200000F006F800F024F8002010BD003C02405C
:100F300070B50D4D04464FF47A712878B1FBF0F08E
:100F40000A490968B1FBF0F000F044FC48B9102CE4
:100F500007D200222146501E00F032F800206C60BB
:100F600070BD012070BD00004C0000205800002022
:100F70000B4882B0016841F480410160006800F4D0
:100F8000804000900648001F016841F080510160D8
:100F9000006800F080500090072002B000F030B8E8
:100FA00044380240002809DB00F01F020121914073
:100FB0004009800000F1E020C0F8001170470000F7
:100FC000F0B40E4B1B680C46C3F30223C3F10705B4
:100FD000042D00D90425191D072901D2002300E0A2
:100FE000DB1E012606FA05F1491E214099409E406C
:100FF000761E16403143F0BC01F07ABE0CED00E0E5
:10100000064900F0070208684FF6FF03184040EA5F
:101010000220034A10430860704700000CED00E016
:101020000000FA052DE9F0470E46050065D0DFF80F
:101030001481D8F80000F7B200F00700B04207D2E0
:1010400088F80070D8F8000000F00700B04254D1D2
:1010500028683D4C810712D5400703D5206840F42D
:10106000E05020602878000703D5206840F46040F5
:1010700020602068A96820F0F000084320602878EC
:10108000C0072DD0304968680839012812D00228DD
:1010900013D0032811D00968890700292DDA2168A7
:1010A00021F0030101432160FFF720FE814641F258
:1010B000883A0EE009688903EFE709688901ECE7DF
:1010C000FFF714FEA0EB0901514502D90320BDE84A
:1010D000F0872068696800F00C00B0EB810FEFD159
:1010E000D8F80010404601F00701B14207D9077057
:1010F000006800F00700B04201D00120E7E728783F
:10110000400705D52068E96820F4E05008432060D6
:101110002878000706D52068296920F4604040EA55
:10112000C100206000F038F82168084AC1F30311BB
:10113000515CC8400649086006480068FFF7F8FEA1
:101140000020C4E7003C0240083802405C2F000841
:101150005800002050000020044805490068096834
:10116000044AC1F38221515CC840704758000020F6
:10117000083802406C2F00080448054900680968D7
:10118000044AC1F34231515CC84070475800002006
:10119000083802406C2F0008154810B5006810F0A0
:1011A0000C02144813D04110042A0FD0082A0ED183
:1011B0000F4C241F2268236802F03F025B0207D510
:1011C0002068C0F38810A0FB010106E0084610BDAE
:1011D0002168C1F38811A1FB00010023FEF7FAFF8B
:1011E0002168C1F30141491C4900B0FBF1F010BD79
:1011F000083802400024F4002DE9F84F04006ED0B6
:101200002078DFF84C93C007A9F104054AD009F112
:1012100004000168C1F38101012908D00068C0F30E
:10122000810002280AD1D9F80000400206D52868BA
:10123000800337D560680028E1D033E06068B0F5FE
:10124000803F10D0B0F5A02F286810D020F4803057
:101250002860286820F4802028606068A8B1FFF723
:1012600045FD06460DE0286840F48030F4E740F480
:1012700080202860F7E700BFFFF738FD801B642857
:1012800073D828688003F7D50CE0FFF72FFD0646DA
:1012900005E000BFFFF72AFD801B6428F0D828680E
:1012A0008003F7D42078DFF8AC8280074FF0000A83
:1012B0003ED5A748001D016811F00C0F08D000684A
:1012C000C0F3810002280BD1D9F80000400207D4F6
:1012D0002868800716D5E068012800D112E033E1C4
:1012E000E068B8B10120C8F80000FFF7FFFC06462F
:1012F00005E000BFFFF7FAFC801B0228C0D8286871
:101300008007F7D52868216920F0F80040EAC1007D
:1013100028600DE0C8F800A0FFF7E8FC064604E0EE
:10132000FFF7E4FC801B02281FD828688007F7D449
:101330002078000722D5864F87486169703771B1E0
:1013400001210160FFF7D2FC064604E0FFF7CEFC66
:10135000801B022809D838688007F7D50EE0C0F84E
:1013600000A0FFF7C3FC064605E082E0FFF7BEFCE5
:10137000801B02287DD838688007F7D42078400782
:1013800068D5DFF8CCB100270BF13C0BDBF800008F
:10139000C0000BD4DBF8001041F08051CBF80010F6
:1013A000DBF80000012700F0805000906B4E3068A1
:1013B000C00510D4306840F480703060FFF796FCB0
:1013C000009005E0FFF792FC0099401A022850D8DF
:1013D0003068C005F6D55E4EA0686C3601280FD087
:1013E0000528306810D020F001003060306820F00F
:1013F00004003060A068B8B1FFF778FC00900FE0FF
:10140000306840F00100F4E740F004003060F7E796
:10141000FFF76CFC0099411A41F28830814266D88E
:1014200030688007F4D50EE0FFF760FC009007E01D
:10143000FFF75CFC0099411A41F28830814256D88E
:1014400030688007F4D42FB1DBF8001021F0805110
:10145000CBF80010A069C8B33D49091D0968C1F364
:10146000810102294AD00228504607D0C8F86000FE
:1014700000E03CE0FFF73AFC04463BE04746C8F892
:101480006000FFF733FC064605E000BFFFF72EFCC7
:10149000801B02282BD828688001F7D4D4E90701E3
:1014A0000843A16A2E4A490802EB0141626A41EAF7
:1014B0008211084394F82C1040EA0161C9F8001029
:1014C00001203866FFF712FC044606E03EE000BF4C
:1014D000FFF70CFC001B022809D828688001F7D50B
:1014E00034E000BFFFF702FC001B022802D90320F2
:1014F000BDE8F88F28688001F4D427E00128F7D0F0
:10150000D9F80000E26900F4800191421CD1226AFE
:1015100000F03F01914217D147F6C071626A014065
:10152000B1EB821F10D1A26A4FF0FF3300F44031BB
:1015300003EB5202B1EB024F06D194F82C1000F0ED
:101540007060B0EB016F01D00120D1E70020CFE740
:101550000438024000004742800E474200700040BD
:101560000000FFFF7047000038B5016804464A6874
:101570008868C043430606D5C30704D1D3435B063E
:1015800001D4216C05E0830708D4D3431B0605D49E
:10159000616C01B02046BDE830400847830603D5A2
:1015A000430601D5C30551D4D3439B064ED443060D
:1015B0000AD494F85130032B49D0636D43F00403EF
:1015C0006365CB688B680093830609D4636D43F031
:1015D000010363658B6800930B6823F040030B6085
:1015E000C00506D4606D40F0080060652068806822
:1015F0000090606D002829D02068416821F0E0014A
:101600004160012084F85100900701D4D00722D016
:101610002068416821F003014160114DE06C40B148
:101620000565E06CFFF7E7F818B1606D40F0400029
:101630006065A06C002809D00565A06CFFF7DBF899
:10164000002803D0606D40F04000606538BDC86878
:101650008868009038BD2046FFF784FF38BD000041
:101660007526000870B5040009D0606A002540B1F5
:1016700025616561A56294F8510040B10CE001203C
:1016800070BD6068B0F5827FF4D0E561F2E784F860
:101690005050204600F044F8022084F851002068A1
:1016A000016821F040010160A088218900F4827066
:1016B00001F404410843A18901F400610843217C3D
:1016C00001F002010843217D01F001010843218B53
:1016D00001F400710843217F01F03801084394F8B8
:1016E000201001F080010843218D01F400510843CE
:1016F00021680860A069042101EA104094F82410D0
:1017000001F010010843216848602068C16921F494
:101710000061C1616565012084F85100002070BD41
:1017200070B586B0064614216846FEF78BFD244945
:101730003068884242D123480025016841F4805135
:101740000160006800F4805005901E48143801685C
:1017500041F0010101600068694600F00100059058
:10176000A02000900220CDE9010503200390052070
:1017700004901548FFF7C4F9154C144820604FF049
:10178000806060604020C4E902050001C4E90405EE
:101790004FF44030A561C4E9075020466562FFF769
:1017A0000DF908B1FEF7B3FEB46400221146232000
:1017B000A663FFF705FC2320FFF7F4FB06B070BD1E
:1017C00000300140443802400000024040640240C2
:1017D0007C02002010B5401EB0F1807F01D30120B3
:1017E00010BD4FF0E02460610F21601701F080FA16
:1017F0000020A06107202061002010BD70477047C5
:1018000070B590F83C20012A2CD0012480F83C408F
:10181000022280F83D2003685A689D6822F0700615
:101820000A6832435A60104B02689A420ED0B2F1F5
:10183000804F0BD00D4B9A4208D00D4B9A4205D0E9
:101840000C4B9A4202D00C4B9A4204D1496825F0C5
:1018500080031943916080F83D40002180F83C10DE
:10186000084670BD022070BD000001400004004029
:1018700000080040000C00400040014010B504008A
:1018800003D094F83D0010B107E0012010BD002006
:1018900084F83C00204600F01FF8022084F83D0048
:1018A000211D206800F048FF012084F8460084F8DC
:1018B0003E0084F83F0084F8400084F8410084F83A
:1018C000420084F8430084F8440084F8450084F81A
:1018D0003D00002010BD000008B50068B0F1804F49
:1018E00012D10A48016841F001010160006800223C
:1018F00000F00100009011461C20FFF761FBBDE8DD
:1019000008401C20FFF74EBB08BD000040380240D5
:1019100070B5044690F83C000025012817D0012638
:1019200084F83C60022084F83D002068826822F040
:10193000770222F47F4282600868502838D00DDC9C
:1019400020284FD005DC90B3102811D14AE00220A6
:1019500070BD302846D040280AD13BE060282FD007
:1019600070280DD0B0F5805F03D0B0F5005F12D0C5
:10197000012584F83D60002084F83C00284670BDB5
:10198000CB68D1E90121206800F022FF206881683E
:1019900041F0770109E0CB68D1E90121206800F02E
:1019A00017FF2068816841F480418160E1E719E018
:1019B000CA684968206800F01DFF5021206806E0D1
:1019C000CA684968206800F026FF6021206800F09E
:1019D00009FFCEE7CA684968206800F00BFF402184
:1019E0002068F4E7226801461046F0E7704770B5BA
:1019F0000446006801694FF00005C943890715D402
:101A0000C168C943890711D4E91E0161012020770B
:101A1000206880698007204602D0FFF7E7FF04E0D6
:101A200000F098F8204600F096F8257720680169C4
:101A3000C943490717D4C168C943490713D46FF094
:101A400004010161022020772068806910F4407F42
:101A5000204602D0FFF7CAFF04E000F07BF82046E2
:101A600000F079F8257720680169C943090716D481
:101A7000C168C943090712D46FF00801016104204D
:101A800020772068C0698007204602D0FFF7AEFFAC
:101A900004E000F05FF8204600F05DF8257720684C
:101AA0000169C943C90617D4C168C943C90613D41B
:101AB0006FF010010161082020772068C06910F4E0
:101AC000407F204602D0FFF791FF04E000F042F88B
:101AD000204600F040F8257720680169C943C9070E
:101AE00008D1C168C943C90704D1891E01612046D4
:101AF00000F032F820680169C943090609D4C168B9
:101B0000C943090605D46FF0800101612046FFF743
:101B100075FE20680169C943490609D4C168C943F3
:101B2000490605D46FF040010161204600F015F828
:101B300020680169C94389060BD4C168C943890675
:101B400007D46FF0200101612046BDE87040FFF727
:101B500056BE70BD704770477047704738B5044631
:101B600090F83E00202822D181B17AB194F83C004F
:101B700001281CD0012084F83C002063204601F09D
:101B800019F8002803D1216B012901D0012038BDAB
:101B900021680A684968009121680C3151E8002FDA
:101BA00042F0100241E80023002BF5D138BD02209D
:101BB00038BD000070B500683C493D4C884267D193
:101BC0003CA13E48FEF749FB00285AD03CA13B48C7
:101BD000FEF743FB3C4D20B1012211462846FFF79A
:101BE0007FF83AA13548FEF738FB3A4E20B1012282
:101BF00002213046FFF774F837A13048FEF72DFB7D
:101C000020B1012211463046FFF76AF834A12B4873
:101C1000FEF723FB20B1012208212846FFF760F8D8
:101C200031A12648FEF719FB20B1002201212846E8
:101C3000FFF756F82EA12148FEF70FFB20B1002236
:101C400002213046FFF74CF82BA11C48FEF705FB9C
:101C500020B1002201213046FFF742F828A11748A1
:101C6000FEF7FBFA20B1002208212846FFF738F8DA
:101C7000124925A001F02CF821781048FEF7E2FA6D
:101C800006E00E4926A001F023F82AA001F020F872
:101C9000617837A001F01CF860780849401C60703A
:101CA0002278BDE870403E48FFF758BF004400402E
:101CB00000000020234C454400000000600000208C
:101CC0006F6E4C4544310000000402406F6E4C457D
:101CD00044320000000802406F6E4C45443300005F
:101CE0006F6E4C45443400006F66664C45443100CD
:101CF0006F66664C454432006F66664C454433005F
:101D00006F66664C45443400B4AEBFDA444D41BD05
:101D1000D3CAD5B5BDC3FCC1EE3A2025730A000075
:101D2000BDD3CAD5B5BDB4EDCEF3D6B8C1EE3A2019
:101D300025730A00C7EBCAE4C8EBD5FDC8B7B5C424
:101D4000D6B8C1EEB8F1CABDA3ACC0FDC8E7A3BA0E
:101D5000234C45446F6E4C45443120BBF2D5DF2007
:101D6000234C45446F66664C4544310A0000000030
:101D70002B2B2B2B2B2B2B2B20B4AEBFDAD6D0B694
:101D8000CFBDF8C8EBB4CECAFDCDB3BCC63A25640E
:101D9000202B2B2B2B2B2B2B2B0D0A0D0A0000009D
:101DA0006803002070470000F8B501680446086821
:101DB000CA684B6910F00F0F4FF0000559D003F0BF
:101DC000010602F49077374365D0C10705D0D105ED
:101DD00003D5216C41F001012164410705D5D907E4
:101DE00003D0216C41F002012164810705D5D90798
:101DF00003D0216C41F004012164010707D502F0F2
:101E00002001314303D0216C41F008012164216C91
:101E100000293AD0800604D5900602D5204600F06D
:101E2000E2FD20684069216CC0F38010090700D4EE
:101E300060B3204600F0A2FD20684069400621D52D
:101E40002068143050E8001F21F0400140E80012E3
:101E5000002AF5D1A06BA8B16C490165A06BFEF713
:101E6000CAFC002811D0A06B016D01B0BDE8F040A4
:101E7000084783060FD593060DD52046BDE8F840E8
:101E800000F0B1BD2046FFF78DFFF8BD2046FFF7FB
:101E900089FF2564F8BD266B2023012E79D1C60663
:101EA00077D5D60675D50868486800904869400619
:101EB00040D5A16B086840680004000CEAD0A28DF0
:101EC0008242E7D9E085C869B0F5807F2DD02068CF
:101ED0000C3050E8001F21F4807140E80012002A05
:101EE000F5D12068143050E8001F21F0010140E8CE
:101EF0000012002AF5D12068143050E8001F21F0AC
:101F0000400140E80012002AF5D184F83E302563F4
:101F100020680C3050E8001F21F0100140E800124A
:101F2000002AF5D1A06BFEF71DFCA08DE18D401AB3
:101F300081B229E0A08DE18D401A81B2E08D0028A8
:101F4000A8D00029A6D020680C3050E8002F22F439
:101F5000907240E80026002EF5D12068143050E839
:101F6000002F22F0010240E80026002EF5D184F86F
:101F70003E30256320680C3050E8002F22F010021C
:101F800040E80023002BF5D12046FFF713FEF8BDF3
:101F9000FFE705062BD5150629D594F83D00212825
:101FA000F5D1A068B0F5805F01D12069B0B1206A99
:101FB000411C2162216800784860E08C401E0004CA
:101FC000000CE084E3D12068C16821F08001C16089
:101FD0002068C16841F04001C160D8E7206A0088EC
:101FE000C0F308004860206A801C2062E5E74006D4
:101FF000CDD55006CBD5CA68204622F04002CA6033
:1020000084F83D3000F070F9C1E700003B2800087B
:1020100070B5040004D094F83D00002510B106E02E
:10202000012070BD84F83C50204600F023F82420A5
:1020300084F83D002068C16821F40051C160204649
:1020400000F032FD2068016921F4904101612068AF
:10205000416921F02A0141612068C16841F40051C1
:10206000C1602564202084F83D0084F83E000020F3
:1020700070BD00002DE9F04387B006461421684684
:10208000FEF7E0F8DFF804C131684148022203237B
:102090000727404D002461451DD13D4914310E688C
:1020A00046F010060E60096801F010010591016804
:1020B00041F0010101600068694600F001000590EF
:1020C00058028DE81500CDE903372846FEF718FDC4
:1020D00007B0BDE8F083DFF8C0C06145F8D12C49F6
:1020E0001031D1F800C04CF4003CC1F800C00968C0
:1020F00001F400310591016841F0010101600068BF
:10210000694600F0010005900C208DE81500CDE92E
:1021100003372846FEF7F4FC214D20484FF00067B6
:10212000E5E8020740204FF48068A5E811014FF46C
:10213000403945F814491A48AC61C5E907496C6251
:10214000FEF73CFC08B1FEF7E2F97563AE63144D8F
:102150001248603518382860C5E90174C5E903489C
:102160006C61AC61C5E9074928466C62FEF726FC44
:1021700008B1FEF7CCF9B563002211462620AE6304
:10218000FEF71EFF2620FEF70DFFA1E7001001401D
:10219000303802400000024000440040A06002408D
:1021A000AC030020704770472DE9F843044690F8CF
:1021B0003D001F4616460D4620284CD1C5B1BEB184
:1021C00094F83C00012846D0012084F83C004FF0F0
:1021D0000008C4F84080212084F83D00FEF786FD09
:1021E000A6848146E684A068B0F5805F03D004E051
:1021F0000120BDE8F883206928B12E465FF0000574
:1022000084F83C800EE00026FAE78021204600F0AA
:102210001BFDA0B9AEB116F8010B21684860E08C37
:10222000401EE084E08C4B464FF0000200970028EF
:10223000EBD14FF04001204600F006FD30B1032005
:10224000D7E735F8020BC0F30800E6E7202084F852
:102250003D000020CDE70220CBE7000070B504462A
:1022600090F83D00202836D191B38AB394F83C0011
:10227000012830D0012084F83C002162A284E2844D
:1022800000252564212084F83D00636B1348D86342
:10229000636B13481864636B1248D864606B134611
:1022A00005652668606B321DFEF7F2FB21686FF052
:1022B0004000086084F83C502068143050E8001F4B
:1022C00041F0800140E80012002AF5D1002070BDE5
:1022D000FFE70120FBE70220F9E7000031290008B1
:1022E000732900084B28000870477047FEE700007C
:1022F0007FB5002515480095019502951249039573
:10230000016001244FF480310461C0E901150476B5
:1023100080F820500E49C0E90A15C560C46180F8F4
:1023200030404461FEF7A8F908B1FEF7F0F8CDE9B6
:102330000054694605480295FEF7ECF8002801D0E4
:10234000FEF7E5F87FBD00000020014028010020D5
:102350000100000F194808B5016841F480010160CF
:10236000016801F480010091016841F400110160ED
:102370000068002200F40010009011461020FEF7C3
:102380001FFE1020FEF70EFE002211461120FEF760
:1023900017FE1120FEF706FE002211463820FEF738
:1023A0000FFE3820FEF7FEFD002211463A20FEF710
:1023B00007FEBDE808403A20FEF7F4BD3038024081
:1023C0002DE9F04387B014216846FDF73BFF4848EC
:1023D0000025016841F004010160016801F0040179
:1023E0000591016841F080010160016801F0800100
:1023F0000591016841F001010160016801F00101EE
:102400000591016841F0020101600068394F00F058
:1024100002000590002283213846FEF761FCDFF8B8
:10242000D880002212214046FEF75AFCDFF8CC90FB
:10243000002249214846FEF753FC4FF4005000901B
:102440004FF40410CDE9010569463846FEF758FB04
:1024500001240326CDE9006469463846CDE90245EA
:10246000FEF74EFB0220CDE9000469464046CDE967
:102470000245FEF745FB10208DE871006946404695
:10248000FEF73EFB0920CDE9000469464846CDE948
:102490000245FEF735FB4FF48260CDE90005694641
:1024A00002944846FEF72CFB80208DE871006946B7
:1024B0003846FEF725FB2002CDE900056946029467
:1024C0004046FEF71DFB202000904FF48810CDE918
:1024D000010469464846FEF713FB40208DE8710071
:1024E00069464846FEF70CFB07B0BDE8F0830000E4
:1024F0003038024000080240000002400004024060
:102500000D4810B50B4901600C49416000214FF4A2
:1025100080428160C0E9031241618161C161016251
:10252000FEF7EAFB002803D0BDE81040FDF7EFBF3F
:1025300010BD000000540040D0010020A086010022
:10254000104810B50E4901604FF4827141604FF49C
:10255000004181600021C1604FF400720161C0E957
:102560000512C1610162416281620A21C162FFF705
:1025700079F8002803D0BDE81040FDF7C8BF10BDB2
:10258000003001402402002010B586B00024174816
:10259000009401940294039404944FF080410594B4
:1025A00001606221C0E9011440F2E731C0E903147F
:1025B00080218161FFF762F908B1FDF7A8FF4FF4B0
:1025C0008050009069460948FFF7A2F908B1FDF76D
:1025D0009EFF049404A905480594FFF711F900280B
:1025E00001D0FDF794FF06B010BD0000DC02002012
:1025F0000C4810B50A4901604FF4E13141600021F7
:1026000081600C22C160C0E904128161C161FFF7E1
:10261000FFFC002803D0BDE81040FDF778BF10BDD7
:1026200000100140240300200C4810B50A49016045
:102630004FF4E1314160002181600C22C160C0E9AA
:1026400004128161C161FFF7E3FC002803D0BDE8FB
:102650001040FDF75CBF10BD00440040680300203F
:10266000FEE7FEE7704700000148FEF77DBF00006F
:102670002402002010B5806B0021C187C186FEF7BF
:1026800071FF10BD7047FEF731BC000030B593B04C
:1026900030216846FDF7D6FD14210CA8FDF7D2FDC8
:1026A0001C480025016841F080510160006800F07D
:1026B000805011901848016841F440410160006861
:1026C000022400F440401190012000904FF4A0201B
:1026D00001906005CDE9064008AA0420642182E843
:1026E00013000B906846FEF787FD08B172B6FEE74F
:1026F0000CA90F2081E831004FF48050CDE90F057F
:1027000003210CA8FEF78EFC002801D072B6FEE76C
:1027100013B030BD403802400070004002480168EC
:1027200041F470010160704788ED00E00148FFF757
:102730005EB90000DC020020F0B502681D4B1E4CA3
:102740009F031E4D1E4E984207D0B84205D0A042AE
:1027500003D0A84201D0B04204D122F0700C4A68E4
:1027600042EA0C02984210D0B8420ED0A0420CD0DF
:10277000A8420AD0B04208D0124CA04205D0124C58
:10278000A04202D0114CA04203D122F44074CA6886
:1027900022434C6922F08002224302608A68C262AE
:1027A0000A688262984201D109690163012141618D
:1027B000F0BD00000000014000040040000800409F
:1027C000000C00400040014000440140004801402E
:1027D00010B5846842EA032224F47F440A4322436A
:1027E000826010BD826822F070020A4342F0070145
:1027F0008160704710B5036A046A24F00104046222
:10280000846924F0F00444EA021423F00A020A4323
:102810008461026210BD10B5036A23F010030362E5
:102820008369046A23F4704343EA023224F0A0036C
:1028300043EA01118261016210BD10B5806B002175
:10284000C185C184FFF7AEFA10BD70B5846B2068F6
:10285000406994F83D10C0F3C0100025212904D12F
:1028600018B1E584204600F0B0F82068406994F87B
:102870003E10C0F38010222904D118B1E58520460E
:1028800000F07CF8206C40F0100020642046FFF738
:1028900089FA70BD10B50146806B09680968C905E1
:1028A0002FD40021C18501680C3151E8002F22F49A
:1028B000807241E80023002BF5D10168143151E802
:1028C000002F22F0010241E80023002BF5D101681E
:1028D000143151E8002F22F0400241E80023002B80
:1028E000F5D1202180F83E10016B012909D1016842
:1028F0000C3151E8002F22F0100241E80023002B98
:10290000F5D1016B012902D0FFF74CFC10BD818D80
:10291000FFF750F910BD10B5806B016B012902D093
:10292000FFF741FC10BD818D4908FFF743F910BD49
:1029300010B50146806B09680968C90516D40021E5
:10294000C1840168143151E8002F22F0800241E86F
:102950000023002BF5D101680C3151E8002F42F023
:10296000400241E80023002BF5D110BDFFF7BCFC6D
:1029700010BD10B5806BFFF7B8FC10BD01680C31BD
:1029800051E8002F22F4907241E80023002BF5D18A
:102990000168143151E8002F22F0010241E80023C0
:1029A000002BF5D1016B012909D101680C3151E8E7
:1029B000002F22F0100241E80023002BF5D1202146
:1029C00080F83E1000210163704701680C3151E826
:1029D000002F22F0C00241E80023002BF5D1202176
:1029E00080F83D10704708B590F83E10222901D0BC
:1029F000022008BD82684FF480539A4201D10169D8
:102A000021B1816A9A421BD04AB10AE00268816A08
:102A10005268C2F308020A80816A891C08E00269D0
:102A200072B10268526802F07F020A70816A491C22
:102A30008162C18D491E0904090CC18503D019E0CA
:102A400002685268F1E70168CA6822F02002CA6091
:102A50000168CA6822F48072CA6001684A6922F07B
:102A600001024A61202180F83E10016B012903D048
:102A7000FFF798FB002008BD0021016301680C31BD
:102A800051E8002F22F0100241E80023002BF5D17D
:102A900001680A68D20602D50A6849680091818DEA
:102AA000FFF788F8E6E7000070B5044600680169A2
:102AB000E26821F44051114301612169A068E26993
:102AC00008436169114308432168CA6849F20C63ED
:102AD0009A430243CA6020684169A26921F44071A7
:102AE0001143416131492068884202D0304988420F
:102AF00002D1FEF741FB01E0FEF72EFBE269002365
:102B0000192164253226B2F5004F626828D0A0FB57
:102B10000101930F9200FDF75DFB0146B0FBF5F05C
:102B20006FF01802504301EB800006EB0010B0FB81
:102B3000F5F000F0F002B1FBF5F002EB0012B1FB92
:102B4000F5F06FF01803584301EB800006EB00101E
:102B5000B0FBF5F000F00F0021681044886070BDF4
:102B6000A0FB010192185B41FDF734FB0146B0FB6D
:102B7000F5F00201B1FBF5F06FF01803584301EBDB
:102B8000800006EBC000B0FBF5F000F0F80002EBAF
:102B90004002B1FBF5F0584301EB800006EBC000AA
:102BA000B0FBF5F000F00700D6E700000010014090
:102BB0000014014038B58162828500251346044621
:102BC0000564222084F83E00A26B1C48D063A26BEF
:102BD0001B481064A26B1B48D064A06B0A460565B5
:102BE0002168A06B091DFDF753FF2068016840684C
:102BF000009084F83C50206948B120680C3050E8BF
:102C0000001F41F4807140E80012002AF5D12068CD
:102C1000143050E8001F41F0010140E80012002A82
:102C2000F5D12068143050E8001F41F0400140E821
:102C30000012002AF5D1002038BD000095280008B8
:102C4000172900084B2800082DE9F041984617463F
:102C50000E460446069D27E0681C25D02DB1FEF7E0
:102C600045F8A0EB0800A8421ED920680C3050E8B7
:102C7000001F21F4D07140E80012002AF5D120682D
:102C8000143050E8001F21F0010140E80012002A32
:102C9000F5D1202084F83D0084F83E00002084F81F
:102CA0003C000320BDE8F0812068006836EA00009F
:102CB00004D00020B842CFD00020F3E70120F9E78C
:102CC0000148FFF771B8000068030020FEE700002C
:102CD0000FB4054B10B503A9044A029800F028F878
:102CE00010BC5DF814FB0000E92E00085C00002019
:102CF0000907090E002804DB00F1E02080F8001429
:102D0000704700F00F0000F1E02080F8141D7047BC
:102D100002E008C8121F08C1002AFAD170477047A4
:102D2000002001E001C1121F002AFBD17047000002
:102D30002DE9FF4F8BB09A460F460546002606E068
:102D400025280BD052460D9990476D1C761C28788B
:102D50000028F5D10FB03046BDE8F08F0024A04622
:102D60000122604900E0044315F8013F203B02FACC
:102D700003F00842F7D128782E2817D115F8010F53
:102D800044F004042A280ED06FF02F022878A0F116
:102D9000300109290AD808EB880102EB410100EB58
:102DA00001086D1CF2E757F8048B6D1C2878692820
:102DB0003ED006DC0028CDD063280BD0642804D197
:102DC00036E0732810D075284BD052460D999047A5
:102DD000761C85E017F8040B8DF8000000208DF8B4
:102DE0000100E946012003E057F8049B4FF0FF3053
:102DF00061074FF0000401D40AE0641C44450DDA79
:102E00008442FADB19F804100029F6D106E0641CAC
:102E10008442FCDB19F804100029F8D1264404E0B0
:102E200019F8010B52460D999047641EF8D257E0ED
:102E300001CF4FF00A0B002802DA40422D2102E0B8
:102E4000210504D52B218DF82410012103E0E10791
:102E500005D02021F7E70DF1200908910CE00021B1
:102E6000F9E701CF4FF00A0BF9E75946FDF707FAEA
:102E700001F1300209F8012D0028F6D1ADEB09006F
:102E800000F1200B600701D44FF00108D84502DDA6
:102E9000A8EB0B0000E000208046002406E009A813
:102EA0005246005D0D999047641C761C0898844238
:102EB000F5DB04E0302052460D999047761CB8F1BE
:102EC0000001A8F10108F5DC05E019F8010B5246F4
:102ED0000D999047761CBBF10001ABF1010BF4DCBE
:102EE0006D1C34E70928010038B504468DF8000050
:102EF0000223012269460248FFF756F9204638BDF1
:102F000068030020FDF7FAFFFFF7C0FBFFF758FA50
:102F1000FFF720FAFFF788FBFFF712FBFFF768FBCC
:102F2000FFF7E6F9FFF7ECFAFFF72EFB4A22064916
:102F30000648FFF793F904480549801E02780348C4
:102F4000FEF70CFEFEE700000200002068030020F0
:102F50006000002000061016000610160000000099
:102F60000000000001020304060708090000000039
:102F700001020304942F00080000002060000000FC
:102F8000102D0008F42F0008600000201008000039
:102F9000202D0008C8003D3D3D3D3D3D3D3D3D3DB2
:102FA0003D3D3D3D3D3D3D3D3D3D3D3D3D3D3D3D51
:102FB0003D3D3D3DB4AEBFDA444D41CABEC0FD3DCE
:102FC0003D3D3D3D3D3D3D3D3D3D3D3D3D3D3D3D31
:102FD0003D3D3D3D3D3D3D3D3D3D3D3D3D0D0A00C1
:102FE0000100000010000000000000000024F400B8
:042FF00000000000DD
:040000050800019955
:00000001FF
